:1000000023C1000052C1000050C100004EC10000D9
:100010004CC100004AC1000048C1000046C10000B8
:1000200044C1000042C1000040C100003EC10000C8
:100030003CC100003AC1000038C1000036C10000D8
:1000400034C1000034C6000030C100002EC10000E1
:100050002CC100002AC1000028C100000C946409D2
:1000600024C10000DEC70000B3C700001EC10000AD
:100070001CC100001AC1000018C1000016C1000018
:10008000E9C5000012C1000010C100000EC100004F
:100090000CC100000AC1000008C1000006C1000038
:1000A00004C1000002C10000A8C50000FEC000009D
:1000B000FCC00000FAC00000F8C0000071C50000DC
:1000C000F4C00000F2C00000F0C0000058C70000FB
:1000D0002DC70000EAC00000E8C00000E6C0000034
:1000E000E4C000003A2281223A2281223A2281226F
:1000F0003A225508580847084B0851088F085C08F1
:10010000600866086A086E08740878087C088F081A
:10011000820886088A08950F870F870F950F8B0F27
:100120008B0F950F00000A0B02090C0D0E08070338
:1001300004010000000000000000000000000000BA
:1001400000000000000000000000000000000000AF
:10015000121110000000000000000000000000006C
:10016000000000000000000000000000210024004A
:1001700027002A002D003000330001010000040197
:1001800007010A01000020002300260029002C009E
:100190002F003200000100000301060109010102E5
:1001A0001020200808102040102040800201020189
:1001B0000804020101020408102040808040201041
:1001C000080402018004020180402010080402019A
:1001D0000804020101020408102040800102040802
:1001E0001020408000002200250028002B002E0057
:1001F0003100340002010000050108010B01050572
:100200000505070508080808020202020A0A08088C
:1002100004040404010101010101010103030303BA
:1002200003030303040707070C0C0C0C0C0C0C0C49
:100230000202020206060606060606060B0B0B0B5A
:100240000B0B0B0B1D2B4E2C11241FBECFEFD1E23D
:10025000DEBFCDBF00E00CBF1AE0A0E0B2E0ECECE6
:10026000F0E600E00BBF02C007900D92A03BB10783
:10027000D9F72EE0A0EBBAE001C01D92A339B20776
:10028000E1F711E0C3E2D1E000E006C021970109E7
:10029000802FFE010E94902CC232D10780E0080717
:1002A000A9F70E94C41D0C945530AACEEF92FF927C
:1002B0000F931F93CF93DF93EC019091400C9F5FBE
:1002C000292F27702093400C90FF02C090E801C0B6
:1002D00090E021FD9064247009F0906220E1290FE4
:1002E000FE013C967E018FE0E80EF11C00E011E07B
:1002F0006191662331F070E0C8010E947D2C6F5F30
:1003000001C060E0DF0114976C93322F369F030E1B
:1003100030E0311D1124CF010797311103C0EC01EA
:10032000188203C03150EC013883662311F061500C
:100330006C93EE15FF05E1F6DF91CF911F910F91C0
:10034000FF90EF90089580E991E00895219A089533
:100350000F931F93CF93DF93CDB7DEB762970FB69E
:10036000F894DEBF0FBECDBF8C01F901DC011C96F5
:100370008C917A8369835C834B835E834D83908108
:100380009D8791819E8792819F87813021F4CE0144
:1003900001968CDF06C01C861B861A861986188675
:1003A0001F8283E0888B1A8A198AD801ED91FC910B
:1003B0000484F585E02DBE016F5F7F4FC80119955C
:1003C00062960FB6F894DEBF0FBECDBFDF91CF911E
:1003D0001F910F9108950F931F93CF93DF93CDB784
:1003E000DEB762970FB6F894DEBF0FBECDBF8C01AB
:1003F000F901DC011C968C917A8369835C834B83C1
:100400005E834D8390819D8791819E8792819F8796
:10041000813021F4CE01019649DF06C01C861B867F
:100420001A86198618861F82188A1A8A198AD8018C
:10043000ED91FC910484F585E02DBE016F5F7F4F47
:10044000C801199562960FB6F894DEBF0FBECDBFF6
:10045000DF91CF911F910F910895CF93DF9300D03B
:1004600000D0CDB7DEB7AB011C821D821E82DC013D
:10047000ED91FC910190F081E02D19821A821B828E
:100480009E012F5F3F4FBE016C5F7F4F19952696EF
:100490000FB6F894DEBF0FBECDBFDF91CF910895A8
:1004A000FC0185859685089580E090E008954F923F
:1004B0005F926F927F928F92AF92BF92CF92EF92A4
:1004C000FF920F931F93CF93DF933C01EB0193D6E1
:1004D000F30127853089621B730B6A307105B8F30D
:1004E000F894E881F98155B1526085B18D7F85B965
:1004F0006A859F81262F291B922F2F83BF844A80D4
:100500005B807D85FC84EE847F5FF394E3943E8181
:100510004885A984CB841181D20120E0C32F022F0A
:10052000322F3181112788943111390F08F43FEFB0
:100530009195889470FD130F1795889471FD130F92
:100540001795889472FD130F1795889473FD130FF8
:100550001795889474FD130F1795889475FD130FE4
:100560001795889476FD130F1795889477FD130FD0
:1005700017958894232F7111212F960F122F002C7D
:1005800055B900C017FF85B930812227889400C073
:1005900000C0002C85B931113C0F00C0002C55B9AA
:1005A00000C016FF85B908F43FEFC195889400C0DC
:1005B00000C0002C85B9F0FC230F00C0002C55B9F9
:1005C00000C015FF85B927958894F1FC230F00C062
:1005D00000C0002C85B92795889400C0002C55B91F
:1005E00000C014FF85B9F2FC230F2795889400C042
:1005F00000C0002C85B9F3FC230F00C0002C55B9B6
:1006000000C013FF85B927958894F4FC230F00C020
:1006100000C0002C85B92795889400C0002C55B9DE
:1006200000C012FF85B9F5FC230F2795889400C000
:1006300000C0002C85B9F6FC230F00C0002C55B972
:1006400000C011FF85B927958894F7FC230F00C0DF
:1006500000C0002C85B92795889400C0002C55B99E
:1006600000C010FF85B9132FF110122FCA0D00C062
:1006700000C0002C85B900C000C0002C55B900C0D6
:1006800017FF85B932812227889400C000C0002C52
:1006900085B93111340F00C0002C55B900C016FFC8
:1006A00085B908F43FEFEB0DF11D00C000C0002C30
:1006B00085B9E0FC230F00C0002C55B900C015FF20
:1006C00085B927958894E1FC230F00C000C0002C59
:1006D00085B92795889400C0002C55B900C014FF37
:1006E00085B9E2FC230F2795889400C000C0002C38
:1006F00085B9E3FC230F00C0002C55B900C013FFDF
:1007000085B927958894E4FC230F00C000C0002C15
:1007100085B92795889400C0002C55B900C012FFF8
:1007200085B9E5FC230F2795889400C000C0002CF4
:1007300085B9E6FC230F00C0002C55B900C011FF9D
:1007400085B927958894E7FC230F00C000C0002CD2
:1007500085B92795889400C0002C55B900C010FFBA
:1007600085B9132FE110122F419500C000C0002C55
:1007700085B94C0D00C000C055B900C017FF85B940
:1007800031812227889400C000C0002C85B9311126
:10079000390F00C0002C55B900C016FF85B908F408
:1007A0003FEF9195889400C000C0002C85B970FD82
:1007B000230F00C0002C55B900C015FF85B927953F
:1007C000889471FD230F00C000C0002C85B92795C7
:1007D000889400C0002C55B900C014FF85B972FD83
:1007E000230F2795889400C000C0002C85B973FDA5
:1007F000230F00C0002C55B900C013FF85B9279501
:10080000889474FD230F00C000C0002C85B9279583
:10081000889400C0002C55B900C012FF85B975FD41
:10082000230F2795889400C000C0002C85B976FD61
:10083000230F00C0002C55B900C011FF85B92795C2
:10084000889477FD230F00C000C0002C85B9279540
:10085000889400C0002C55B900C010FF85B9132F33
:100860007111122F960F00C000C0002C85B911978E
:1008700009F086CE20EE31E0D2010E94982CDC01F6
:10088000CB01F4E0B695A79597958795FA95D1F7A2
:1008900020E030E0A9016AE9469E412D569E400DB8
:1008A000511D1124840F951FA11DB11D893E43E0E8
:1008B0009407A105B10588F1885E9340A109B109AB
:1008C00042E0B695A795979587954A95D1F747E069
:1008D000849F212D949F200D311D112460913F0C88
:1008E00070E0860F971F820F931F4091410C50912B
:1008F000420C6091430C7091440C292F3327420F16
:10090000531F611D711D4093410C5093420C609325
:10091000430C7093440C80933F0C78946CD4F30197
:10092000708B6787DF91CF911F910F91FF90EF90B0
:10093000CF90BF90AF908F907F906F905F904F90CF
:100940000895CF92DF92EF92FF920F931F93CF9370
:10095000DF936C018B017A01EC01C55CD34F888178
:1009600087FF04C0FB011182108224C08CE08C9DA3
:1009700090018D9D300D11248881A901480F511DD2
:1009800087FD5A9580912B0E90E04817590794F4F3
:100990008881A901480F511D87FD5A95CA01FA01A6
:1009A000EE0FFF1F8E0F9F1FFC01E556F24F808157
:1009B00086FD19C088818F5F88838CE08C9D9001B3
:1009C0008D9D300D11248881A901480F511D87FD8F
:1009D0005A9580912B0E90E048175907B4F48881FE
:1009E0008C303CF112C08881280F311D87FD3A956B
:1009F000F901EE0FFF1F2E0F3F1FF901E556F24FD1
:100A0000808160E08F738CD3D5CFF8018081918194
:100A1000049680349C4918F480E49CE904C0F801F1
:100A2000808191810496F701918380838FEF888381
:100A300044C0F801408151818881B901680F711D5E
:100A400087FD7A95CB01FB01EE0FFF1F8E0F9F1FD5
:100A5000FC01E556F24F81819281840F951FF701C9
:100A6000918380838881A901480F511D87FD5A9584
:100A7000CA01FA01EE0FFF1F8E0F9F1FFC01E55602
:100A8000F24F808186FF19C08881280F311D87FDB4
:100A90003A95F901EE0FFF1F2E0F3F1FF901E556A2
:100AA000F24F808161E08F73DF91CF911F910F91A1
:100AB000FF90EF90DF90CF9033C3DF91CF911F91E4
:100AC0000F91FF90EF90DF90CF90089580912F0EBF
:100AD000815080932F0E64ED73E089EE9CE00E94BC
:100AE0007E1DE0912F0EF0E0EE0FFF1FE255FD4F4F
:100AF00080810E94F50FE0912F0EF0E0EE0FFF1FB6
:100B0000E255FD4F81810C94C812EEEAF2E020E03C
:100B100030E09081981305C09181691302C0822F43
:100B200008952F5F3F4F32962133310591F78FEFB4
:100B30000895CF93DF93C0E0D0E0FE01EA54F54F73
:100B40001082118212828091780E0E94FC1062E362
:100B500070E080E090E074D32396CC30D10569F743
:100B6000DF91CF9108951F93CF93DF93C0E0D0E042
:100B700010E8FE01EA54F54F10831183128380912F
:100B8000780E0E94FC1062E370E080E090E058D3A1
:100B90002396CC30D10569F7DF91CF911F9108954D
:100BA0001F920F920FB60F9211240BB60F922F9334
:100BB0003F934F935F936F937F938F939F93AF93E5
:100BC000BF93EF93FF9348E251E064E271E080E06D
:100BD00090E0B7DEFF91EF91BF91AF919F918F9120
:100BE0007F916F915F914F913F912F910F900BBE2D
:100BF0000F900FBE0F901F9018951F920F920FB677
:100C00000F9211240BB60F922F933F934F935F9344
:100C10006F937F938F939F93AF93BF93EF93FF93C4
:100C200048EA50E064EA70E083E090E08ADEFF91F9
:100C3000EF91BF91AF919F918F917F916F915F9154
:100C40004F913F912F910F900BBE0F900FBE0F90C1
:100C50001F9018951F920F920FB60F9211240BB68A
:100C60000F922F933F934F935F936F937F938F9345
:100C70009F93AF93BF93EF93FF9348E950E064E9EC
:100C800070E082E090E05DDEFF91EF91BF91AF9167
:100C90009F918F917F916F915F914F913F912F9194
:100CA0000F900BBE0F900FBE0F901F9018951F92C4
:100CB0000F920FB60F9211240BB60F922F933F9302
:100CC0004F935F936F937F938F939F93AF93BF9354
:100CD000EF93FF9348E850E064E870E081E090E033
:100CE00030DEFF91EF91BF91AF919F918F917F91F6
:100CF0006F915F914F913F912F910F900BBE0F908D
:100D00000FBE0F901F901895FC01A089B1898C919E
:100D1000A689B78982FD0FC09C91818D8F5F8F73EB
:100D2000228D821749F0218DDF01A20FB11D5D9642
:100D30009C93818F08958C910895FC01918D828DF3
:100D4000981761F0828DDF01A80FB11D5D968C911F
:100D5000928D9F5F9F73928F90E008958FEF9FEF2A
:100D60000895FC01918D828D981731F0828DE80FE6
:100D7000F11D858D90E008958FEF9FEF0895FC01A0
:100D8000918D228D892F90E0805C9F4F821B91096D
:100D90008F73992708958CE49CE0F1DF21E0892B83
:100DA00009F420E0822F089589EE9CE0E8DF21E03D
:100DB000892B09F420E0822F0895FC01848DDF0146
:100DC000A80FB11DA35ABF4F2C91848D90E00196BE
:100DD0008F739927848FA689B7892C93A089B189AD
:100DE0008C9180648C93938D848D981306C00288B7
:100DF000F389E02D80818F7D80830895EF92FF92AB
:100E00000F931F93CF93DF93EC0181E0888F9B8D2D
:100E10008C8D981305C0E889F989808185FD23C0F0
:100E2000F62E0B8D10E00F5F1F4F0F731127E02E72
:100E30008C8DE8120BC00FB607FCFACFE889F98950
:100E4000808185FFF5CFCE01B8DFF2CF8B8DFE011B
:100E5000E80FF11DE35AFF4FF0820B8FEA89FB89FF
:100E60008081806207C0EE89FF896083E889F98903
:100E700080818064808381E090E0DF91CF911F9139
:100E80000F91FF90EF900895CF93DF93EC01888D41
:100E90008823C1F0EA89FB89808185FD05C0A88986
:100EA000B9898C9186FD0EC00FB607FCF5CF808105
:100EB00085FFF2CFA889B9898C9185FFEDCFCE014E
:100EC0007CDFE8CFDF91CF91089580E090E0892B1F
:100ED00019F06ADF81111CC080E090E0892B41F09D
:100EE00080E090E0892B21F00E940000811113C066
:100EF00052DF811113C080E090E0892BA1F080E0E7
:100F000090E0892B81F00E94000081110AC00895B1
:100F10000E940000E1CF0E940000EACF0E94171754
:100F2000EACF0C94000008950E94CC2E1F920F92DD
:100F30000FB60F9211240BB60F922F933F934F933E
:100F40005F936F937F938F939F93AF93BF93EF9331
:100F5000FF938CE49CE031DFFF91EF91BF91AF9163
:100F60009F918F917F916F915F914F913F912F91C1
:100F70000F900BBE0F900FBE0F901F9018951F92F1
:100F80000F920FB60F9211240BB60F922F933F932F
:100F90004F935F936F937F938F939F93AF93BF9381
:100FA000EF93FF938CE49CE0AFDEFF91EF91BF9154
:100FB000AF919F918F917F916F915F914F913F91F1
:100FC0002F910F900BBE0F900FBE0F901F90189592
:100FD0001F920F920FB60F9211240BB60F922F9300
:100FE0003F934F935F936F937F938F939F93AF93B1
:100FF000BF93EF93FF9389EE9CE0DFDEFF91EF91CB
:10100000BF91AF919F918F917F916F915F914F9120
:101010003F912F910F900BBE0F900FBE0F901F901E
:1010200018951F920F920FB60F9211240BB60F92C4
:101030002F933F934F935F936F937F938F939F93E0
:10104000AF93BF93EF93FF9389EE9CE05DDEFF913A
:10105000EF91BF91AF919F918F917F916F915F9130
:101060004F913F912F910F900BBE0F900FBE0F909D
:101070001F90189590E0FC013197E231F10508F0DE
:101080004EC08827E758FF4F8F4F0C94902C8091CB
:1010900080008F7703C0809180008F7D80938000D7
:1010A000089580918000877FF9CF84B58F7702C043
:1010B00084B58F7D84BD08958091B0008F7703C083
:1010C0008091B0008F7D8093B00008958091900052
:1010D0008F7707C0809190008F7D03C08091900032
:1010E000877F8093900008958091A0008F7707C03C
:1010F0008091A0008F7D03C08091A000877F8093A6
:10110000A0000895809120018F7707C08091200171
:101110008F7D03C080912001877F809320010895F7
:101120001F93CF93DF93282F30E0F901EC5DFE4F42
:101130008491F901E256FE4FD491F901E250FE4F3D
:10114000C491CC23C1F0162F811194DFEC2FF0E075
:10115000EE0FFF1FEC51FE4FA591B4918FB7F8949D
:10116000111105C09C91ED2FE095E92302C0EC918F
:10117000ED2BEC938FBFDF91CF911F910895CF930B
:10118000DF9390E0FC01E256FE4F2491FC01E25017
:10119000FE4F8491882361F190E0880F991FFC0134
:1011A000E659FE4FC591D491FC01EC51FE4FA5913B
:1011B000B491611109C09FB7F8948881209582236A
:1011C0008883EC912E230BC0623061F49FB7F894B2
:1011D0003881822F809583238883EC912E2B2C934A
:1011E0009FBF06C08FB7F894E8812E2B28838FBF4E
:1011F000DF91CF9108953FB7F8948091460C90917C
:10120000470CA091480CB091490C26B5A89B05C08D
:101210002F3F19F00196A11DB11D3FBFBA2FA92F75
:10122000982F8827820F911DA11DB11DBC01CD01F2
:1012300042E0660F771F881F991F4A95D1F70895DE
:101240008F929F92AF92BF92CF92DF92EF92FF92D6
:101250006B017C01D0DF4B015C01C114D104E104BE
:10126000F104E9F0C8DFDC01CB0188199909AA096A
:10127000BB09883E9340A105B10578F321E0C21A6D
:10128000D108E108F10888EE880E83E0981EA11CC1
:10129000B11CC114D104E104F10421F7DECFFF90A9
:1012A000EF90DF90CF90BF90AF909F908F90089578
:1012B0002FB7F8946091410C7091420C8091430CCF
:1012C0009091440C2FBF08951F920F920FB60F926A
:1012D00011242F933F938F939F93AF93BF9380914C
:1012E000410C9091420CA091430CB091440C309170
:1012F000450C23E0230F2D3720F40196A11DB11DCD
:1013000005C026E8230F0296A11DB11D2093450CB0
:101310008093410C9093420CA093430CB093440CE7
:101320008091460C9091470CA091480CB091490CCB
:101330000196A11DB11D8093460C9093470CA0937C
:10134000480CB093490CBF91AF919F918F913F9101
:101350002F910F900FBE0F901F9018958F929F9214
:10136000AF92BF92CF92DF92EF92FF920F931F93B3
:10137000CF93DF936EEE75E089EE9CE00E94EA1455
:1013800080912F0E803308F06EC1E0912F0EF0E0B7
:10139000EE0FFF1FE255FD4F8181843409F463C1D4
:1013A0000CF044C081340CF44CC169E076E089EE65
:1013B0009CE00E94EA14E0912F0EF0E0EE0FFF1F78
:1013C000E255FD4F8181082E000C990B8154910943
:1013D0002CE0289FB001299F700D1124072E000CCE
:1013E000880B990B0E94D62E4B015C010E94E71AD4
:1013F000A50194010E949E2C6B017C0168E176E0BE
:1014000089EE9CE00E947E1DC501B4010E94D013AC
:1014100063E376E089EE9CE00E947E1DC701B60181
:101420000E94D013C0E0D0E001E07EC088340CF010
:1014300008C16AE676E089EE9CE00E94EA14E09139
:101440002F0EF0E0EE0FFF1FE255FD4F218187E4E4
:1014500090E0821B910927FD93952CE0289FB00115
:10146000299F700D1124072E000C880B990B0E94E8
:10147000D62E4B015C010E94EC1BA50194010E9439
:101480009E2C6B017C016AE776E089EE9CE00E946D
:101490007E1DC501B4010E94D01366E976E089EE95
:1014A0009CE00E947E1DC701B6010E94D013C0E0DF
:1014B000D0E001E09CC02DEC3CEC4CE45FE3C701C4
:1014C000B6010E94972D18160CF042C06AE979E91E
:1014D00089E99EE30E94D91511E06BE470E080E099
:1014E00090E0AEDE0E94E71AA50194010E949E2CB6
:1014F0006B017C0168E176E089EE9CE00E947E1D34
:10150000C501B4010E94D01363E376E089EE9CE04C
:101510000E947E1DC701B6010E94D01310132196B0
:10152000C530D105ACF4012F20E030E0A901C7019E
:10153000B6010E94972D18160CF4BDCF2DEC3CEC93
:101540004CE45FEBC701B6010E94D02E87FD03C0BB
:101550006FE476E078C020E030E0A901C701B60171
:101560000E94D02E87FF08C06AE979E989E99EE3E5
:101570000E94FC1510E0B1CF102FAFCF2DEC3CEC4A
:101580004CE45FE3C701B6010E94972D18160CF0DA
:1015900042C06AE979E989E99EE30E94FC1511E0FD
:1015A0006BE470E080E090E04BDE0E94EC1BA50154
:1015B00094010E949E2C6B017C016AE776E089EE23
:1015C0009CE00E947E1DC501B4010E94D01366E913
:1015D00076E089EE9CE00E947E1DC701B6010E9464
:1015E000D01310132196C530D105ACF4012F20E0A3
:1015F00030E0A901C701B6010E94972D18160CF41E
:10160000BDCF2DEC3CEC4CE45FEBC701B6010E9472
:10161000D02E87FD03C063EB76E015C020E030E0FC
:10162000A901C701B6010E94D02E87FF08C06AE950
:1016300079E989E99EE30E94D91510E0B1CF102F16
:10164000AFCF6DEC76E089EE9CE0DF91CF911F91FA
:101650000F91FF90EF90DF90CF90BF90AF909F9051
:101660008F900C94EA14DF91CF911F910F91FF900E
:10167000EF90DF90CF90BF90AF909F908F900895A4
:101680008F929F92AF92BF92CF92DF92EF92FF9292
:101690000F931F93CF93DF9367E077E089EE9CE091
:1016A0000E94EA1480912F0E803308F03BC1E09134
:1016B0002F0EF0E0EE0FFF1FE255FD4F80818133CA
:1016C0000CF41EC184330CF47DC088330CF018C1B7
:1016D0006DE177E089EE9CE00E94EA14E0912F0E24
:1016E000F0E0EE0FFF1FE255FD4F208187E390E011
:1016F000821B910927FD93952CE0289FB001299F1B
:10170000700D1124072E000C880B990B0E94D62E09
:101710004B015C010E947F1AA50194010E949E2C3E
:101720006B017C016DE277E089EE9CE00E947E1DFA
:10173000C501B4010E94D01369E477E089EE9CE012
:101740000E947E1DC701B6010E94D01320E030E048
:10175000A901C701B6010E94972D18168CF42DEC33
:101760003CEC4CEC5EE3C701B6010E94972D1816C5
:1017700034F56AE979E989E99EE30E94B61519C052
:101780002DEC3CEC4CEC5EEBC701B6010E94D02E78
:1017900087FF15C020E030E0A901C701B6010E9413
:1017A000D02E87FF06C06AE979E989E99EE30E94A5
:1017B00093156BE470E080E090E042DDABCF66E62D
:1017C00077E0A0C068E777E089EE9CE00E94EA1429
:1017D000E0912F0EF0E0EE0FFF1FE255FD4F8081EC
:1017E000082E000C990BC1972CE0289FB001299F6F
:1017F000700D1124072E000C880B990B0E94D62E19
:101800004B015C010E94181AA50194010E949E2CB4
:101810006B017C0167E877E089EE9CE00E947E1D09
:10182000C501B401BDD762EA77E089EE9CE00E9471
:101830007E1DC701B601B4D7C0E0D0E001E020E0D2
:1018400030E0A901C701B6010E94972D18169CF43B
:101850002DEC3CEC4CEC5EE3C701B6010E94972DE9
:1018600018160CF046C06AE979E989E99EE30E94FE
:10187000931511E01AC02DEC3CEC4CEC5EEBC7016B
:10188000B6010E94D02E87FF34C020E030E0A901CD
:10189000C701B6010E94D02E87FF30C06AE979E9FE
:1018A00089E99EE30E94B61510E06BE470E080E0E9
:1018B00090E0C6DC0E94181AA50194010E949E2C9B
:1018C0006B017C0167E877E089EE9CE00E947E1D59
:1018D000C501B40165D762EA77E089EE9CE00E9419
:1018E0007E1DC701B6015CD710132196C530D10506
:1018F0001CF06EEB77E006C0012FA1CF102FD5CFE3
:1019000069EA73E089EE9CE0DF91CF911F910F911E
:10191000FF90EF90DF90CF90BF90AF909F908F900F
:101920000C94EA14DF91CF911F910F91FF90EF90EB
:10193000DF90CF90BF90AF909F908F9008958F923F
:101940009F92AF92BF92CF92DF92EF92FF920F934E
:101950001F93CF93DF9369E076E089EE9CE00E94CD
:10196000EA14E0912F0EF0E0EE0FFF1FE255FD4F5D
:101970008081082E000C990BC1972CE0289FB001A4
:10198000299F700D1124072E000C880B990B0E94C3
:10199000D62E4B015C010E94E71AA50194010E941A
:1019A0009E2C6B017C0168E176E089EE9CE00E9450
:1019B0007E1DC501B401F4D663E376E089EE9CE0B8
:1019C0000E947E1DC701B601EBD6C0E0D0E001E069
:1019D00020E030E0A901C701B6010E94972D18163A
:1019E0009CF42DEC3CEC4CE45FE3C701B6010E9493
:1019F000972D18160CF04AC06AE979E989E99EE347
:101A00000E94D91511E01AC02DEC3CEC4CE45FEBC0
:101A1000C701B6010E94D02E87FF38C020E030E019
:101A2000A901C701B6010E94D02E87FF2DC06AE927
:101A300079E989E99EE30E94FC1510E06BE470E00F
:101A400080E090E0FDDB0E94E71AA50194010E946E
:101A50009E2C6B017C0168E176E089EE9CE00E949F
:101A60007E1DC501B4019CD663E376E089EE9CE05F
:101A70000E947E1DC701B60193D610132196C53072
:101A8000D10524F4012FA4CF102FD8CFDF91CF910F
:101A90001F910F91FF90EF90DF90CF90BF90AF908C
:101AA0009F908F9008958F929F92AF92BF92CF9206
:101AB000DF92EF92FF920F931F93CF93DF936AE62B
:101AC00076E089EE9CE086D7E0912F0EF0E0EE0FF5
:101AD000FF1FE255FD4F208187E390E0821B9109B3
:101AE00027FD93952CE0289FB001299F700D1124AC
:101AF000072E000C880B990B0E94D62E4B015C011F
:101B00000E94EC1BA50194010E949E2C6B017C019C
:101B10006AE776E089EE9CE00E947E1DC501B40173
:101B20003FD666E976E089EE9CE00E947E1DC70103
:101B3000B60136D6C0E0D0E001E020E030E0A901F7
:101B4000C701B6010E94972D18169CF42DEC3CECB1
:101B50004CE45FE3C701B6010E94972D18160CF004
:101B60004AC06AE979E989E99EE30E94FC1511E01F
:101B70001AC02DEC3CEC4CE45FEBC701B6010E94AF
:101B8000D02E87FF38C020E030E0A901C701B601A0
:101B90000E94D02E87FF2DC06AE979E989E99EE38A
:101BA0000E94D91510E06BE470E080E090E048DB23
:101BB0000E94EC1BA50194010E949E2C6B017C01EC
:101BC0006AE776E089EE9CE00E947E1DC501B401C3
:101BD000E7D566E976E089EE9CE00E947E1DC701AC
:101BE000B601DED510132196C530D10524F4012F9E
:101BF000A4CF102FD8CFDF91CF911F910F91FF90DD
:101C0000EF90DF90CF90BF90AF909F908F9008950E
:101C1000CF92DF92EF92FF920F931F93CF93DF93B8
:101C200061ED77E089EE9CE0D5D60E947F1A6B01CA
:101C30007C016DE277E089EE9CE00E947E1D60E011
:101C400070E0CB01ADD569E477E089EE9CE00E94BD
:101C50007E1DC701B601A4D500E010E0D1E020E070
:101C600030E0A901C701B6010E94972D181694F41F
:101C70002DEC3CEC4CEC5EE3C701B6010E94972DC5
:101C800018160CF047C06AE979E989E99EE36ED736
:101C9000C1E019C02DEC3CEC4CEC5EEBC701B60189
:101CA0000E94D02E87FF36C020E030E0A901C70196
:101CB000B6010E94D02E87FF2BC06AE979E989E935
:101CC0009EE331D7C0E06BE470E080E090E0B8DAEA
:101CD0000E947F1A6B017C016DE277E089EE9CE047
:101CE0000E947E1D60E070E0CB015AD569E477E088
:101CF00089EE9CE00E947E1DC701B60151D5CD172B
:101D000011F00F5F1F4F0530110524F4DC2FA7CF12
:101D1000CD2FD9CFDF91CF911F910F91FF90EF90F1
:101D2000DF90CF900895CF92DF92EF92FF920F93C2
:101D30001F93CF93DF9364EE77E089EE9CE04AD661
:101D40000E94181A6B017C0167E877E089EE9CE03D
:101D50000E947E1D60E070E0CB0122D562EA77E050
:101D600089EE9CE00E947E1DC701B60119D500E0F6
:101D700010E0D1E020E030E0A901C701B6010E94E7
:101D8000972D181694F42DEC3CEC4CEC5EE3C70157
:101D9000B6010E94972D18160CF047C06AE979E940
:101DA00089E99EE3C0D6C1E019C02DEC3CEC4CECB7
:101DB0005EEBC701B6010E94D02E87FF36C020E03F
:101DC00030E0A901C701B6010E94D02E87FF2BC0C9
:101DD0006AE979E989E99EE3C9D6C0E06BE470E07D
:101DE00080E090E02DDA0E94181A6B017C0167E810
:101DF00077E089EE9CE00E947E1D60E070E0CB0100
:101E0000CFD462EA77E089EE9CE00E947E1DC70194
:101E1000B601C6D4CD1711F00F5F1F4F0530110565
:101E200024F4DC2FA7CFCD2FD9CFDF91CF911F91F5
:101E30000F91FF90EF90DF90CF900895CF92DF92B7
:101E4000EF92FF9266EF77E089EE9CE0C3D50E94A7
:101E50004F1B6B017C0120E030E0A9010E94972D0F
:101E6000181684F42DEC3CEC4CE45EE3C701B6019B
:101E70000E94972D181624F560E070E080E89FE33B
:101E80000CD618C02DEC3CEC4CE45EEBC701B6015F
:101E90000E94D02E87FF14C020E030E0A901C701C6
:101EA000B6010E94D02E87FF05C060E070E080E898
:101EB0009FE316D66BE470E080E090E0C1D9C7CF15
:101EC000FF90EF90DF90CF9008956AE078E089EE80
:101ED0009CE080D580912F0E803338F5E0912F0E55
:101EE000F0E0EE0FFF1FE255FD4FE1818E2FEE0F68
:101EF000990BAA0BBB0BFC01E154F109E730F1058A
:101F000078F48827E557FF4F8F4F0C94902C96DF7D
:101F10006FE178E007C00E94F31C67E378E002C03D
:101F20006EE478E089EE9CE055C508950F931F9309
:101F3000BFD96093540C7093550C8093560C9093BA
:101F4000570CE0914C0CF0914D0C0084F185E02D84
:101F50008CE49CE0199597FF1EC0AAD90091540CFF
:101F60001091550C2091560C3091570CDC01CB018F
:101F7000801B910BA20BB30B0091500C1091510CD4
:101F80002091520C3091530C80179107A207B30790
:101F9000C0F28FEF9FEF1F910F910895FC01A08970
:101FA000B18982E08C93A485B5851C92A685B785FE
:101FB00080E18C93108EA489B58986E08C93A289E8
:101FC000B3898C9180618C93A289B3898C9188604C
:101FD0008C93A289B3898C9180688C930288F38951
:101FE000E02D80818F7D80830895E091E90CF09150
:101FF000EA0C0190F081E02D682F89EE9CE01994A5
:102000000F931F93CF93DF93CDB7DEB729970FB60A
:10201000F894DEBF0FBECDBFEED80091940D1091A5
:10202000950D2091960D3091970DDC01CB01801B11
:10203000910BA20BB30BC297A105B10568F3F894FD
:1020400080918A0D90918B0D9A838983E0918E0DFA
:10205000F0918F0DDF011196808189879091860D17
:10206000E091980DF091990D80919A0D992309F4C2
:102070002EC09081982B98879081809589238F839B
:102080008F818C8388E08B8358856F8149853B8164
:102090002C8189819A81508347FD252F3A95208391
:1020A000262F39F0441F00C000006083000000C0EC
:1020B000F2CF38E04D9160830000019761F7F09313
:1020C000990DE093980D49873B832C8338C090810C
:1020D000982B98879081809589238F838F818E8319
:1020E00088E08D8358856F8149853D812E81898166
:1020F0009A81508347FD252F00C000C0208300C077
:1021000000C000C000C000C060830000262F3A95C8
:1021100041F0441F000000C000C000C000C000C06B
:10212000E8CF38E04D9100C0608300C0019709F707
:10213000F093990DE093980D49873D832E839A8300
:102140008983789458D86093940D7093950D8093FB
:10215000960D9093970D29960FB6F894DEBF0FBE9B
:10216000CDBFDF91CF911F910F910895E091880D20
:10217000F091890D8E179F07F0F530918D0D332367
:1021800061F0639FB0011124672F439FA0011124C8
:10219000452F239F90011124232F3091930D5091AF
:1021A000900DE0918E0DF0918F0D351308C0DC017C
:1021B000AA0FBB1F8A0F9B1F8E0F9F1F0AC0880F7D
:1021C000991F880F991F8E0F9F1FFC01E30FF11DB0
:1021D00010823091900DFC01E30FF11D608330916E
:1021E000910DFC01E30FF11D40833091920DFC0134
:1021F000E30FF11D208308953F924F925F926F92FB
:102200007F928F929F92AF92BF92CF92DF92EF9286
:10221000FF920F931F93CF93DF9300D0CDB7DEB71C
:10222000F82E80917B0E90917C0EA0917D0EB09146
:102230007E0E892B8A2B8B2BE9F00E94FB080091E4
:102240008B0E10918C0E20918D0E30918E0EDC0134
:10225000CB01801B910BA20BB30B00917B0E109155
:102260007C0E20917D0E30917E0E80179107A20783
:10227000B307B8F20E94FB0860938B0E70938C0E2C
:1022800080938D0E90938E0EE091830EF091840ECC
:10229000309759F040917F0E5091800E6091810EE1
:1022A0007091820E8F2D1995F82E00914A0C109185
:1022B0004B0C4F2C512C612C712C0115110509F47C
:1022C00061C0D8011C96EC901C978091790E90917A
:1022D0007A0E8436910510F41C961C92D801ED916B
:1022E000FC91A280B38019821A821B82F11014C063
:1022F000F80145855685628173819E012F5F3F4FAE
:10230000C801F5011995D8011C96EC921C971496FA
:102310000D911C911597D1CFF8013996CE010196F8
:102320006C0148019CE0890E911CDF0113973C90E1
:102330002191332001F12223F1F0822F90E0A0E0DF
:10234000B0E09C01AD012F5F3F4F4F4F5F4FC30186
:10235000B2010E94E92F9B01AC01832D90E0A0E027
:10236000B0E0BC01CD016F5F7F4F8F4F9F4F0E9448
:10237000E92FD6018C93BFEFCB1ADB0AE815F905DC
:10238000A1F6B6CF8091890E90918A0E8C010F5FD5
:102390001F4F10938A0E0093890E49979CF10E945B
:1023A00058094B015C0188EE93E0089FB001099F3A
:1023B000700D189F700D1124072E000C880B990BBF
:1023C000C090850ED090860EE090870EF090880E1B
:1023D000A50194012C193D094E095F090E94F82FAF
:1023E00030937A0E2093790E10928A0E1092890EF5
:1023F0000E9458096093850E7093860E8093870E15
:102400009093880E0F900F900F90DF91CF911F91B6
:102410000F91FF90EF90DF90CF90BF90AF909F9083
:102420008F907F906F905F904F903F900895CF92E4
:10243000DF92EF92FF92DC01A03282E0B8070CF04D
:102440003EC0B7FD06C0A53BB1052CF0A4EBB0E043
:1024500002C0A0E0B0E080912D0E28E830E06901D4
:10246000C81AD10887FDD394CC0CDD1CCC0CDD1C24
:102470000D2C000CEE08FF0880912E0E28E532E0AE
:10248000281B310987FD3395220F331F220F331F7D
:10249000A901330F660B770B9A01AB012C193D098B
:1024A0004E095F090E94403024EB30E040E050E0EC
:1024B0000E941A30C20ED31EE41EF51ED601909162
:1024C0002C0E903398F580912D0E48E850E0481B73
:1024D000510987FD5395440F551F440F551FA417ED
:1024E000B5078CF080912E0E28E532E0281B3109CB
:1024F00087FD3395220F331F220F331FAD012A179B
:102500003B070CF4A90142505109440F551F2FB746
:10251000F894892F90E0FC01EE0FFF1F8E0F9F1F94
:10252000FC01E556F24F528341832FBFFF90EF909D
:10253000DF90CF9008950F931F9390E0FC01E25637
:10254000FE4FA491FC01E250FE4FE491F0E0EE0F4B
:10255000FF1FEC57FE4F859194918A019B013F70BC
:102560004A2F6A2F0E947F1D611571058105910513
:1025700049F0DC01CB010196A11DB11DBC01CD01CB
:102580009F7003C060E070E0CB011F910F91089530
:10259000CF93DF932ADDEC0189EE9CE00E947B1D46
:1025A0008C0F9D1FDF91CF910895FF920F931F9382
:1025B000CF93DF9300D01F92CDB7DEB7B7DCFC011D
:1025C00097FD11C08D32910591F0C0970A9778F070
:1025D000E0914C0CF0914D0C0680F781E02D8CE4DD
:1025E0009CE01995EBCF60E070E0CB014BC020E0A0
:1025F00030E0A901F12CE130F105F1F0ED32F10507
:10260000C9F0CF01C0970A97B8F4AAE0B0E00E94E1
:1026100036308F01FF0F220B330BDC01CB01800F13
:10262000911FA21FB31F9C01AD0120533109410925
:10263000510902C0FF24F394E0914C0CF0914D0C31
:102640000680F781E02D8CE49CE029833A834B835C
:102650005C8319956BDCFC01C09729813A814B8121
:102660005C810A9740F2E130F10529F2FF2041F048
:1026700066277727CB01621B730B840B950B02C077
:10268000CA01B9010F900F900F900F90DF91CF9179
:102690001F910F91FF9008954F925F926F927F92DA
:1026A000EF92FF920F931F93CF93DF93CDB7DEB7D7
:1026B000A1970FB6F894DEBF0FBECDBF7C01FA0123
:1026C000CB0119A2223008F42AE08E010F5D1F4FC2
:1026D000422E512C612C712CBF01A30192010E944A
:1026E000F82FF901CA01015011096A3014F4605D34
:1026F00001C0695CD8016C93232B242B252B61F737
:10270000B801C7010E94661DA1960FB6F894DEBFFE
:102710000FBECDBFDF91CF911F910F91FF90EF9032
:102720007F906F905F904F9008950F931F93CF937A
:10273000DF9300D01F92CDB7DEB7AC01990F660BC7
:10274000770B77FF19C08DE249835A836B837C83B3
:102750004CDC8C0149815A816B817C81709560953C
:10276000509541955F4F6F4F7F4F2AE089EE9CE077
:1027700093DF080F191F05C02AE089EE9CE08CDF6B
:102780008C0189EE9CE00E947B1D800F911F0F90B1
:102790000F900F900F90DF91CF911F910F9108959F
:1027A0004F925F926F927F928F929F92AF92BF9261
:1027B000CF92DF92EF92FF926B017C019B01AC0103
:1027C0000E949B2D882319F062E878E01AC0460128
:1027D0005701E894B7F82FEF3FEF4FE75FE7C501E8
:1027E000B4010E949B2D811112C02FEF3FEF4FE7E4
:1027F0005FE7C501B4010E94D02E181644F466E8C4
:1028000078E089EE9CE00E94661D7C0181C02FEF7C
:102810003FEF4FE75FE4C701B6010E94972D1816FE
:102820001CF46AE878E0EDCF2FEF3FEF4FE75FEC65
:10283000C701B6010E94D02E87FDF3CF20E030E023
:10284000A901C701B6010E94D02E87FF08C08DE202
:10285000CCDB5C01F7FAF094F7F8F09402C0A12CFD
:10286000B12C2AE037ED43EA5BE3C701B6010E94D1
:102870009F2C2B013C010E946B2D6B017C010E945F
:10288000D42E9B01AC01C301B2010E949E2C2B01EE
:102890003C012AE0B701A60189EE9CE0FDDE7C0147
:1028A000EA0CFB1C8EE2A1DBE80EF91E20E030E012
:1028B00040E251E4C301B2010E94352F2B013C01DB
:1028C0000E946B2D4B01A12CB12C2AE0B501A40173
:1028D00089EE9CE0E1DEE80EF91EC501B4010E941C
:1028E000D42E9B01AC01C301B2010E949E2C20E0BA
:1028F00030E040E251E40E94352F0E946B2DAB0185
:1029000060E070E02AE089EE9CE0C6DEE80EF91E89
:1029100089EE9CE00E947B1D8E0D9F1DFF90EF9025
:10292000DF90CF90BF90AF909F908F907F906F90EF
:102930005F904F9008950F931F93CF93DF9300D034
:102940001F92CDB7DEB7AC01990F660B770B77FFFF
:1029500021C08DE249835A836B837C8346DB8C01E3
:1029600049815A816B817C81709560955095419524
:102970005F4F6F4F7F4F2AE089EE9CE08DDE800F26
:10298000911F0F900F900F900F90DF91CF911F919B
:102990000F9108952AE089EE9CE00F900F900F9020
:1029A0000F90DF91CF911F910F9176CECF93DF9350
:1029B000482F50E060E070E02AE089EE9CE06CDE99
:1029C000EC0189EE9CE00E947B1D8C0F9D1FDF9126
:1029D000CF9108950F931F93CF93DF93EC010E9443
:1029E000661D8C01CE010E947B1D800F911FDF911F
:1029F000CF911F910F9108958F929F92AF92BF92A6
:102A0000CF92DF92EF92FF920F931F93CF93DF93BA
:102A10004B015C01C12CD12C7601C3E2D0E007EC64
:102A200011E0C701B6010E94D42EA50194010E94B5
:102A3000D02E87FF14C061E082E00E949008CE0192
:102A40000197F1F760E082E00E949008C8010197C9
:102A5000F1F78FEFC81AD80AE80AF80AE2CFDF9137
:102A6000CF911F910F91FF90EF90DF90CF90BF908B
:102A7000AF909F908F9008956EE878E089EE9CE08B
:102A8000A9DF61E08CE20E9490088BE891E0019759
:102A9000F1F760E08CE20C949008CF92DF92EF9215
:102AA000FF926B017C0160E088E00E94900860E08A
:102AB00089E00E94900860E08AE00E94900860E04F
:102AC0008BE00E94900820E030E042ED52E4C70124
:102AD000B6010E94352FFF90EF90DF90CF908CCF02
:102AE000CF92DF92EF92FF926B017C0161E088E070
:102AF0000E94900861E089E00E94900861E08AE00D
:102B00000E94900861E08BE00E94900820E030E095
:102B100042ED52E4C701B6010E94352FFF90EF90BD
:102B2000DF90CF9069CFCF92DF92EF92FF926B014F
:102B30007C0160E088E00E94900860E089E00E94EB
:102B4000900861E08AE00E94900861E08BE00E94BA
:102B5000900826E636E141E854E4C701B6010E9438
:102B6000352FFF90EF90DF90CF9046CFCF92DF923E
:102B7000EF92FF926B017C0161E088E00E94900877
:102B800061E089E00E94900860E08AE00E9490087D
:102B900060E08BE00E94900826E636E141E854E4CC
:102BA000C701B6010E94352FFF90EF90DF90CF90C4
:102BB00023CFCF92DF92EF92FF926B017C0160E016
:102BC00088E00E94900861E089E00E94900860E03F
:102BD0008AE00E94900861E08BE00E9490082BE55B
:102BE00037E348E554E4C701B6010E94352FFF9052
:102BF000EF90DF90CF9000CFCF92DF92EF92FF92D5
:102C00006B017C0161E088E00E94900860E089E04F
:102C10000E94900861E08AE00E94900860E08BE0EA
:102C20000E9490082BE537E348E554E4C701B6015C
:102C30000E94352FFF90EF90DF90CF90DDCE0F9365
:102C40001F93CF93DF9369E978E089EE9CE0C2DEC1
:102C500010E060E373E089EE9CE050D700E0802F45
:102C6000810F90E0FC01EE0FFF1F8E0F9F1FFC01F4
:102C7000EE53F54FC081D181C230D105B1F044F49B
:102C8000209781F0C130D105E1F46DEA78E00FC002
:102C9000C430D10599F07CF0C530D10591F460ECD9
:102CA00078E005C069EA78E002C062EB78E089EE7E
:102CB0009CE024D70DC066EB78E0F9CF6AEB78E0B2
:102CC000F6CF65EC78E089EE9CE018D7CE0133DED4
:102CD000085F003421F61F5F183009F0BACF89EE83
:102CE0009CE0DF91CF911F910F9105C70F931F9328
:102CF000CF93DF9302EC1AE0C0E0D0E0F8018081CE
:102D000091818230910579F03CF40097A9F0019708
:102D1000B9F420E04FEF09C084309105B1F04CF0D8
:102D2000059751F00DC02FEF40E060E0CE011EDAB4
:102D30000CC020E04FEF02C020E040E06FEFF6CF84
:102D400068EC78E089EE9CE045DE80918E0D9091F4
:102D50008F0D892B09F054D921960D5F1F4FC03478
:102D6000D10561F6DF91CF911F910F910895E09108
:102D70002F0EF0E0EE0FFF1FE255FD4F80818333F1
:102D800061F02CF4813349F08233A9F518C0853302
:102D900021F0ACF0863379F512C0E0912F0E8091CE
:102DA0002F0E90E0F0E0EE0FFF1FE255FD4F218166
:102DB000220F330B21583109821B930B19C0E0916C
:102DC0002F0E80912F0E282F30E0F0E0EE0FFF1F26
:102DD000E255FD4F418188E490E0841B910947FD55
:102DE0009395880F991F0197A901481B590BCA0198
:102DF00080932F0E05C064EE78E089EE9CE0EADD5A
:102E000064ED73E089EE9CE079D6E0912F0EF0E05E
:102E1000EE0FFF1FE255FD4F8081E7D8E0912F0EA6
:102E2000F0E0EE0FFF1FE255FD4F8181B1CB8F9295
:102E30009F92AF92BF92CF92DF92EF92FF920F9349
:102E40001F93CF936FE079E089EE9CE0C3DD2BE325
:102E5000822E2CE9922E02E010E03CE8E32EF12CC9
:102E60004BE4C42ED12CAA24A394B12C8CE49CE076
:102E70000E94BF06892B09F4CFC28CE49CE00E941B
:102E8000B106C82F6FE179E089EE9CE037D68C2F30
:102E90007FDB8091B40A9091B50A81309105E9F009
:102EA0008230910509F432C1892B09F0AAC26BE383
:102EB00079E089EE9CE022D68091B40A9091B50A1F
:102EC00034DCC33209F09DC28CE49CE00E949D0674
:102ED000B092B50AA092B40A7BC16BE379E089EEA7
:102EE0009CE00CD68091B40A9091B50A1EDCCA32DF
:102EF00009F47FC0CF3309F474C0C33209F081C232
:102F00008CE49CE00E949D061093B50A0093B40ADD
:102F100068EE73E080E090E00E94200980912F0E1F
:102F2000882309F44EC06AE979E989EA90E464DE0D
:102F3000F0920102E0920002809100029091010261
:102F40008B3491058CF073DA6FE070E080E090E0F4
:102F50000E942009809100029091010201979093B4
:102F6000010280930002E8CF60ED77E080E090E01E
:102F70000E942009D0920102C092000280910002BA
:102F8000909101028D3891058CF451DA6FE070E078
:102F900080E090E00E94200980910002909101025F
:102FA00001969093010280930002E8CF68E873E1F4
:102FB00080E090E00E9420096AE979E989EA90E4DA
:102FC000F8DD60ED77E080E090E00E9420090E944B
:102FD000B3056CED75E080E090E00E9420094CDDC7
:102FE000F7C08CE49CE00E949D0646DD64E779E032
:102FF00004C28CE49CE00E949D06D7DA7093B30A69
:103000006093B20A63E979E089EE9CE077D580911C
:10301000B20A9091B30A89DBC8DA7093B10A60935F
:10302000B00A60EB79E089EE9CE068D58091B00A47
:103030009091B10A7ADB8091B20A9091B30A97FD20
:1030400012C06091B20A7091B30A072E000C880B6F
:10305000990B0E94D62E25E438ED40EF5AE30E94EA
:10306000352F84DD1BC08091B20A9091B30A609124
:10307000B20A7091B30A181619061CF07195619581
:103080007109072E000C880B990B0E94D62E25E49F
:1030900038ED40EF5AE30E94352F45DDC40101971A
:1030A000F1F78091B00A9091B10A97FD12C060913A
:1030B000B00A7091B10A072E000C880B990B0E9480
:1030C000D62E25E438ED40EF5AE30E94352F71DD0E
:1030D0001BC08091B00A9091B10A6091B00A7091C2
:1030E000B10A181619061CF0719561957109072E21
:1030F000000C880B990B0E94D62E25E438ED40EF8A
:103100005AE30E94352F78DDB7DCB0CE6BE379E06F
:1031100089EE9CE0F3D48091B40A9091B50A05DB66
:10312000C33259F0CF3309F06CC18CE49CE00E94AB
:103130009D06A2DC6CED79E060C18CE49CE00E940D
:103140009D061092B50A1092B40A0E9499056DEC82
:1031500079E089EE9CE03EDCE0912F0EF0E0EE0F8E
:10316000FF1FE255FD4F80818733F1F4E0912F0E70
:10317000F0E0EE0FFF1FE255FD4F8181813441F1F8
:1031800060E070E080E491E414DD0E9466050E9436
:10319000650F0E94400B0E94AE0964E670E080E07B
:1031A00090E00E942009E2CFE0912F0EF0E0EE0FB8
:1031B000FF1FE255FD4F81818134C9F5E0912F0E4B
:1031C000F0E0EE0FFF1FE255FD4F8081873351F491
:1031D0006CE479E089EE9CE091D48091B40A9091FE
:1031E000B50A18C160E070E080E491E405DDBFDD60
:1031F000E0912F0EF0E0EE0FFF1FE255FD4F8081B2
:10320000813364F0853334F0883344F4ECD30E9486
:10321000530D04C00E941E0F0E949F0C0E94080EB6
:1032200064E670E080E090E00E942009C7CFE09162
:103230002F0EF0E0EE0FFF1FE255FD4F8181873426
:1032400009F068C0E0912F0EF0E0EE0FFF1FE2558D
:10325000FD4F8081873329F160E070E080E491E4E4
:10326000CBDC85DDE0912F0EF0E0EE0FFF1FE25585
:10327000FD4F8081813364F0853334F0883344F42A
:10328000B2D30E94530D04C00E941E0F0E949F0CD7
:103290000E94930E64E670E080E090E00E942009B6
:1032A000D1CF60E070E080E490E483DC64EF71E013
:1032B00080E090E00E94200960E070E080E89FE3F9
:1032C00055DC60E070E084EB92E4E7DB60E070E006
:1032D00080EC9FE391DCE0912F0EF0E0EE0FFF1FFA
:1032E000E255FD4F8181813409F472CF60E070E0D6
:1032F00080E491E45EDC0E9466050E94650F0E94F6
:10330000400B0E94AE0964E670E080E090E00E940D
:103310002009E1CFE0912F0EF0E0EE0FFF1FE25504
:10332000FD4F8081813309F053CFE0912F0EF0E003
:10333000EE0FFF1FE255FD4F81818134A1F060E067
:1033400070E080E491E435DC0E9466050E94650F20
:103350000E94400B0E94AE0964E670E080E090E0BD
:103360000E942009E2CF60E070E080E490E444DC59
:1033700064E670E080E090E00E94200960E070E088
:1033800080E89FE3D0DB60E070E084EB92E4A8DBB0
:1033900060E070E080EC9FE30CDCE0912F0EF0E049
:1033A000EE0FFF1FE255FD4F8081873309F410CFE8
:1033B00060E070E080E491E41FDCD9DCE0912F0E46
:1033C000F0E0EE0FFF1FE255FD4F8081813364F086
:1033D000853334F0883344F406D30E94530D04C07F
:1033E0000E941E0F0E949F0C0E94080E64E670E06F
:1033F00080E090E00E942009D0CF89EE9CE0EADADC
:1034000035CD60E679E089EE9CE078D38CE49CE0F1
:103410000E949D068AD92ACDCF911F910F91FF90CE
:10342000EF90DF90CF90BF90AF909F908F900895D6
:10343000CF92DF92EF92FF920F931F93CF93DF9380
:10344000CAE0D0E0C12CD12C76010FE010E061E0A1
:103450008EE20E949008C8010197F1F760E08EE2C9
:103460000E94900840E452E46FE070E088E163D885
:103470000E94D42E9B01AC01C701B6010E949F2C73
:103480006B017C016AE070E080E090E00E9420091E
:103490002197E9F620E030E040E251E4C701B601AF
:1034A0000E94032D20E030E040E05FE30E94352FD2
:1034B00020E030E048EE51E40E94032D2EE53AEB87
:1034C00049EC5EE30E94352F24E13EEA4FE850E4E8
:1034D0000E949E2C6B017C016BEF79E089EE9CE0F1
:1034E0000DD3C701B6015CD9C701B601DF91CF91F9
:1034F0001F910F91FF90EF90DF90CF900895CF92A2
:10350000DF92EF92FF920F931F93CF93DF93CAE066
:10351000D0E0C12CD12C76010FE010E061E088E210
:103520000E949008C8010197F1F760E088E20E94CC
:10353000900840E452E46FE070E086E20E949B1243
:103540000E94D42E9B01AC01C701B6010E949F2CA2
:103550006B017C016AE070E080E090E00E9420094D
:103560002197E1F620E030E040E251E4C701B601E6
:103570000E94032D20E030E040E05FE30E94352F01
:1035800020E030E048EE51E40E94032D2EE53AEBB6
:1035900049EC5EE30E94352F23E333E343E750E435
:1035A0000E949E2C6B017C0168E07AE089EE9CE031
:1035B000A5D2C701B601F4D8C701B601DF91CF91FA
:1035C0001F910F91FF90EF90DF90CF900895CF92D1
:1035D000DF92EF92FF920F931F93CF93DF93CAE096
:1035E000D0E0C12CD12C76010FE010E061E080E347
:1035F0000E949008C8010197F1F760E080E30E9403
:10360000900840E452E46FE070E08DE20E949B126B
:103610000E94D42E9B01AC01C701B6010E949F2CD1
:103620006B017C016AE070E080E090E00E9420097C
:103630002197E1F620E030E040E251E4C701B60115
:103640000E94032D20E030E040E05FE30E94352F30
:1036500020E030E048EE51E40E94032D2EE53AEBE5
:1036600049EC5EE30E94352F20E030E040E050E47A
:103670000E949E2C6B017C0166E17AE089EE9CE061
:103680003DD2C701B6018CD8C701B601DF91CF91F9
:103690001F910F91FF90EF90DF90CF900895AF9220
:1036A000BF92CF92DF92EF92FF920F931F93CF932F
:1036B000DF9300D01F92CDB7DEB78AE0A82EB12CE1
:1036C000C12CD12C76010FE010E061E086E10E9470
:1036D0009008C8010197F1F760E086E10E94900828
:1036E00040E452E46FE070E08FE20E949B120E947F
:1036F000D42E9B01AC01C701B6010E949F2C6B0127
:103700007C016AE070E080E090E00E94200981E0A6
:10371000A81AB108D1F620E030E040E251E4C70138
:10372000B6010E94032D20E030E040E05FE30E94FC
:10373000352F20E030E048EE51E40E94032D2EE5C5
:103740003AEB49EC5EE30E94352F20E030E040EC9C
:103750005FE30E949E2C6B017C0169E27AE089EEB6
:103760009CE0CCD1C701B6011BD86AE070E080E0D4
:1037700090E00E9420092BDF9B01AC016AE070E021
:1037800080E090E029833A834B835C830E94200988
:1037900029813A814B815C81C701B6010E949E2C30
:1037A0006B017C016BE37AE089EE9CE0A7D1C70155
:1037B000B6010E94D013C701B6010F900F900F9071
:1037C0000F90DF91CF911F910F91FF90EF90DF90BD
:1037D000CF90BF90AF900895CF92DF92EF92FF927B
:1037E0000F931F93CF93DF93CAE0D0E0C12CD12C6D
:1037F00076010FE010E061E080E20E949008C801CD
:103800000197F1F760E080E20E94900840E452E402
:103810006FE070E08CE10E949B120E94D42E9B010D
:10382000AC01C701B6010E949F2C6B017C016AE0CC
:1038300070E080E090E00E9420092197E1F620E00E
:1038400030E040E251E4C701B6010E94032D20E0C0
:1038500030E040E05FE30E94352F20E030E048EEAA
:1038600051E40E94032D2EE53AEB49EC5EE30E9401
:10387000352F2EEA37E441EC5FE30E949E2C6B016A
:103880007C0167E57AE089EE9CE038D1C701B6019A
:103890000E94D013C701B601DF91CF911F910F9104
:1038A000FF90EF90DF90CF900895AF92BF92CF92AC
:1038B000DF92EF92FF920F931F93CF93DF9300D08D
:1038C0001F92CDB7DEB78AE0A82EB12CC12CD12C27
:1038D00076010FE010E061E08FE10E949008C801DE
:1038E0000197F1F760E08FE10E94900840E452E414
:1038F0006FE070E08AE10E949B120E94D42E9B012F
:10390000AC01C701B6010E949F2C6B017C016AE0EB
:1039100070E080E090E00E94200981E0A81AB108E0
:10392000D1F620E030E040E251E4C701B6010E9448
:10393000032D20E030E040E05FE30E94352F20E0DF
:1039400030E048EE51E40E94032D2EE53AEB49ECBD
:103950005EE30E94352F2FE135E84BEC5FE30E94D8
:103960009E2C6B017C016BE67AE089EE9CE0C6D070
:10397000C701B6010E94D0136AE070E080E090E0D9
:103980000E94200929DF9B01AC016AE070E080E021
:1039900090E029833A834B835C830E94200929812C
:1039A0003A814B815C81C701B6010E949E2C6B015C
:1039B0007C016EE77AE089EE9CE0A0D0C701B601F9
:1039C0000E94D013C701B6010F900F900F900F9077
:1039D000DF91CF911F910F91FF90EF90DF90CF90EB
:1039E000BF90AF900895CF92DF92EF92FF926BE974
:1039F0007AE089EE9CE00E94EA1457DF6B017C01BB
:103A000020E030E0A9010E94972D181684F42DECD7
:103A10003CEC4CE45EE3C701B6010E94972D1816FA
:103A20002CF560E070E080E89FE35AD818C02DECD8
:103A30003CEC4CE45EEBC701B6010E94D02E87FF40
:103A400015C020E030E0A901C701B6010E94D02EC8
:103A500087FF05C060E070E080E89FE31ED86BE45C
:103A600070E080E090E00E942009C7CFFF90EF90C7
:103A7000DF90CF900895CF92DF92EF92FF920F9355
:103A80001F93CF93DF936C017A018B01C0E0D0E0EC
:103A9000CE15DF0589F0D8016D918D01D601ED912C
:103AA000FC910190F081E02DC6011995892B11F44C
:103AB0007E0102C02196ECCFC701DF91CF911F910B
:103AC0000F91FF90EF90DF90CF90089561157105F1
:103AD00079F0FB0101900020E9F73197AF01461B17
:103AE000570BDC01ED91FC910280F381E02D1994DC
:103AF00080E090E008956FE273E0E8CFE7CFCF92E7
:103B0000DF92EF92FF920F931F93E82FF92F05C0DA
:103B1000015011092109310961F19081962394170F
:103B2000B9F305C0015011092109310911F1908142
:103B300096239413F7CFC12CD12CE12CF12C0AC081
:103B40008FEFC81AD80AE80AF80A0C151D052E05C9
:103B50003F0579F080818623841791F36C2D7D2DAC
:103B60008E2D9F2D1F910F91FF90EF90DF90CF90A2
:103B7000089560E070E080E090E01F910F91FF9069
:103B8000EF90DF90CF900895CF93DF93CDB7DEB75E
:103B90006C970FB6F894DEBF0FBECDBF789484B596
:103BA000826084BD84B5816084BD85B5826085BD39
:103BB00085B5816085BD80916E00816080936E00C7
:103BC00010928100809181008260809381008091B9
:103BD000810081608093810080918000816080936A
:103BE00080008091B10084608093B1008091B0002A
:103BF00081608093B00080919100826080939100F9
:103C0000809191008160809391008091900081600B
:103C1000809390008091A10082608093A1008091A8
:103C2000A10081608093A1008091A00081608093B9
:103C3000A000809121018260809321018091210167
:103C40008160809321018091200181608093200117
:103C500080917A00846080937A0080917A008260FB
:103C600080937A0080917A00816080937A008091BD
:103C70007A00806880937A001092C1001092740ECE
:103C80001092750E1092760E1092770E1092320EE0
:103C90001092330E1092340E1092350E60ED77E0D4
:103CA00080E090E00E94200989EE9CE09093730EE2
:103CB0008093720E0E94CE0F0E9458096093320EBC
:103CC0007093330E8093340E9093350E60E273E060
:103CD0008091720E9091730E11DF6AE070E080E0C7
:103CE00090E00E94200981E08093460E89EE9CE0DE
:103CF0000E94CE0F68EE73E080E090E00E94200901
:103D000062E373E089EE9CE00E94EA146FE773E0DF
:103D100089EE9CE00E94EA1463E373E089EE9CE084
:103D20000E94EA1460E08CE00E94BF0860E08CE032
:103D30000E94900861E081E20E94BF0860E081E299
:103D40000E94900860E08AE10E94BF0860E08CE178
:103D50000E94BF0860E086E20E94BF0860E08DE23A
:103D60000E94BF0860E08FE20E94BF0860E088E127
:103D70000E94BF0861E08FE10E94BF0860E08FE110
:103D80000E94900861E080E20E94BF0860E080E24B
:103D90000E94900861E088E20E94BF0860E088E22B
:103DA0000E94900861E080E30E94BF0860E080E329
:103DB0000E94900861E086E10E94BF0860E086E111
:103DC0000E94900861E08EE20E94BF0860E08EE2EF
:103DD0000E94900861E082E00E94BF0860E082E0FB
:103DE0000E94900861E088E00E94BF0861E088E0DE
:103DF0000E94900861E089E00E94BF0860E089E0CD
:103E00000E94900861E08AE00E94BF0861E08AE0B9
:103E10000E94900861E08BE00E94BF0860E08BE0A8
:103E20000E94900860E082E20E94BF0861E08DE09D
:103E30000E94BF0860E08DE00E9490088CE49CE046
:103E40000E94CE0F61E08CE20E94BF0860E08CE22D
:103E50000E9490081092B50A1092B40A1092B30A08
:103E60001092B20A1092B10A1092B00A83E090E068
:103E70009093A00B80939F0B1092A10BEFE9FBE0B6
:103E800081E024E030E034832383858333968F5FA1
:103E90008133C9F761E487E30E948505E82FF0E0EC
:103EA0009F01220F331FE20FF31FE156F44F23E06F
:103EB00030E031832083828380918C0D87FD08C0A0
:103EC00061E00E94BF0860E080918C0D0E94900824
:103ED00081E08093870D60918D0D663021F12091F6
:103EE0008E0D30918F0D615031F070E08FEF95E0C5
:103EF0000E94692C02C060E070E0F90140918A0DD7
:103F000050918B0DCF01821B930B8417950740F4C2
:103F10004081469FC001479F900D11249193EECFA1
:103F200086E080938D0D80912C0E803308F053C075
:103F300061E085E30E94BF0880912C0EE82FF0E03D
:103F40009F01220F331FE20FF31FE556F24F9081BE
:103F5000907C9563908310922D0E10922E0E6CE043
:103F60000E945D2C2CE0829FB001112440E050E0C3
:103F70009A01260F371FF901EE0FFF1F2E0F3F1F6B
:103F8000F901E556F24F908196FD18C04F5F5F4FE3
:103F90004C30510569F7813011F00C94322A10929F
:103FA000800082E08093810010928500109284004E
:103FB000B19A80916F00826080936F00E0912C0E27
:103FC000F0E0CF01880F991FE80FF91FE556F24F77
:103FD00080818064808380910002909101020E9420
:103FE00017128091950B811145C01092870B10928A
:103FF000860B8FEF80938A0B80938B0B80938C0BB7
:1040000080938D0B80938E0B80938F0B81E0809338
:10401000900B1092920B1092910B1092890B1092B0
:10402000880B80914A0C90914B0C892B31F484E8D9
:104030009BE090934B0C80934A0CE091820BF091A3
:10404000830B309721F084E89BE09583848384E898
:104050009BE09093830B8093820B1092940B1092B1
:10406000930B80E292E09093850B8093840B81E028
:104070008093950BE091840BF091850B0480F58182
:10408000E02D84E89BE0199586EB9AE09093870BEE
:104090008093860B84E090E09093920B8093910B39
:1040A000E091840BF091850B0284F385E02D84E888
:1040B0009BE01995009729F19C0140E050E060E4F5
:1040C00072E48FE090E00E941A30722F632F00910B
:1040D0007B0E10917C0E20917D0E30917E0E872FED
:1040E000962FDA0180179107A207B30710F4D901C0
:1040F000C80180937B0E90937C0EA0937D0EB093AD
:104100007E0E0E94990560E177E280E090E00E94D7
:10411000200920E04FEF6FEF80E090E00E94B610A2
:1041200080918E0D90918F0D892B11F00E940010BF
:1041300060E3A62E61E0B62E0AEA11E07AE0E72EEF
:1041400072E0F72EF5018491F801C490F701D49044
:10415000DD20A1F081110E943A088D2D90E0880F9A
:10416000991F8C579E4FFC01A591B4918C91C82248
:1041700081E0D12C09F480E0C82E02C0C12CD12CE2
:10418000C0929D0BD0929E0B64EF71E080E090E0B6
:104190000E942009C6010E94951380919D0B909169
:1041A0009E0B892B09F4CECF6DEC7CEC8CEC9DE35F
:1041B0000E94FC156DEC7CEC8CEC9DE30E944D158F
:1041C0006DEC7CEC8CEC9DE30E94D9156DEC7CECE5
:1041D0008CEC9DE30E94701545E0642E712C0E94CA
:1041E0005809672B682B692B41F40E9458096230EB
:1041F00071058105910508F403C10E945809609377
:10420000370C7093380C8093390C90933A0C0091D2
:10421000330C1091340C2091350C3091360C601712
:1042200071078207930740F46093330C7093340C4A
:104230008093350C9093360C0091330C1091340C14
:104240002091350C3091360C6B017C01C01AD10ADB
:10425000E20AF30A970186010A3F1105210531059B
:1042600008F4CEC06093330C7093340C8093350CFB
:104270009093360C24EF31E040E050E020933E0E66
:1042800030933F0E4093400E5093410E1092420ED9
:104290001092430E1092440E1092450E8091360EED
:1042A0009091370EA091380EB091390E80933A0E4E
:1042B00090933B0EA0933C0EB0933D0E0E94580984
:1042C0006093360E7093370E8093380E9093390EAC
:1042D0000E9458096093320E7093330E8093340E0F
:1042E0009093350E0E9458096B017C0169E873E0D8
:1042F0008091720E9091730E01DC2AE041E050E053
:1043000060E070E08091720E9091730E0E944C13E9
:1043100060E973E08091720E9091730EEFDB2AE0FA
:10432000B701A6018091720E9091730E0E944C13FA
:1043300062E973E08091720E9091730EDFDB8091E1
:10434000360E9091370EA091380EB091390EB7010C
:10435000A601481B590B6A0B7B0B2AE08091720E59
:104360009091730E0E944C1362E973E08091720E7B
:104370009091730EC3DB4091360E5091370E6091D1
:10438000380E7091390E80913A0E90913B0EA091AB
:104390003C0EB0913D0E481B590B6A0B7B0B2AE07B
:1043A0008091720E9091730E0E944C1364E973E039
:1043B0008091720E9091730EA1DB0E945809AB019F
:1043C000BC012AE08091720E9091730E0E944C13F2
:1043D00066E973E08091720E9091730E0E94EA1468
:1043E00065E070E080E090E00E9420090E9458099A
:1043F0006093360E7093370E8093380E9093390E7B
:104400008091320C81110C942E2A31E3832E912C51
:1044100080912F0E803308F05FC16DE973E089EE63
:104420009CE00E94EA1480912F0E803308F002C1B4
:10443000E0912F0EF0E0EE0FFF1FE255FD4FF080F0
:10444000E0912F0EF0E0EE0FFF1FE255FD4FE180EF
:104450008F2D0F2C000C990BAA0BBB0BFC01F197B5
:10446000E730F10508F093C08827EE58FF4F8F4FD3
:104470000C94902C36E4E316E9F13E154CF041E43F
:10448000E4160CF484C060E070E080E491E436C08F
:1044900057E4E5127CC060E070E080E490E40E94A4
:1044A000D91564E670E080E090E00E94200960E0A9
:1044B00070E080E89FE30E94931564E670E080E07E
:1044C00090E00E94200960E070E084EB92E40E949A
:1044D0004D1560E070E080E491E40E94FC1560E01E
:1044E00070E084EB92E40E94701560E070E080EC74
:1044F0009FE304C060E070E088E291E40E94FC1554
:104500004CC062E4E616E1F16E1594F171E4E71235
:104510003EC060E070E080E490E40E94FC1564E638
:1045200070E080E090E00E94200960E070E080E8A8
:104530009FE30E94931564E670E080E090E00E94A3
:10454000200960E070E084EB92E40E944D1560E089
:1045500070E080E491E40E94FC1560E070E084EB80
:1045600092E40E94701560E070E080EC9FE30CC064
:1045700087E48E1564F060E070E080E491E404C0AC
:1045800060E070E088E291E40E94D91506C069EA13
:1045900073E089EE9CE00E94EA1480912F0E8F5FF9
:1045A00080932F0E64ED73E089EE9CE0A7DAE09132
:1045B0002F0EF0E0EE0FFF1FE255FD4F80810E94AD
:1045C000F50FE0912F0EF0E0EE0FFF1FE255FD4FCB
:1045D00081810E94C8120E94650F0E94400B0E94B8
:1045E000AE09E0912F0EF0E0EE0FFF1FE255FD4FF8
:1045F0001081E0912F0EF0E0EE0FFF1FE255FD4F0E
:10460000018164EE73E089EE9CE078DA8F2D0E94E0
:10461000F50F8E2D0E94F50F66EF73E089EE9CE09A
:104620006DDA812F0E94F50F802F0E94C81289EE4B
:104630009CE061DA64E670E080E090E00E9420098E
:1046400061E081E20E9490088BE891E00197F1F728
:1046500060E081E20E94900860E074E089EE9CE0F6
:104660000E94EA1402E310E0E12CF12C40E157E251
:1046700060E070E082E20E949B129B0177FF04C021
:1046800022273327261B370BE20EF31E0150110998
:1046900069F7C70162E370E00E947D2C8B016EE038
:1046A00074E089EE9CE02ADAC8010E949B1467E25C
:1046B00074E089EE9CE00E94EA14C80117FF04C070
:1046C00088279927801B910B459734F009571C4E7A
:1046D0000F30174208F4F6C6A1E08A1A910809F0D3
:1046E00097CE90E0E12CF12C00E010E0892F800FB4
:1046F000A82EB12CB7E0EB16F10419F00730110524
:1047000079F49501220F331F2A0D3B1DF901EE5359
:10471000F54FA4E0CA2ED12CD182C082128220C0D3
:104720006501CC0CDD1CF601E25DFD4F61818081ED
:104730009A8F0E94850523E0829FF0011124E156A3
:10474000F44F95012C0D3D1DD901AE53B54F20817D
:10475000318111963C932E93828112968C939A8D7F
:104760000F5F1F4F0830110509F63FEFE31AF30AF8
:10477000985F903409F0B8CF0E941F160E947616F9
:1047800060ED77E080E090E00E94200928E018EFDB
:10479000120F58E0520F32E0320F422FA1E0B0E08A
:1047A000052F021BD12ED21ACA2E822F8A0F90E01B
:1047B0005C01AA0CBB1CF501E80FF91FEE53F54F85
:1047C000608171816430710509F019C1612F6A0F30
:1047D00070E0FB01EE0FFF1FE60FF71FEE53F54FE2
:1047E000608171816115710579F56A2F650F70E03F
:1047F000FB01EE0FFF1FE60FF71FEE53F54F608131
:1048000071816115710509F09CC0642F70E0FB0196
:10481000EE0FFF1FE60FF71FEE53F54F608171811A
:104820006430710509F0EBC0632F70E0FB01EE0FFF
:10483000FF1FE60FF71FEE53F54F60817181643063
:10484000710509F0DCC068C66430710509F0D7C095
:10485000C50E6C2D70E0FB01EE0FFF1FE60FF71F7A
:10486000EE53F54F6081718164307105E9F4642F76
:1048700070E0FB01EE0FFF1FE60FF71FEE53F54F41
:1048800060817181672B09F0BAC0632F70E0FB0172
:10489000EE0FFF1FE60FF71FEE53F54F608171819A
:1048A000672B09F439C6ABC0672B09F0A8C0642F89
:1048B00070E0FB01EE0FFF1FE60FF71FEE53F54F01
:1048C0000190F081E02DEF2BF1F4E32FF0E07F0178
:1048D000EE0CFF1CEE0DFF1DEE53F54F0190F08125
:1048E000E02D349781F4E02FE40FF0E07F01EE0C2F
:1048F000FF1CEE0DFF1DEE53F54F0190F081E02DF2
:10490000349709F475C0FB01EE0FFF1FE60FF71F88
:10491000EE53F54F608171816430710509F06FC00D
:10492000632F70E0FB01EE0FFF1FE60FF71FEE5342
:10493000F54F60817181672B09F061C0602F630FB3
:104940004AC06430710509F05AC0642F70E0FB0161
:10495000EE0FFF1FE60FF71FEE53F54F0190F081AA
:10496000E02DEF2BE9F4E32FF0E07F01EE0CFF1CCC
:10497000EE0DFF1DEE53F54F0190F081E02D3497C1
:1049800079F4ED2DE40FF0E07F01EE0CFF1CEE0D4D
:10499000FF1DEE53F54F0190F081E02D349741F16A
:1049A000FB01EE0FFF1FE60FF71FEE53F54F60817F
:1049B00071816430710519F5632F70E0FB01EE0F12
:1049C000FF1FE60FF71FEE53F54F60817181672BD4
:1049D000B1F469EF6C0D70E0FB01EE0FFF1FE60F05
:1049E000F71FEE53F54F608171816430710539F422
:1049F0008A0D9B1D8E53954FFC017182608211962A
:104A00004F5F3F5FA730B10509F0CECE252F583359
:104A100009F0BDCE0E941F1627E32A83BA8030EC2E
:104A2000B30E6AE274E089EE9CE00E94EA14E9E0C9
:104A3000EB0DF0E0CF01880F991FE80FF91FEE533F
:104A4000F54FE080F18032813983E32FF0E0EE0F03
:104A5000FF1FE255FD4F0081118169E374E089EE8B
:104A60009CE04CD8802F0E94F50F812F0E94F50FFB
:104A700068E474E089EE9CE041D889810E94D614F4
:104A8000013309F4C7C2073309F4C4C2113409F46D
:104A9000C1C2173409F4BEC2EF2809F0BBC251E10C
:104AA0005B0D503408F050E031E03B0D303408F03D
:104AB00030E08AE08B0D803411F0282E01C0212CCB
:104AC00088E08B0D803410F4E82E01C0E12C22E147
:104AD0002B0D203408F020E042E04B0D403408F06C
:104AE00040E080E18B0D803408F080E06FE36B15CF
:104AF00010F09B2D01C090E0C52ED12CDC8ECB8E0A
:104B0000F601EE0FFF1FEC0DFD1DEE53F54FC080BB
:104B1000D180DF82CE824280032F10E0F801EE0FB9
:104B2000FF1FE00FF11FEE53F54FC080D180D986F3
:104B3000C886D280DB82312CF101EE0FFF1FE20D1F
:104B4000F31DEE53F54FC080D180DB86CA86D2803C
:104B5000DC82F12CF701EE0FFF1FEE0DFF1DEE536F
:104B6000F54FC080D180DD86CC86D280DD8250E0DA
:104B7000BA01660F771F460F571FFA01EE53F54F24
:104B800040815181588B4F87528030E0A901440FFA
:104B9000551F240F351FF901EE53F54FC080D1800A
:104BA000DA8AC98AD280DB8A292F30E0A901440F32
:104BB000551F240F351FF901EE53F54F2081318128
:104BC0003D8B2C8B32813E8B90E09C01220F331F5A
:104BD000820F931FFC01EE53F54F40815181588F96
:104BE0004F8B5281598FC884D984CD2809F567E548
:104BF00074E089EE9CE00E947E1D2B81C22ED12C98
:104C0000C601880F991FAC0142555D4F6A01DA0158
:104C10008C910E94F50FF60181810E94F50F64E6E8
:104C200074E089EE9CE00E94EA14AA24A39401C0D7
:104C3000A12CCE80DF80CD28F1F46BE674E089EE04
:104C40009CE00E947E1DC42CD12CC601880F991FA8
:104C50009C0122553D4F6901D9018C910E94F50FAD
:104C6000F60181810E94F50F64E674E089EE9CE014
:104C70000E94EA14A394CA84DB84CD28F9F468E77F
:104C800074E089EE9CE00E947E1D2C81C22ED12C06
:104C9000C601880F991FAC0142555D4F6A01DA01C8
:104CA0008C910E94F50FF60181810E94F50F64E658
:104CB00074E089EE9CE00E94EA14A394CC84DD8425
:104CC000CD28F9F466E874E089EE9CE00E947E1D30
:104CD0002D81C22ED12CC601880F991FAC014255DF
:104CE0005D4F6A01DA018C910E94F50FF601818116
:104CF0000E94F50F64E674E089EE9CE00E94EA14DD
:104D0000A39464E974E089EE9CE00E947E1D8A2DE4
:104D10000E94D614CF84D888CD2801F56FEA74E0BC
:104D200089EE9CE00E947E1DC52CD12CC601880F07
:104D3000991F9C0122553D4F6901D9018C910E9418
:104D4000F50FF60181810E94F50F64E674E089EEAB
:104D50009CE00E94EA145524539401C0512CCF8842
:104D6000D88CCD28F9F462EC74E089EE9CE00E94C6
:104D70007E1D298DC22ED12CC601880F991FAC0132
:104D800042555D4F6A01DA018C910E94F50FF601E0
:104D900081810E94F50F64E674E089EE9CE00E9438
:104DA000EA145394C988DA88CD28F9F465ED74E0E3
:104DB00089EE9CE00E947E1D2B89C22ED12CC6015B
:104DC000880F991FAC0142555D4F6A01DA018C9141
:104DD0000E94F50FF60181810E94F50F64E674E0F0
:104DE00089EE9CE00E94EA145394CC88DD88CD289B
:104DF000F9F468EE74E089EE9CE00E947E1D2E8935
:104E0000C22ED12CC601880F991FAC0142555D4FAF
:104E10006A01DA018C910E94F50FF60181810E94EE
:104E2000F50F64E674E089EE9CE00E94EA14539466
:104E30006BEF74E089EE9CE00E947E1D852D0E9440
:104E4000D614F1E0AF12ECC029812C30B9F118F47E
:104E5000283049F0CAC03981343209F48BC0383265
:104E600009F45FC0C2C066E175E089EE9CE00E9473
:104E7000EA144A855B85452B99F4C701880F991F71
:104E80008E0D9F1DFC01EE53F54F7182608268E22A
:104E900075E089EE9CE00E947E1D5D81252FA0C0FB
:104EA000C884D984CD2809F0BBC08B8D9C8D880F18
:104EB000991FEB8CFC8C8E0D9F1D47C06FE375E036
:104EC00089EE9CE00E94EA14CA84DB84CD2891F428
:104ED000C701880F991F8E0D9F1DFC01EE53F54FE2
:104EE0007182608268E275E089EE9CE00E947E1D1E
:104EF000DD805BC0CE80DF80CD2809F091C0C80185
:104F0000880F991F800F911FFC01EE53F54F71829E
:104F1000608268E275E089EE9CE00E947E1DDB8085
:104F200044C061E575E089EE9CE00E94EA14CC84FF
:104F3000DD84CD2849F1CE80DF80CD2809F070C016
:104F4000C801880F991F800F911FFC01EE53F54F88
:104F50007182608268E275E089EE9CE00E947E1DAD
:104F6000512CC201880F991F8C0102551D4FD80189
:104F70008C915AC363E675E089EE9CE00E94EA14C6
:104F8000CC84DD84CD2899F4C101880F991F820D4E
:104F9000931DFC01EE53F54F7182608268E275E06B
:104FA00089EE9CE00E947E1DDC802D2D19C0C884F6
:104FB000D984CD28A9F58B8D9C8D880F991FEB8CFA
:104FC000FC8C8E0D9F1DFC01EE53F54F71826082AB
:104FD00068E275E089EE9CE00E947E1DFB802F2D2B
:104FE00030E0220F331F8901C0CF2B81C22ED12C7C
:104FF000C601880F991FAC0142555D4F6A01DA0165
:1050000011968C91813409F08FC2B1E0B51508F486
:105010008BC2B1C265E775E089EE9CE00E94EA149C
:1050200028E0D22EBD0CEA80BE10FBCCB394BA822D
:105030002B2D2F3309F0F2CC0E941F160E947616FA
:105040006FE875E089EE9CE00E94EA149EE2E92E8A
:1050500092E0F92EF401E158F44F80819181892B7F
:10506000D9F5F701E258FF4F0081319610816EE9C2
:1050700075E089EE9CE00E947E1D802F0E94F50F56
:10508000812F0E94C812073331F0013321F011340F
:1050900011F0173409F56FEA75E089EE9CE00E9483
:1050A0007E1D612F802F0E9485058E87482F50E03E
:1050B00060E070E02AE089EE9CE00E944C136EEA0A
:1050C00079E089EE9CE00E947E1D802F0E94F50F02
:1050D000812F0E94C8120CC043E0841A910852E04C
:1050E000E51AF10860E486166FEF960609F0B2CF74
:1050F000CE84EC2DF0E0EE0FFF1FE255FD4F108146
:1051000001816DEB75E089EE9CE00E947E1D812F90
:105110000E94F50F802F0E94C812E0912F0EF0E040
:10512000EE0FFF1FE255FD4F8081181320C0E09164
:105130002F0EF0E0EE0FFF1FE255FD4F81810817A3
:1051400009F447C060E070E080E491E40E94D91562
:105150000E9466050E94650F0E94400B0E94AE09E6
:1051600064E670E080E090E00E942009E0CFE091EA
:105170002F0EF0E0EE0FFF1FE255FD4F8181081367
:1051800064C060E070E080E490E40E94D91564E6B9
:1051900070E080E090E00E94200960E070E080E82C
:1051A0009FE30E94B61560E070E084EB92E40E94F9
:1051B000701560E070E080EC9FE30E94FC15E091C8
:1051C0002F0EF0E0EE0FFF1FE255FD4F8081181308
:1051D00014C080912F0E882309F43BC10E94B305AF
:1051E0006CED75E080E090E00E9420098CE49CE08A
:1051F0000E9444070E943C152CC160E070E080E4EE
:1052000091E40E94FC150E94B716E0912F0EF0E089
:10521000EE0FFF1FE255FD4F808181336CF0853327
:105220003CF088334CF40E94F31C0E94530D04C0E0
:105230000E941E0F0E949F0C0E94930E64E670E075
:1052400080E090E00E942009BACF013409F070C0DC
:10525000E0912F0EF0E0EE0FFF1FE255FD4F818130
:105260008134A9F060E070E080E491E40E94D915F7
:105270000E9466050E94650F0E94400B0E94AE09C5
:1052800064E670E080E090E00E942009E1CF60E0F9
:1052900070E080E490E40E94FC1564E670E080E039
:1052A00090E00E94200960E070E080E89FE30E94A7
:1052B000B61560E070E084EB92E40E94701560E047
:1052C00070E080EC9FE30E94D915E0912F0EF0E092
:1052D000EE0FFF1FE255FD4F8081181709F479CFBB
:1052E00060E070E080E491E40E94FC150E94B71633
:1052F000E0912F0EF0E0EE0FFF1FE255FD4F808191
:1053000081336CF085333CF088334CF40E94F31CFD
:105310000E94530D04C00E941E0F0E949F0C0E9409
:10532000080E64E670E080E090E00E942009CDCF96
:10533000173309F04ECF60E070E080E490E40E9403
:10534000D91564E670E080E090E00E94200960E0FA
:1053500070E080E89FE30E94B61560E070E084EBA7
:1053600092E40E94701560E070E080EC9FE30E9480
:10537000FC15E0912F0EF0E0EE0FFF1FE255FD4F00
:105380008081873341F160E070E080E491E40E9425
:10539000FC150E94B716E0912F0EF0E0EE0FFF1FF4
:1053A000E255FD4F808181336CF085333CF08833CA
:1053B0004CF40E94F31C0E94530D04C00E941E0F67
:1053C0000E949F0C0E94930E64E670E080E090E0E3
:1053D0000E942009CECF60E070E080E490E40E945B
:1053E000D91564E670E080E090E00E94200960E05A
:1053F00070E080E89FE30E94B61560E070E084EB07
:1054000092E40E944D1560E070E080EC9FE30E9402
:10541000FC15E0912F0EF0E0EE0FFF1FE255FD4F5F
:105420008181081709F4D5CE60E070E080E491E452
:105430000E94D9150E9466050E94650F0E94400BCC
:105440000E94AE0964E670E080E090E00E942009CE
:10545000E0CF81E08093320C0C9400220E9465071B
:105460000C94EF20823069F41092900080939100A8
:10547000109295001092940088BB809371000C9458
:10548000DE1F833071F41092A00082E08093A100AF
:105490001092A5001092A40089BB809372000C9416
:1054A000DE1F81110C94DE1F1092200182E0809398
:1054B000210110922501109224018ABB8093730070
:1054C0000C94DE1F80912F0EE0912F0EF0E09F01D3
:1054D000220F331FE20FF31FE156F44F11821082A7
:1054E000828364ED75E089EE9CE00E947E1DE09170
:1054F0002F0EF0E0EE0FFF1FE255FD4F80810E945E
:10550000F50FE0912F0EF0E0EE0FFF1FE255FD4F7B
:1055100081810E94C812E0C88A0D9B1D8E53954F51
:10552000FC01118210826BCA042D10E0000F111FC4
:1055300002551D4FD80111968C91873491F5E1E009
:10554000E51578F18B8D9C8D880F991FCB8CDC8CA9
:105550008C0D9D1DFC01EE53F54F1182108268E207
:1055600075E089EE9CE00E947E1DD8018C910E941E
:10557000F50F87E45DC0C801880F991F800F911F48
:10558000FC01EE53F54F1182108268E275E089EE5E
:105590009CE00E947E1DF60180810E94F50F81E44F
:1055A00047C0CC800C2D10E0000F111F02551D4F7D
:1055B000D8018C918133A9F4F1E0F51590F0C10187
:1055C000880F991F820D931DFC01EE53F54F118238
:1055D000108268E275E089EE9CE00E947E1D81E306
:1055E00023C0CD802C2D30E0220F331F89010255BE
:1055F0001D4FD8018C91873309F012CDCC24C39470
:10560000C51408F40DCDC701880F991F8E0D9F1D7D
:10561000FC01EE53F54F1182108268E275E089EECD
:105620009CE00E947E1D87E30E94F50FF8018181B6
:105630000E94F50F68E375E0EFCC10924F0C1092CA
:105640004E0C48EE53E060E070E04093500C5093F5
:10565000510C6093520C7093530C84E193E090933F
:105660004D0C80934C0C25ED30E03093590C209379
:10567000580C24ED30E030935B0C20935A0C20ED55
:1056800030E030935D0C20935C0C21ED30E03093E2
:105690005F0C20935E0C22ED30E03093610C209380
:1056A000600C26ED30E03093630C2093620C109276
:1056B000650C1092660C1092670C1092680C109298
:1056C000EC0C1092EB0C4093ED0C5093EE0C6093AD
:1056D000EF0C7093F00C9093EA0C8093E90C85EC3E
:1056E00090E09093F60C8093F50C84EC90E090930E
:1056F000F80C8093F70C20EC30E03093FA0C2093F8
:10570000F90C81EC90E09093FC0C8093FB0C82EC04
:1057100090E09093FE0C8093FD0C86EC90E09093CB
:10572000000D8093FF0C1092020D1092030D109249
:10573000040D1092050D1092870D10928D0D109290
:10574000940D1092950D1092960D1092970D81E088
:105750008093930D8093900D1092910D92E0909311
:10576000920D8093860D30938B0D20938A0D80ECE3
:1057700090E0E5D190938F0D80938E0D009761F0AE
:1057800020ECFC0111922A95E9F780E490E09093D7
:10579000890D8093880D08C010928B0D10928A0D90
:1057A0001092890D1092880D86E080938C0D809167
:1057B000870D882341F061E086E00E94BF0860E029
:1057C00086E00E949008E4E0F2E0E491F0E0EE0F61
:1057D000FF1FEC51FE4F859194919093990D80930A
:1057E000980DE4EAF1E0E491E0939A0D80912B0E9C
:1057F0008033A0F491E0980F90932B0E80932C0EA1
:1058000090E0FC01EE0FFF1F8E0F9F1FFC01E5567D
:10581000F24F88EB9BE09283818303C08FEF8093EC
:105820002C0E61E487E30E94850580932F0E109271
:10583000360E1092370E1092380E1092390E1092CA
:105840003A0E10923B0E10923C0E10923D0E1092AA
:105850003E0E10923F0E1092400E1092410E10928A
:10586000420E1092430E1092440E1092450E8FEF8E
:105870008093780E10927A0E1092790E1092840E08
:105880001092830E8FEF9FEFDC0180937F0E909339
:10589000800EA093810EB093820E089580918E0D9C
:1058A00090918F0D009709F0DFD180918C0D87FDCD
:1058B00003C060E00C94BF080895991B79E004C010
:1058C000991F961708F0961B881F7A95C9F780953F
:1058D0000895AA1BBB1B51E107C0AA1FBB1FA61737
:1058E000B70710F0A61BB70B881F991F5A95A9F789
:1058F00080959095BC01CD01089597FB072E16F475
:10590000009406D077FD08D0E4DF07FC05D03EF414
:10591000909581959F4F0895709561957F4F08955B
:10592000EE0FFF1F881F8BBF0790F691E02D199493
:10593000ADD3B7FF0895821B930B08955058BB2732
:10594000AA270ED00CC3FDD230F002D320F031F4E0
:105950009F3F11F41EF4F2C20EF4E095E7FBE8C29B
:10596000E92F0ED380F3BA176207730784079507F0
:1059700018F071F49EF526C30EF4E0950B2EBA2FA5
:10598000A02D0B01B90190010C01CA01A001112445
:10599000FF27591B99F0593F50F4503E68F11A16F1
:1059A000F040A22F232F342F4427585FF3CF469582
:1059B00037952795A795F0405395C9F77EF41F16A4
:1059C000BA0B620B730B840BBAF09150A1F0FF0F6E
:1059D000BB1F661F771F881FC2F70EC0BA0F621F5A
:1059E000731F841F48F4879577956795B795F7954A
:1059F0009E3F08F0B3CF9395880F08F09927EE0FDC
:105A00009795879508950CD0AAC2A2D240F099D25A
:105A100030F021F45F3F19F08BC25111D4C28EC215
:105A2000AFD298F39923C9F35523B1F3951B550BC6
:105A3000BB27AA2762177307840738F09F5F5F4F61
:105A4000220F331F441FAA1FA9F333D00E2E3AF0A2
:105A5000E0E830D091505040E695001CCAF729D0BC
:105A6000FE2F27D0660F771F881FBB1F261737070B
:105A70004807AB07B0E809F0BB0B802DBF01FF273B
:105A800093585F4F2AF09E3F510568F051C29BC268
:105A90005F3FECF3983EDCF3869577956795B79575
:105AA000F7959F5FC9F7880F911D9695879597F990
:105AB0000895E1E0660F771F881FBB1F6217730709
:105AC0008407BA0720F0621B730B840BBA0BEE1F1E
:105AD00088F7E09508955CD288F09F5790F0B92F31
