:100000001CC100004BC1000049C1000047C10000F5
:1000100045C1000043C1000041C100003FC10000D4
:100020003DC100003BC1000039C1000037C10000E4
:1000300035C1000033C1000031C100002FC10000F4
:100040002DC1000068C7000029C1000027C10000C1
:1000500025C1000023C1000021C100000C94140B35
:100060001DC100000C948B110C94611117C100008C
:1000700015C1000013C1000011C100000FC1000034
:100080001DC700000BC1000009C1000007C100002E
:1000900005C1000003C1000001C10000FFC0000055
:1000A000FDC00000FBC00000DCC60000F7C000007F
:1000B000F5C00000F3C00000F1C00000A5C60000BC
:1000C000EDC00000EBC00000E9C000000C94371147
:1000D0000C940D11E3C00000E1C00000DFC000007F
:1000E000DDC00000D508D808C708CB08D1080F0923
:1000F000DC08E008E608EA08EE08F408F808FC085E
:100100000F09020906090A09F810EA10EA10F810A6
:10011000EE10EE10F81000002100240027002A0045
:100120002D003000330001010000040107010A0125
:1001300000000A0B02090C0D0E0807030401000061
:1001400000000000000000000000000000000000AF
:10015000000000000000000000000000121110006C
:10016000000000000000000000000000000000008F
:1001700000000000000000002000230026002900ED
:100180002C002F00320000010000030106010901CC
:100190000102102020080810204010204080020199
:1001A000020108040201010204081020408080407E
:1001B000201008040201800402018040201008047D
:1001C000020108040201010204081020408001021B
:1001D00004081020408000002200250028002B0089
:1001E0002E003100340002010000050108010B015E
:1001F00005050505070508080808020202020A0AA3
:1002000008080404040401010101010101010303C0
:10021000030303030303040707070C0C0C0C0C0C6B
:100220000C0C0202020206060606060606060B0B68
:100230000B0B0B0B0B0BFB20A31B11241FBECFEFD3
:10024000D1E2DEBFCDBF00E00CBF17E0A0E0B2E01E
:10025000E6E6FCE400E00BBF02C007900D92AE3C66
:10026000B107D9F72AE0AEECB7E001C01D92A03F7C
:10027000B207E1F711E0CCE1D1E000E006C0219740
:100280000109802FFE010E945D22CB31D10780E061
:100290000807A9F70E94B31B0C942226B1CEEF9257
:1002A000FF920F931F93CF93DF93EC019091D307AD
:1002B0009F5F292F27702093D30790FF02C090E8FB
:1002C00001C090E021FD9064247009F0906220E16B
:1002D000290FFE013C967E018FE0E80EF11C00E044
:1002E00011E06191662331F070E0C8010E944A225A
:1002F0006F5F01C060E0DF0114976C93322F369F6F
:10030000030E30E0311D1124CF010797311103C0D6
:10031000EC01188203C03150EC013883662311F0E0
:1003200061506C93EE15FF05E1F6DF91CF911F91BF
:100330000F91FF90EF90089580E991E00895219A40
:1003400008950F931F93CF93DF93CDB7DEB76297D6
:100350000FB6F894DEBF0FBECDBF8C01F901DC01F2
:100360001C968C917A8369835C834B835E834D8377
:1003700090819D8791819E8792819F87813021F412
:10038000CE0101968CDF06C01C861B861A86198654
:1003900018861F8283E0888B1A8A198AD801ED910A
:1003A000FC910484F585E02DBE016F5F7F4FC8018D
:1003B000199562960FB6F894DEBF0FBECDBFDF91E0
:1003C000CF911F910F9108950F931F93CF93DF93B8
:1003D000CDB7DEB762970FB6F894DEBF0FBECDBFC4
:1003E0008C01F901DC011C968C917A8369835C8312
:1003F0004B835E834D8390819D8791819E879281FF
:100400009F87813021F4CE01019649DF06C01C860A
:100410001B861A86198618861F82188A1A8A198AD4
:10042000D801ED91FC910484F585E02DBE016F5F4C
:100430007F4FC801199562960FB6F894DEBF0FBEC4
:10044000CDBFDF91CF911F910F910895CF93DF938F
:1004500000D000D0CDB7DEB7AB011C821D821E825A
:10046000DC01ED91FC910190F081E02D19821A825E
:100470001B829E012F5F3F4FBE016C5F7F4F19951E
:1004800026960FB6F894DEBF0FBECDBFDF91CF9199
:100490000895FC0185859685089580E090E0089593
:1004A0008F929F92AF92BF92CF92DF92EF92FF9284
:1004B0000F931F93CF93DF934B015C01C12CD12C81
:1004C0007601C3E2D0E007EC11E0C701B6010E945B
:1004D000A124A50194010E949D2487FF12C061E020
:1004E00082E09ED6CE010197F1F760E082E098D6D7
:1004F000C8010197F1F78FEFC81AD80AE80AF80A7D
:10050000E4CFDF91CF911F910F91FF90EF90DF909B
:10051000CF90BF90AF909F908F900895CF92DF9231
:10052000EF92FF920F931F93CF93DF936C018B0198
:100530007A01EC01C253D84F888187FF04C0FB01C8
:100540001182108224C08CE08C9D90018D9D300D15
:1005500011248881A901480F511D87FD5A9580916A
:10056000880A90E04817590794F48881A901480F38
:10057000511D87FD5A95CA01FA01EE0FFF1F8E0F1C
:100580009F1FFC01E850F64F808186FD19C08881CD
:100590008F5F88838CE08C9D90018D9D300D1124A0
:1005A0008881A901480F511D87FD5A958091880ABD
:1005B00090E048175907B4F488818C303CF112C0A0
:1005C0008881280F311D87FD3A95F901EE0FFF1F35
:1005D0002E0F3F1FF901E850F64F808160E08F73C6
:1005E0001FD6D5CFF80180819181049680349C4933
:1005F00018F480E49CE904C0F8018081918104969C
:10060000F701918380838FEF888344C0F801408194
:1006100051818881B901680F711D87FD7A95CB01E1
:10062000FB01EE0FFF1F8E0F9F1FFC01E850F64FDE
:1006300081819281840F951FF70191838083888146
:10064000A901480F511D87FD5A95CA01FA01EE0F05
:10065000FF1F8E0F9F1FFC01E850F64F808186FF21
:1006600019C08881280F311D87FD3A95F901EE0FD9
:10067000FF1F2E0F3F1FF901E850F64F808161E008
:100680008F73DF91CF911F910F91FF90EF90DF90CB
:10069000CF90C6C5DF91CF911F910F91FF90EF9042
:1006A000DF90CF9008954F925F926F927F928F92DA
:1006B000AF92BF92CF92EF92FF920F931F93CF937F
:1006C000DF933C01EB0117D6F30127853089621BCC
:1006D000730B6A307105B8F3F894E881F98155B16C
:1006E000526085B18D7F85B96A859F81262F291B30
:1006F000922F2F83BF844A805B807D85FC84EE84AB
:100700007F5FF394E3943E814885A984CB84118173
:10071000D20120E0C32F022F322F3181112788947C
:100720003111390F08F43FEF9195889470FD130F44
:100730001795889471FD130F1795889472FD130F08
:100740001795889473FD130F1795889474FD130FF4
:100750001795889475FD130F1795889476FD130FE0
:100760001795889477FD130F17958894232F71118F
:10077000212F960F122F002C55B900C017FF85B9F5
:1007800030812227889400C000C0002C85B9311127
:100790003C0F00C0002C55B900C016FF85B908F405
:1007A0003FEFC195889400C000C0002C85B9F0FCD3
:1007B000230F00C0002C55B900C015FF85B927953F
:1007C0008894F1FC230F00C000C0002C85B9279548
:1007D000889400C0002C55B900C014FF85B9F2FC04
:1007E000230F2795889400C000C0002C85B9F3FC26
:1007F000230F00C0002C55B900C013FF85B9279501
:100800008894F4FC230F00C000C0002C85B9279504
:10081000889400C0002C55B900C012FF85B9F5FCC2
:10082000230F2795889400C000C0002C85B9F6FCE2
:10083000230F00C0002C55B900C011FF85B92795C2
:100840008894F7FC230F00C000C0002C85B92795C1
:10085000889400C0002C55B900C010FF85B9132F33
:10086000F110122FCA0D00C000C0002C85B900C0C5
:1008700000C0002C55B900C017FF85B9328122276E
:10088000889400C000C0002C85B93111340F00C01D
:10089000002C55B900C016FF85B908F43FEFEB0DE9
:1008A000F11D00C000C0002C85B9E0FC230F00C082
:1008B000002C55B900C015FF85B927958894E1FC37
:1008C000230F00C000C0002C85B92795889400C074
:1008D000002C55B900C014FF85B9E2FC230F279501
:1008E000889400C000C0002C85B9E3FC230F00C031
:1008F000002C55B900C013FF85B927958894E4FCF6
:10090000230F00C000C0002C85B92795889400C033
:10091000002C55B900C012FF85B9E5FC230F2795BF
:10092000889400C000C0002C85B9E6FC230F00C0ED
:10093000002C55B900C011FF85B927958894E7FCB4
:10094000230F00C000C0002C85B92795889400C0F3
:10095000002C55B900C010FF85B9132FE110122FDC
:10096000419500C000C0002C85B94C0D00C000C0EE
:1009700055B900C017FF85B931812227889400C07E
:1009800000C0002C85B93111390F00C0002C55B9B9
:1009900000C016FF85B908F43FEF9195889400C018
:1009A00000C0002C85B970FD230F00C0002C55B984
:1009B00000C015FF85B92795889471FD230F00C0ED
:1009C00000C0002C85B92795889400C0002C55B92B
:1009D00000C014FF85B972FD230F2795889400C0CD
:1009E00000C0002C85B973FD230F00C0002C55B941
:1009F00000C013FF85B92795889474FD230F00C0AC
:100A000000C0002C85B92795889400C0002C55B9EA
:100A100000C012FF85B975FD230F2795889400C08B
:100A200000C0002C85B976FD230F00C0002C55B9FD
:100A300000C011FF85B92795889477FD230F00C06A
:100A400000C0002C85B92795889400C0002C55B9AA
:100A500000C010FF85B9132F7111122F960F00C01F
:100A600000C0002C85B9119709F086CE20EE31E048
:100A7000D2010E946522DC01CB01F4E0B695A79576
:100A800097958795FA95D1F720E030E0A9016AE9BA
:100A9000469E412D569E400D511D1124840F951FD9
:100AA000A11DB11D893E43E09407A105B10588F160
:100AB000885E9340A109B10942E0B695A795979544
:100AC00087954A95D1F747E0849F212D949F200D6B
:100AD000311D11246091D20770E0860F971F820F9D
:100AE000931F4091D4075091D5076091D60770911C
:100AF000D707292F3327420F531F611D711D4093C4
:100B0000D4075093D5076093D6077093D707809387
:100B1000D2077894F0D3F301708B6787DF91CF9180
:100B20001F910F91FF90EF90CF90BF90AF908F905B
:100B30007F906F905F904F90089560EA72E086E436
:100B400099E00E944B1B61E08CE26AD38BE891E054
:100B50000197F1F760E08CE263C3CF92DF92EF92EE
:100B6000FF926B017C0160E088E05AD360E089E08D
:100B700057D360E08AE054D360E08BE051D320E0AB
:100B800030E042ED52E4C701B6010E940225FF9019
:100B9000EF90DF90CF9084CCCF92DF92EF92FF92D4
:100BA0006B017C0161E088E03BD361E089E038D3F0
:100BB00061E08AE035D361E08BE032D320E030E0C1
:100BC00042ED52E4C701B6010E940225FF90EF906A
:100BD000DF90CF9065CCCF92DF92EF92FF926B01C6
:100BE0007C0160E088E01CD360E089E019D361E01B
:100BF0008AE016D361E08BE013D326E636E141E8C4
:100C000054E4C701B6010E940225FF90EF90DF90E7
:100C1000CF9046CCCF92DF92EF92FF926B017C0196
:100C200061E088E0FDD261E089E0FAD260E08AE02C
:100C3000F7D260E08BE0F4D226E636E141E854E4F6
:100C4000C701B6010E940225FF90EF90DF90CF9080
:100C500027CCCF92DF92EF92FF926B017C0160E094
:100C600088E0DED261E089E0DBD260E08AE0D8D2C1
:100C700061E08BE0D5D22BE537E348E554E4C701CA
:100C8000B6010E940225FF90EF90DF90CF9008CC34
:100C9000CF92DF92EF92FF926B017C0161E088E0DE
:100CA000BFD260E089E0BCD261E08AE0B9D260E006
:100CB0008BE0B6D22BE537E348E554E4C701B60133
:100CC0000E940225FF90EF90DF90CF90E9CBE0915A
:100CD0008C0AF0E0EE0FFF1FE25DFD4F8081833351
:100CE00061F02CF4813349F08233A9F518C08533C3
:100CF00021F0ACF0863379F512C0E0918C0A809136
:100D00008C0A90E0F0E0EE0FFF1FE25DFD4F2181C5
:100D1000220F330B21583109821B930B19C0E0912C
:100D20008C0A80918C0A282F30E0F0E0EE0FFF1F34
:100D3000E25DFD4F418188E490E0841B910947FD0D
:100D40009395880F991F0197A901481B590BCA0158
:100D500080938C0A06C06BEA72E086E499E00E94F8
:100D60004B1B66ED72E086E499E00E945D1BE0910A
:100D70008C0AF0E0EE0FFF1FE25DFD4F80810E94C4
:100D8000DC11E0918C0AF0E0EE0FFF1FE25DFD4FF9
:100D900081810C94D51380918C0A815080938C0AA8
:100DA00066ED72E086E499E00E945D1BE0918C0A9A
:100DB000F0E0EE0FFF1FE25DFD4F80810E94DC112D
:100DC000E0918C0AF0E0EE0FFF1FE25DFD4F8181A4
:100DD0000C94D513CF93DF93C0E0D0E0FE01ED512A
:100DE000F84F1082118212828091D50A0E94261239
:100DF00062E370E080E090E0A3D22396CC30D1058E
:100E000069F7DF91CF9108951F920F920FB60F925D
:100E100011240BB60F922F933F934F935F936F93D1
:100E20007F938F939F93AF93BF93EF93FF9348E28A
:100E300051E064E271E080E090E070DBFF91EF91BF
:100E4000BF91AF919F918F917F916F915F914F91E2
:100E50003F912F910F900BBE0F900FBE0F901F90E0
:100E600018951F920F920FB60F9211240BB60F9286
:100E70002F933F934F935F936F937F938F939F93A2
:100E8000AF93BF93EF93FF9348EA50E064EA70E0BA
:100E900083E090E043DBFF91EF91BF91AF919F9191
:100EA0008F917F916F915F914F913F912F910F9013
:100EB0000BBE0F900FBE0F901F9018951F920F92B0
:100EC0000FB60F9211240BB60F922F933F934F93AF
:100ED0005F936F937F938F939F93AF93BF93EF93A2
:100EE000FF9348E950E064E970E082E090E016DBAF
:100EF000FF91EF91BF91AF919F918F917F916F91F2
:100F00005F914F913F912F910F900BBE0F900FBEAD
:100F10000F901F9018951F920F920FB60F921124E9
:100F20000BB60F922F933F934F935F936F937F93E3
:100F30008F939F93AF93BF93EF93FF9348E850E055
:100F400064E870E081E090E0E9DAFF91EF91BF9111
:100F5000AF919F918F917F916F915F914F913F9151
:100F60002F910F900BBE0F900FBE0F901F901895F2
:100F7000FC01918D828D981761F0828DDF01A80FA1
:100F8000B11D5D968C91928D9F5F9F73928F90E0C3
:100F900008958FEF9FEF0895FC01918D828D981732
:100FA00031F0828DE80FF11D858D90E008958FEF6F
:100FB0009FEF0895FC01918D228D892F90E0805C38
:100FC0009F4F821B91098F739927089580E090E0CD
:100FD000892B21F00E94031181111DC080E090E057
:100FE000892B41F080E090E0892B21F00E940000E5
:100FF000811114C00E94F910811113C080E090E0AB
:10100000892BA1F080E090E0892B81F00E94000004
:1010100081110AC008950E940000E0CF0E940000E4
:10102000E9CF0E947715EACF0C94000008950E9442
:101030009924FC01A089B1898C91A689B78982FD88
:101040000FC09C91818D8F5F8F73228D821749F025
:10105000218DDF01A20FB11D5D969C93818F0895B4
:101060008C910895FC01848DDF01A80FB11DA35A56
:10107000BF4F2C91848D90E001968F739927848FB8
:10108000A689B7892C93A089B1898C9180648C93AF
:10109000938D848D981306C00288F389E02D80819A
:1010A0008F7D80830895EF92FF920F931F93CF93CC
:1010B000DF93EC0181E0888F9B8D8C8D981305C0A8
:1010C000E889F989808185FD23C0F62E0B8D10E01B
:1010D0000F5F1F4F0F731127E02E8C8DE8120BC08E
:1010E0000FB607FCFACFE889F989808185FFF5CF33
:1010F000CE01B8DFF2CF8B8DFE01E80FF11DE35A70
:10110000FF4FF0820B8FEA89FB898081806207C0E4
:10111000EE89FF896083E889F98980818064808312
:1011200081E090E0DF91CF911F910F91FF90EF90C0
:101130000895CF93DF93EC01888D8823C1F0EA896D
:10114000FB89808185FD05C0A889B9898C9186FDC0
:101150000EC00FB607FCF5CF808185FFF2CFA889BE
:10116000B9898C9185FFEDCFCE017CDFE8CFDF918F
:10117000CF91089590E0FC013197E231F10508F03C
:101180004EC08827EE58FF4F8F4F0C945D22809100
:1011900080008F7703C0809180008F7D80938000D6
:1011A000089580918000877FF9CF84B58F7702C042
:1011B00084B58F7D84BD08958091B0008F7703C082
:1011C0008091B0008F7D8093B00008958091900051
:1011D0008F7707C0809190008F7D03C08091900031
:1011E000877F8093900008958091A0008F7707C03B
:1011F0008091A0008F7D03C08091A000877F8093A5
:10120000A0000895809120018F7707C08091200170
:101210008F7D03C080912001877F809320010895F6
:101220001F93CF93DF93282F30E0F901E05DFE4F4D
:101230008491F901E057FE4FD491F901E051FE4F3E
:10124000C491CC23C1F0162F811194DFEC2FF0E074
:10125000EE0FFF1FEA52FE4FA591B4918FB7F8949D
:10126000111105C09C91ED2FE095E92302C0EC918E
:10127000ED2BEC938FBFDF91CF911F910895CF930A
:10128000DF9390E0FC01E057FE4F2491FC01E05118
:10129000FE4F8491882361F190E0880F991FFC0133
:1012A000EA5EFE4FC591D491FC01EA52FE4FA59132
:1012B000B491611109C09FB7F89488812095822369
:1012C0008883EC912E230BC0623061F49FB7F894B1
:1012D0003881822F809583238883EC912E2B2C9349
:1012E0009FBF06C08FB7F894E8812E2B28838FBF4D
:1012F000DF91CF9108953FB7F8948091D9079091ED
:10130000DA07A091DB07B091DC0726B5A89B05C0E2
:101310002F3F19F00196A11DB11D3FBFBA2FA92F74
:10132000982F8827820F911DA11DB11DBC01CD01F1
:1013300042E0660F771F881F991F4A95D1F70895DD
:101340008F929F92AF92BF92CF92DF92EF92FF92D5
:101350006B017C01D0DF4B015C01C114D104E104BD
:10136000F104E9F0C8DFDC01CB0188199909AA0969
:10137000BB09883E9340A105B10578F321E0C21A6C
:10138000D108E108F10888EE880E83E0981EA11CC0
:10139000B11CC114D104E104F10421F7DECFFF90A8
:1013A000EF90DF90CF90BF90AF909F908F90089577
:1013B000AF92BF92CF92DF92EF92FF920F931F9363
:1013C000CF93DF9300D01F92CDB7DEB78AE0A82E6F
:1013D000B12CC12CD12C76010FE010E061E086E148
:1013E0001FDFC8010197F1F760E086E119DF8FE2A6
:1013F0000E94AE140E94A1249B01AC01C701B6015A
:101400000E946C226B017C016AE070E080E090E059
:1014100097DF81E0A81AB10809F720E030E040E248
:1014200051E4C701B6010E94D02220E030E040E044
:101430005FE30E94022520E030E048EE51E40E9484
:10144000D0222EE53AEB49EC5EE30E94022520E033
:1014500030E040EC5FE30E946B226B017C0166EEA2
:1014600072E086E499E00E945D1BC701B6010E940C
:10147000E3136AE070E080E090E062DF0E9486198A
:101480009B01AC016AE070E080E090E029833A8340
:101490004B835C8355DF29813A814B815C81C70195
:1014A000B6010E946B226B017C0168EF72E086E45A
:1014B00099E00E945D1BC701B6010E94E313C701BA
:1014C000B6010F900F900F900F90DF91CF911F9169
:1014D0000F91FF90EF90DF90CF90BF90AF90089565
:1014E000AF92BF92CF92DF92EF92FF920F931F9332
:1014F000CF93DF9300D01F92CDB7DEB78AE0A82E3E
:10150000B12CC12CD12C76010FE010E061E08FE10D
:1015100087DEC8010197F1F760E08FE181DE8AE1A3
:101520000E94AE140E94A1249B01AC01C701B60128
:101530000E946C226B017C016AE070E080E090E028
:10154000FFDE81E0A81AB10809F720E030E040E2B0
:1015500051E4C701B6010E94D02220E030E040E013
:101560005FE30E94022520E030E048EE51E40E9453
:10157000D0222EE53AEB49EC5EE30E9402252FE1F2
:1015800035E84BEC5FE30E946B226B017C0164E168
:1015900073E086E499E00E945D1BC701B6010E94DA
:1015A000E3136AE070E080E090E0CADE0E94E9198F
:1015B0009B01AC016AE070E080E090E029833A830F
:1015C0004B835C83BDDE29813A814B815C81C701FD
:1015D000B6010E946B226B017C0167E273E086E436
:1015E00099E00E945D1BC701B6010E94E313C70189
:1015F000B6010F900F900F900F90DF91CF911F9138
:101600000F91FF90EF90DF90CF90BF90AF90089533
:101610002FB7F8946091D4077091D5078091D607C1
:101620009091D7072FBF08951F920F920FB60F9278
:1016300011242F933F938F939F93AF93BF938091E8
:10164000D4079091D507A091D607B091D7073091D4
:10165000D80723E0230F2D3720F40196A11DB11DDB
:1016600005C026E8230F0296A11DB11D2093D807BF
:101670008093D4079093D507A093D607B093D7074C
:101680008091D9079091DA07A091DB07B091DC0730
:101690000196A11DB11D8093D9079093DA07A093FD
:1016A000DB07B093DC07BF91AF919F918F913F9182
:1016B0002F910F900FBE0F901F9018958F929F92B1
:1016C000AF92BF92CF92DF92EF92FF920F931F9350
:1016D000CF93DF9364E473E086E499E00E944B1BB0
:1016E00080918C0A803308F064C1E0918C0AF0E0AC
:1016F000EE0FFF1FE25DFD4F8181843409F459C173
:101700000CF044C081340CF442C16FE573E086E410
:1017100099E00E944B1BE0918C0AF0E0EE0FFF1F56
:10172000E25DFD4F8181082E000C990B81549109D7
:101730002CE0289FB001299F700D1124072E000C6A
:10174000880B990B0E94A3244B015C010E9486190F
:10175000A50194010E946B226B017C016EE673E08F
:1017600086E499E00E945D1BC501B4010E94E31369
:1017700069E873E086E499E00E945D1BC701B60149
:101780000E94E313C0E0D0E001E079C088340CF09F
:10179000FEC060EC73E086E499E00E944B1BE09190
:1017A0008C0AF0E0EE0FFF1FE25DFD4F218187E420
:1017B00090E0821B910927FD93952CE0289FB001B2
:1017C000299F700D1124072E000C880B990B0E9485
:1017D000A3244B015C010E94E919A50194010E9418
:1017E0006B226B017C0160ED73E086E499E00E945E
:1017F0005D1BC501B401E7D76CEE73E086E499E0A8
:101800000E945D1BC701B601DED7C0E0D0E001E059
:1018100095C02DEC3CEC4CE45FE3C701B6010E949F
:10182000642318160CF03FC06AE979E989E99EE360
:1018300010DA11E06BE470E080E090E081DD0E945E
:101840008619A50194010E946B226B017C016EE652
:1018500073E086E499E00E945D1BC501B401B3D733
:1018600069E873E086E499E00E945D1BC701B60158
:10187000AAD710132196C530D105ACF4012F20E072
:1018800030E0A901C701B6010E94642318160CF4C8
:10189000C0CF2DEC3CEC4CE45FEBC701B6010E94DD
:1018A0009D2487FD03C065EA73E073C020E030E04B
:1018B000A901C701B6010E949D2487FF07C06AE9FC
:1018C00079E989E99EE3E4D910E0B4CF102FB2CFD3
:1018D0002DEC3CEC4CE45FE3C701B6010E946423AD
:1018E00018160CF03FC06AE979E989E99EE3D0D97E
:1018F00011E06BE470E080E090E022DD0E94E919E5
:10190000A50194010E946B226B017C0160ED73E0E4
:1019100086E499E00E945D1BC501B40154D76CEECA
:1019200073E086E499E00E945D1BC701B6014BD7C6
:1019300010132196C530D105ACF4012F20E030E022
:10194000A901C701B6010E94642318160CF4C0CF88
:101950002DEC3CEC4CE45FEBC701B6010E949D24EA
:1019600087FD03C069E074E014C020E030E0A90105
:10197000C701B6010E949D2487FF07C06AE979E983
:1019800089E99EE366D910E0B4CF102FB2CF63E2AD
:1019900074E086E499E0DF91CF911F910F91FF9061
:1019A000EF90DF90CF90BF90AF909F908F900C946E
:1019B0004B1BDF91CF911F910F91FF90EF90DF9024
:1019C000CF90BF90AF909F908F9008958F929F92ED
:1019D000AF92BF92CF92DF92EF92FF920F931F933D
:1019E000CF93DF936DE574E086E499E00E944B1B92
:1019F00080918C0A803308F033C1E0918C0AF0E0CA
:101A0000EE0FFF1FE25DFD4F808181330CF416C1A4
:101A100084330CF479C088330CF010C163E774E0B0
:101A200086E499E00E944B1BE0918C0AF0E0EE0FF7
:101A3000FF1FE25DFD4F208187E390E0821B91094B
:101A400027FD93952CE0289FB001299F700D11244C
:101A5000072E000C880B990B0E94A3244B015C01FC
:101A60000E942319A50194010E946B226B017C0145
:101A700063E874E086E499E00E945D1BC501B4014F
:101A8000A2D66FE974E086E499E00E945D1BC7016D
:101A9000B60199D620E030E0A901C701B6010E9445
:101AA0006423181684F42DEC3CEC4CEC5EE3C70187
:101AB000B6010E946423181624F56AE979E989E9D8
:101AC0009EE3A8D818C02DEC3CEC4CEC5EEBC701B3
:101AD000B6010E949D2487FF14C020E030E0A901D8
:101AE000C701B6010E949D2487FF05C06AE979E914
:101AF00089E99EE370D86BE470E080E090E020DC40
:101B0000AFCF6CEB74E09CC06EEC74E086E499E0BF
:101B10000E944B1BE0918C0AF0E0EE0FFF1FE25D8C
:101B2000FD4F8081082E000C990BC1972CE0289F57
:101B3000B001299F700D1124072E000C880B990B02
:101B40000E94A3244B015C016FD7A50194010E9460
:101B50006B226B017C016DED74E086E499E00E94DC
:101B60005D1BC501B4012FD668EF74E086E499E0EF
:101B70000E945D1BC701B60126D6C0E0D0E001E09F
:101B800020E030E0A901C701B6010E9464231816C5
:101B900094F42DEC3CEC4CEC5EE3C701B6010E94E2
:101BA000642318160CF043C06AE979E989E99EE3D9
:101BB00012D811E019C02DEC3CEC4CEC5EEBC701E7
:101BC000B6010E949D2487FF32C020E030E0A901C9
:101BD000C701B6010E949D2487FF2EC06AE979E9FA
:101BE00089E99EE317D810E06BE470E080E090E0B4
:101BF000A7DB1AD7A50194010E946B226B017C011F
:101C00006DED74E086E499E00E945D1BC501B401AE
:101C1000DAD568EF74E086E499E00E945D1BC701A5
:101C2000B601D1D510132196C530D1051CF064E161
:101C300075E006C0012FA4CF102FD6CF67E275E064
:101C400086E499E0DF91CF911F910F91FF90EF9083
:101C5000DF90CF90BF90AF909F908F900C944B1BD4
:101C6000DF91CF911F910F91FF90EF90DF90CF9078
:101C7000BF90AF909F908F9008958F929F92AF9258
:101C8000BF92CF92DF92EF92FF920F931F93CF9369
:101C9000DF936FE573E086E499E00E944B1BE091CF
:101CA0008C0AF0E0EE0FFF1FE25DFD4F8081082EF1
:101CB000000C990BC1972CE0289FB001299F700D53
:101CC0001124072E000C880B990B0E94A3244B01B2
:101CD0005C010E948619A50194010E946B226B0190
:101CE0007C016EE673E086E499E00E945D1BC5010D
:101CF000B40169D569E873E086E499E00E945D1B50
:101D0000C701B60160D5C0E0D0E001E020E030E0DE
:101D1000A901C701B6010E94642318169CF42DEC9A
:101D20003CEC4CE45FE3C701B6010E946423181643
:101D30000CF04AC06AE979E989E99EE30E94290624
:101D400011E01AC02DEC3CEC4CE45FEBC701B6018E
:101D50000E949D2487FF38C020E030E0A901C70120
:101D6000B6010E949D2487FF2DC06AE979E989E9BF
:101D70009EE30E94480610E06BE470E080E090E093
:101D8000DFDA0E948619A50194010E946B226B0183
:101D90007C016EE673E086E499E00E945D1BC5015C
:101DA000B40111D569E873E086E499E00E945D1BF7
:101DB000C701B60108D510132196C530D10524F40A
:101DC000012FA4CF102FD8CFDF91CF911F910F916A
:101DD000FF90EF90DF90CF90BF90AF909F908F904B
:101DE00008958F929F92AF92BF92CF92DF92EF921F
:101DF000FF920F931F93CF93DF9360EC73E086E421
:101E000099E00E944B1BE0918C0AF0E0EE0FFF1F5F
:101E1000E25DFD4F208187E390E0821B910927FD61
:101E200093952CE0289FB001299F700D1124072E57
:101E3000000C880B990B0E94A3244B015C010E94AB
:101E4000E919A50194010E946B226B017C0160EDF0
:101E500073E086E499E00E945D1BC501B401B3D430
:101E60006CEE73E086E499E00E945D1BC701B60149
:101E7000AAD4C0E0D0E001E020E030E0A901C70131
:101E8000B6010E94642318169CF42DEC3CEC4CE443
:101E90005FE3C701B6010E94642318160CF04AC024
:101EA0006AE979E989E99EE30E94480611E01AC0CF
:101EB0002DEC3CEC4CE45FEBC701B6010E949D2485
:101EC00087FF38C020E030E0A901C701B6010E94B9
:101ED0009D2487FF2DC06AE979E989E99EE30E9484
:101EE000290610E06BE470E080E090E029DA0E94BF
:101EF000E919A50194010E946B226B017C0160ED40
:101F000073E086E499E00E945D1BC501B4015BD4D7
:101F10006CEE73E086E499E00E945D1BC701B60198
:101F200052D410132196C530D10524F4012FA4CF2B
:101F3000102FD8CFDF91CF911F910F91FF90EF908D
:101F4000DF90CF90BF90AF909F908F900895CF92E9
:101F5000DF92EF92FF920F931F93CF93DF9362E58F
:101F600075E086E499E00E944B1B0E9423196B01E7
:101F70007C0163E874E086E499E00E945D1B60E008
:101F800070E0CB0120D46FE974E086E499E00E9410
:101F90005D1BC701B60117D400E010E0D1E020E0DE
:101FA00030E0A901C701B6010E94642318169CF411
:101FB0002DEC3CEC4CEC5EE3C701B6010E946423BF
:101FC00018160CF049C06AE979E989E99EE30E9494
:101FD0000A06C1E01AC02DEC3CEC4CEC5EEBC701EC
:101FE000B6010E949D2487FF37C020E030E0A901A0
:101FF000C701B6010E949D2487FF2CC06AE979E9D8
:1020000089E99EE30E94EB05C0E06BE470E080E0AC
:1020100090E096D90E9423196B017C0163E874E07B
:1020200086E499E00E945D1B60E070E0CB01CBD3B9
:102030006FE974E086E499E00E945D1BC701B60178
:10204000C2D3CD1711F00F5F1F4F0530110524F4D7
:10205000DC2FA5CFCD2FD9CFDF91CF911F910F913D
:10206000FF90EF90DF90CF900895CF92DF92EF92A4
:10207000FF9265E675E086E499E00E944B1B98D9D3
:102080006B017C0120E030E0A9010E946423181656
:102090008CF42DEC3CEC4CE45EE3C701B6010E94ED
:1020A0006423181634F560E070E080E89FE30E9436
:1020B000AD0519C02DEC3CEC4CE45EEBC701B6015C
:1020C0000E949D2487FF15C020E030E0A901C701D0
:1020D000B6010E949D2487FF06C060E070E080E8A2
:1020E0009FE30E94CC056BE470E080E090E028D98B
:1020F000C6CFFF90EF90DF90CF900895CF92DF9200
:10210000EF92FF9269E775E086E499E00E944B1B2D
:10211000E7D96B017C0120E030E0A9010E94642333
:1021200018168CF42DEC3CEC4CE45EE3C701B601D0
:102130000E946423181634F560E070E080E89FE3A5
:102140000E94CC0519C02DEC3CEC4CE45EEBC701C1
:10215000B6010E949D2487FF15C020E030E0A90150
:10216000C701B6010E949D2487FF06C060E070E0B1
:1021700080E89FE30E94AD056BE470E080E090E0B2
:10218000DFD8C6CFFF90EF90DF90CF9008956DE835
:1021900075E086E499E00E944B1B80918C0A8033A5
:1021A00038F5E0918C0AF0E0EE0FFF1FE25DFD4F85
:1021B000E1818E2FEE0F990BAA0BBB0BFC01E154B2
:1021C000F109E730F10570F48827EC57FF4F8F4F86
:1021D0000C945D224ADF62EA75E006C08FDF6AEB8D
:1021E00075E002C061ED75E086E499E00C944B1B4C
:1021F000089589EA98E00E94DA0721E0892B09F422
:1022000020E0822F089586E499E00E94DA0721E019
:10221000892B09F420E0822F08951F920F920FB6A8
:102220000F9211240BB60F922F933F934F935F930E
:102230006F937F938F939F93AF93BF93EF93FF938E
:1022400089EA98E00E943208FF91EF91BF91AF9127
:102250009F918F917F916F915F914F913F912F91BE
:102260000F900BBE0F900FBE0F901F9018951F92EE
:102270000F920FB60F9211240BB60F922F933F932C
:102280004F935F936F937F938F939F93AF93BF937E
:10229000EF93FF9389EA98E00E941908FF91EF916C
:1022A000BF91AF919F918F917F916F915F914F916E
:1022B0003F912F910F900BBE0F900FBE0F901F906C
:1022C00018951F920F920FB60F9211240BB60F9212
:1022D0002F933F934F935F936F937F938F939F932E
:1022E000AF93BF93EF93FF9386E499E00E94320887
:1022F000FF91EF91BF91AF919F918F917F916F91DE
:102300005F914F913F912F910F900BBE0F900FBE99
:102310000F901F9018951F920F920FB60F921124D5
:102320000BB60F922F933F934F935F936F937F93CF
:102330008F939F93AF93BF93EF93FF9386E499E0BE
:102340000E941908FF91EF91BF91AF919F918F91DA
:102350007F916F915F914F913F912F910F900BBEA5
:102360000F900FBE0F901F901895FC01A089B189A6
:1023700082E08C93A485B5851C92A685B78580E103
:102380008C93108EA489B58986E08C93A289B38939
:102390008C9180618C93A289B3898C9188608C9395
:1023A000A289B3898C9180688C930288F389E02D8F
:1023B00080818F7D80830895E0914609F0914709DF
:1023C0000190F081E02D682F86E499E019940F9335
:1023D0001F93CF93DF9300D01F92CDB7DEB7AC0130
:1023E000990F660B770B77FF1AC08DE249835A83EA
:1023F0006B837C83E1DF8C0149815A816B817C8115
:1024000070956095509541955F4F6F4F7F4F2AE0D3
:1024100086E499E00E94031B080F191F06C02AE0FA
:1024200086E499E00E94031B8C0164E176E086E477
:1024300099E00E94EE1A800F911F0F900F900F905D
:102440000F90DF91CF911F910F9108953F924F927E
:102450005F926F927F928F929F92AF92BF92CF9234
:10246000DF92EF92FF920F931F93CF93DF9300D0F1
:10247000CDB7DEB7F82E8091D80A9091D90AA091F5
:10248000DA0AB091DB0A892B8A2B8B2BE9F00E94A8
:102490007B090091E80A1091E90A2091EA0A30913B
:1024A000EB0ADC01CB01801B910BA20BB30B00915B
:1024B000D80A1091D90A2091DA0A3091DB0A8017E4
:1024C0009107A207B307B8F20E947B096093E80A5C
:1024D0007093E90A8093EA0A9093EB0AE091E00A8C
:1024E000F091E10A309759F04091DC0A5091DD0AF1
:1024F0006091DE0A7091DF0A8F2D1995F82E0091F8
:10250000A7081091A8084F2C512C612C712C011593
:10251000110509F461C0D8011C96EC901C978091BC
:10252000D60A9091D70A8436910510F41C961C9215
:10253000D801ED91FC91A280B38019821A821B828E
:10254000F11014C0F80145855685628173819E01A2
:102550002F5F3F4FC801F5011995D8011C96EC92E9
:102560001C9714960D911C911597D1CFF8013996AF
:10257000CE0101966C0148019CE0890E911CDF019F
:1025800013973C902191332001F12223F1F0822F07
:1025900090E0A0E0B0E09C01AD012F5F3F4F4F4FB6
:1025A0005F4FC301B2010E94B6259B01AC01832D90
:1025B00090E0A0E0B0E0BC01CD016F5F7F4F8F4F96
:1025C0009F4F0E94B625D6018C93BFEFCB1ADB0A32
:1025D000E815F905A1F6B6CF8091E60A9091E70AD1
:1025E0008C010F5F1F4F1093E70A0093E60A49978B
:1025F00094F10ED84B015C0188EE93E0089FB00186
:10260000099F700D189F700D1124072E000C880B68
:10261000990BC090E20AD090E30AE090E40AF090AF
:10262000E50AA50194012C193D094E095F090E9494
:10263000C5253093D70A2093D60A1092E70A109244
:10264000E60A0E94080B6093E20A7093E30A809303
:10265000E40A9093E50A0F900F900F90DF91CF91CD
:102660001F910F91FF90EF90DF90CF90BF90AF90B0
:102670009F908F907F906F905F904F903F900895C4
:10268000CF92DF92EF92FF92DC01A03282E0B80796
:102690000CF03EC0B7FD06C0A53BB1052CF0A4EB85
:1026A000B0E002C0A0E0B0E080918A0A28E830E003
:1026B0006901C81AD10887FDD394CC0CDD1CCC0C61
:1026C000DD1C0D2C000CEE08FF0880918B0A28E51C
:1026D00032E0281B310987FD3395220F331F220F6B
:1026E000331FA901330F660B770B9A01AB012C192D
:1026F0003D094E095F090E940D2624EB30E040E0C1
:1027000050E00E94E725C20ED31EE41EF51ED6013E
:102710009091890A903398F580918A0A48E850E0B0
:10272000481B510987FD5395440F551F440F551FF2
:10273000A417B5078CF080918B0A28E532E0281B9E
:10274000310987FD3395220F331F220F331FAD014F
:102750002A173B070CF4A90142505109440F551F99
:102760002FB7F894892F90E0FC01EE0FFF1F8E0F1A
:102770009F1FFC01E850F64F528341832FBFFF900B
:10278000EF90DF90CF900895EEE2F2E080E090E0ED
:102790002081273319F42181213431F001963296BA
:1027A00081339105A9F78FEF0895CF93DF9304DE6E
:1027B000EC0164E176E086E499E010D78C0F9D1F70
:1027C000DF91CF9108954F925F926F927F928F9297
:1027D0009F92AF92BF92CF92DF92EF92FF926B01E6
:1027E0007C019B01AC010E946823882319F062E8F8
:1027F00076E01AC046015701E894B7F82FEF3FEF93
:102800004FE75FE7C501B4010E946823811111C041
:102810002FEF3FEF4FE75FE7C501B4010E949D2412
:1028200018163CF466E876E086E499E0D7D67C0199
:1028300081C02FEF3FEF4FE75FE4C701B6010E9471
:10284000642318161CF46AE876E0EECF2FEF3FEF12
:102850004FE75FECC701B6010E949D2487FDF3CFCF
:1028600020E030E0A901C701B6010E949D2487FF46
:1028700008C08DE2A1DD5C01F7FAF094F7F8F0945E
:1028800002C0A12CB12C2AE037ED43EA5BE3C7017B
:10289000B6010E946C222B013C010E9438236B017F
:1028A0007C010E94A1249B01AC01C301B2010E94E2
:1028B0006B222B013C012AE0B701A60186E499E0D6
:1028C000A2D67C01EA0CFB1C8EE276DDE80EF91E36
:1028D00020E030E040E251E4C301B2010E94022551
:1028E0002B013C010E9438234B01A12CB12C2AE082
:1028F000B501A40186E499E086D6E80EF91EC5016B
:10290000B4010E94A1249B01AC01C301B2010E9449
:102910006B2220E030E040E251E40E9402250E9458
:102920003823AB0160E070E02AE086E499E06BD6E2
:10293000E80EF91E64E176E086E499E04FD68E0D4C
:102940009F1DFF90EF90DF90CF90BF90AF909F9032
:102950008F907F906F905F904F9008950F931F938B
:1029600090E0FC01E057FE4F6491FC01E051FE4F06
:10297000E491F0E0EE0FFF1FEA58FE4F859194912D
:1029800000E412E42FE030E0462F98D6611571057F
:102990008105910549F0DC01CB010196A11DB11D16
:1029A000BC01CD019F7003C060E070E0CB011F91BE
:1029B0000F9108950F931F930E94080B6093B10825
:1029C0007093B2088093B3089093B408E091A9087B
:1029D000F091AA080084F185E02D89EA98E0199524
:1029E00097FF1FC00E94080B0091B1081091B20818
:1029F0002091B3083091B408DC01CB01801B910B0E
:102A0000A20BB30B0091AD081091AE082091AF0856
:102A10003091B00880179107A207B307B8F28FEF83
:102A20009FEF1F910F910895CF92DF92EF92FF9247
:102A30000F931F93CF93DF93CAE0D0E0C12CD12C2A
:102A400076010FE010E061E08EE20E941009C801FB
:102A50000197F1F760E08EE20E94100988E17EDFC5
:102A60000E94A1249B01AC01C701B6010E946C2207
:102A70006B017C016AE070E080E090E00E94A009B8
:102A8000219709F720E030E040E251E4C701B601A8
:102A90000E94D02220E030E040E05FE30E94022567
:102AA00020E030E048EE51E40E94D0222EE53AEBDF
:102AB00049EC5EE30E94022524E13EEA4FE850E43F
:102AC0000E946B226B017C016EE876E086E499E05F
:102AD000F4D5C701B60177DEC701B601DF91CF910A
:102AE0001F910F91FF90EF90DF90CF9008952F925C
:102AF0003F924F925F926F927F929F92AF92BF925E
:102B0000CF92DF92EF92FF920F931F93CF93DF93B9
:102B10006BE976E086E499E0BED59BE3292E9CE93B
:102B2000392E02E010E020E8D22E3CE8E32EF12C12
:102B300089EA98E00E94DA07892B09F472C389EACE
:102B400098E00E94CC07C82F6BEA76E086E499E013
:102B5000B4D58C2F2ADE8091E1079091E207813075
:102B60009105F9F08230910509F44EC1892B09F0E5
:102B70004DC367EC76E086E499E09FD58091E1074C
:102B80009091E20724DCC33209F040C389EA98E05F
:102B90000E94B80781E090E09093E2078093E107FC
:102BA00096C167EC76E086E499E087D58091E107ED
:102BB0009091E2070CDCCA3209F494C0CF3309F4D7
:102BC00088C0C33209F022C389EA98E00E94B8079E
:102BD0001093E2070093E10768EE73E080E090E075
:102BE0000E94A00980918C0A882309F44EC06AE9EA
:102BF00079E989EA90E40E944806F0920102E092A5
:102C0000000280910002909101028B3491058CF0BA
:102C100037DD6FE070E080E090E00E94A0098091D5
:102C200000029091010201979093010280930002AB
:102C3000E8CF60ED77E080E090E00E94A0098BE4AF
:102C400090E09093010280930002809100029091A5
:102C500001028D3891056CF413DD6FE070E080E0C7
:102C600090E00E94A00980910002909101020196DB
:102C7000E8CF68E873E180E090E00E94A0096AE98B
:102C800079E989EA90E40E94290660ED77E080E026
:102C900090E00E94A009C0E0D0E0FE01ED51F84FA5
:102CA000D082D182D2828091D50AD0DB62E370E0FB
:102CB00080E090E00E94A0092396CC30D10569F70E
:102CC0006CED75E080E090E00E94A0090E949D05F7
:102CD000FEC089EA98E00E94B8070E949D0560E066
:102CE00077E090C289EA98E00E94B80700D4709318
:102CF000E0076093DF076FE177E086E499E0DDD4D9
:102D00008091DF079091E00762DBF1D37093DE07DB
:102D10006093DD076CE377E086E499E0CED48091A0
:102D2000DD079091DE0753DB8091DF079091E0078C
:102D300097FD13C06091DF077091E007072E000C2C
:102D4000880B990B0E94A32425E438ED40EF5AE349
:102D50000E9402250E940A061CC08091DF07909104
:102D6000E0076091DF077091E007181619061CF064
:102D7000719561957109072E000C880B990B0E94C3
:102D8000A32425E438ED40EF5AE30E9402250E9477
:102D9000EB05C1010197F1F78091DD079091DE0706
:102DA00097FD13C06091DD077091DE07072E000CC0
:102DB000880B990B0E94A32425E438ED40EF5AE3D9
:102DC0000E9402250E9429061CC08091DD07909177
:102DD000DE076091DD077091DE07181619061CF0FA
:102DE000719561957109072E000C880B990B0E9453
:102DF000A32425E438ED40EF5AE30E9402250E9407
:102E000048060E949D0594CE67EC76E086E499E042
:102E100054D48091E1079091E207D9DAC33261F08E
:102E2000CF3309F0F3C189EA98E00E94B8070E9405
:102E30009D056AE777E0E6C189EA98E00E94B80755
:102E40001092E2071092E1070E94EA0669E577E036
:102E500086E499E020D4E0918C0AF0E0EE0FFF1FA9
:102E6000E25DFD4F80818733F1F4E0918C0AF0E060
:102E7000EE0FFF1FE25DFD4F8181813441F160E083
:102E800070E080E491E40E9429060E94CB067FD97D
:102E90000E94E60C0E945E0B64E670E080E090E029
:102EA0000E94A009E2CFE0918C0AF0E0EE0FFF1F34
:102EB000E25DFD4F81818134C9F5E0918C0AF0E03B
:102EC000EE0FFF1FE25DFD4F8081873351F468ED07
:102ED00076E086E499E0F1D38091E1079091E207F2
:102EE0009EC160E070E080E491E40E9448060E9488
:102EF0006706E0918C0AF0E0EE0FFF1FE25DFD4FE8
:102F0000808181335CF0853334F088333CF4F6D82B
:102F10000E94F10E03C0A9D80E943D0E18D864E6A5
:102F200070E080E090E00E94A009C7CFE0918C0A99
:102F3000F0E0EE0FFF1FE25DFD4F8181873409F065
:102F4000E7C0E0918C0AF0E0EE0FFF1FE25DFD4F5D
:102F50008081873309F49FC060E070E080E491E4F1
:102F60000E9448060E946706E0918C0AF0E0EE0F8E
:102F7000FF1FE25DFD4F808181335CF0853334F0CB
:102F800088333CF4BBD80E94F10E03C06ED80E9477
:102F90003D0E68E677E086E499E07DD345DD2B01C0
:102FA0003C016DED74E086E499E087D360E070E069
:102FB000CB0109DC68EF74E086E499E07ED3C301BD
:102FC000B20101DCA12CB12C9924939420E030E0D3
:102FD000A901C301B2010E9464231816A4F42DECC8
:102FE0003CEC4CEC5EE3C301B2010E946423181672
:102FF0000CF04AC06AE979E989E99EE30E94EB0591
:10300000CC24C3941AC02DEC3CEC4CEC5EEBC30119
:10301000B2010E949D2487FF37C020E030E0A90163
:10302000C301B2010E949D2487FF2CC06AE979E99F
:1030300089E99EE30E940A06C12C6BE470E080E0FF
:1030400090E00E94A009F0DC2B013C016DED74E0E2
:1030500086E499E032D360E070E0CB01B4DB68EF46
:1030600074E086E499E029D3C301B201ACDBC91452
:1030700019F08FEFA81AB80A85E0A816B10424F455
:103080009C2CA4CFC92CD9CF64E670E080E090E0FE
:103090000E94A00956CF60E070E080E490E40E94B6
:1030A000290664EF71E080E090E00E94A00960E0F2
:1030B00070E080E89FE30E940A0660E070E084EB25
:1030C00092E40E94AD0560E070E080EC9FE30E9416
:1030D0004806E0918C0AF0E0EE0FFF1FE25DFD4F25
:1030E0008181813409F4F3CE60E070E080E491E402
:1030F0000E9429060E94CB064AD80E94E60C0E9434
:103100005E0B64E670E080E090E00E94A009E1CFF1
:10311000E0918C0AF0E0EE0FFF1FE25DFD4F808131
:10312000813309F0D4CEE0918C0AF0E0EE0FFF1F5E
:10313000E25DFD4F81818134A1F060E070E080E4C8
:1031400091E40E9429060E94CB0621D80E94E60C39
:103150000E945E0B64E670E080E090E00E94A009AF
:10316000E2CF60E070E080E490E40E94480664E60C
:1031700070E080E090E00E94A00960E070E080E8EC
:103180009FE30E94EB0560E070E084EB92E40E9414
:10319000CC0560E070E080EC9FE30E942906E0919E
:1031A0008C0AF0E0EE0FFF1FE25DFD4F8081873358
:1031B00009F48DCE60E070E080E491E40E9448065E
:1031C0000E946706E0918C0AF0E0EE0FFF1FE25DBF
:1031D000FD4F808181336CF085333CF088334CF4B3
:1031E0000E947E100E94F10E04C00E9435100E94C1
:1031F0003D0E0E94A70F64E670E080E090E00E9420
:10320000A009CDCF86E499E046D292CC6CEE76E070
:1032100086E499E052D289EA98E00E94B807D7D8AC
:1032200087CCDF91CF911F910F91FF90EF90DF90AE
:10323000CF90BF90AF909F907F906F905F904F9096
:103240003F902F900895CF92DF92EF92FF920F93CD
:103250001F93CF93DF93CAE0D0E0C12CD12C76012D
:103260000FE010E061E088E20E941009C8010197B8
:10327000F1F760E088E20E94100986E26FDB0E94AD
:10328000A1249B01AC01C701B6010E946C226B0115
:103290007C016AE070E080E090E00E94A009219744
:1032A00009F720E030E040E251E4C701B6010E9496
:1032B000D02220E030E040E05FE30E94022520E0E1
:1032C00030E048EE51E40E94D0222EE53AEB49EC82
:1032D0005EE30E94022523E333E343E750E40E94C8
:1032E0006B226B017C0169E977E086E499E0E5D126
:1032F000C701B60168DAC701B601DF91CF911F910E
:103300000F91FF90EF90DF90CF900895CF92DF92D2
:10331000EF92FF920F931F93CF93DF93CAE0D0E019
:10332000C12CD12C76010FE010E061E080E30E9417
:103330001009C8010197F1F760E080E30E941009CD
:103340008DE20CDB0E94A1249B01AC01C701B601F8
:103350000E946C226B017C016AE070E080E090E0EA
:103360000E94A009219709F720E030E040E251E4F3
:10337000C701B6010E94D02220E030E040E05FE3C8
:103380000E94022520E030E048EE51E40E94D02265
:103390002EE53AEB49EC5EE30E94022520E030E0A6
:1033A00040E050E40E946B226B017C0167EA77E009
:1033B00086E499E082D1C701B60105DAC701B601FA
:1033C000DF91CF911F910F91FF90EF90DF90CF9001
:1033D0000895CF92DF92EF92FF920F931F93CF93B6
:1033E000DF93CAE0D0E0C12CD12C76010FE010E0D1
:1033F00061E080E20E941009C8010197F1F760E0E6
:1034000080E20E9410098CE1A9DA0E94A1249B01AC
:10341000AC01C701B6010E946C226B017C016AE01D
:1034200070E080E090E00E94A009219709F720E079
:1034300030E040E251E4C701B6010E94D02220E012
:1034400030E040E05FE30E94022520E030E048EEFB
:1034500051E40E94D0222EE53AEB49EC5EE30E9453
:1034600002252EEA37E441EC5FE30E946B226B01F8
:103470007C016AEB77E086E499E01FD1C701B601D1
:10348000A2D9C701B601DF91CF911F910F91FF9093
:10349000EF90DF90CF900895CF92DF92EF92FF925E
:1034A0000F931F93CF93DF936C017A018B01C0E0E0
:1034B000D0E0CE15DF0589F0D8016D918D01D601E0
:1034C000ED91FC910190F081E02DC6011995892BB9
:1034D00011F47E0102C02196ECCFC701DF91CF919C
:1034E0001F910F91FF90EF90DF90CF900895FF9282
:1034F0000F931F93CF93DF9300D01F92CDB7DEB70A
:1035000059DAFC0197FD11C08D32910591F0C097F9
:103510000A9778F0E091A908F091AA080680F7814F
:10352000E02D89EA98E01995EBCF60E070E0CB01DF
:103530004BC020E030E0A901F12CE130F105F1F0C1
:10354000ED32F105C9F0CF01C0970A97B8F4AAE0AF
:10355000B0E00E9403268F01FF0F220B330BDC012A
:10356000CB01800F911FA21FB31F9C01AD012053FF
:1035700031094109510902C0FF24F394E091A908DF
:10358000F091AA080680F781E02D89EA98E0298366
:103590003A834B835C8319950DDAFC01C09729812E
:1035A0003A814B815C810A9740F2E130F10529F2C2
:1035B000FF2041F066277727CB01621B730B840B3A
:1035C000950B02C0CA01B9010F900F900F900F9098
:1035D000DF91CF911F910F91FF90089561157105B3
:1035E00079F0FB0101900020E9F73197AF01461B0C
:1035F000570BDC01ED91FC910280F381E02D1994D1
:1036000080E090E008954F925F926F927F92EF92E8
:10361000FF920F931F93CF93DF93CDB7DEB7A197A0
:103620000FB6F894DEBF0FBECDBF7C01FA01CB010F
:1036300019A2223008F42AE08E010F5D1F4F422E9E
:10364000512C612C712CBF01A30192010E94C52550
:10365000F901CA01015011096A3014F4605D01C01A
:10366000695CD8016C93232B242B252B61F7B801BF
:10367000C701B4DFA1960FB6F894DEBF0FBECDBF71
:10368000DF91CF911F910F91FF90EF907F906F90FE
:103690005F904F9008950F931F93CF93DF93EC01AA
:1036A0009DDF8C0164E176E0CE0198DF800F911FF1
:1036B000DF91CF911F910F91089590CFCF92DF921C
:1036C000EF92FF920F931F93E82FF92F05C001503F
:1036D00011092109310961F1908196239417B9F3F9
:1036E00005C0015011092109310911F1908196237A
:1036F0009413F7CFC12CD12CE12CF12C0AC08FEF01
:10370000C81AD80AE80AF80A0C151D052E053F0547
:1037100079F080818623841791F36C2D7D2D8E2D79
:103720009F2D1F910F91FF90EF90DF90CF90089504
:1037300060E070E080E090E01F910F91FF90EF90CB
:10374000DF90CF9008958091EB099091EC0900975C
:1037500011F00E9401248091E90987FD03C060E017
:103760000C943F090895CF93DF93CDB7DEB7299727
:103770000FB6F894DEBF0FBECDBF789484B58260DB
:1037800084BD84B5816084BD85B5826085BD85B505
:10379000816085BD80916E00816080936E00109283
:1037A00081008091810082608093810080918100FE
:1037B000816080938100809180008160809380008F
:1037C0008091B10084608093B1008091B0008160ED
:1037D0008093B000809191008260809391008091ED
:1037E000910081608093910080919000816080932E
:1037F00090008091A10082608093A1008091A1003F
:1038000081608093A1008091A00081608093A000DE
:10381000809121018260809321018091210181604A
:10382000809321018091200181608093200180910B
:103830007A00846080937A0080917A00826080931D
:103840007A0080917A00816080937A0080917A007A
:10385000806880937A001092C1001092D10A109271
:10386000D20A1092D30A1092D40A10928F0A1092A0
:10387000900A1092910A1092920A60ED77E080E02F
:1038800090E00E94A00986E499E09093D00A80938A
:10389000CF0A0E94B5110E94080B60938F0A7093A3
:1038A000900A8093910A9093920A65E076E0809165
:1038B000CF0A9091D00A01DF6AE070E080E090E0EA
:1038C0000E94A00981E08093A30A86E499E00E9407
:1038D000B51168EE73E080E090E00E94A00967E116
:1038E00076E086E499E0D7DE64E676E086E499E067
:1038F000D2DE68E176E086E499E0CDDE60E08CE03F
:103900000E943F0960E08CE00E94100961E081E2C2
:103910000E943F0960E081E20E94100960E08AE1B4
:103920000E943F0960E08CE10E943F0960E086E26E
:103930000E943F0960E08DE20E943F0960E08FE253
:103940000E943F0960E088E10E943F0961E08FE149
:103950000E943F0960E08FE10E94100961E080E26F
:103960000E943F0960E080E20E94100961E088E265
:103970000E943F0960E088E20E94100961E080E354
:103980000E943F0960E080E30E94100961E086E147
:103990000E943F0960E086E10E94100961E08EE22A
:1039A0000E943F0960E08EE20E94100961E082E01F
:1039B0000E943F0960E082E00E94100961E088E017
:1039C0000E943F0961E088E00E94100961E089E0FF
:1039D0000E943F0960E089E00E94100961E08AE0EE
:1039E0000E943F0961E08AE00E94100961E08BE0DB
:1039F0000E943F0960E08BE00E94100960E082E2D3
:103A00000E943F0961E08DE00E943F0960E08DE087
:103A10000E94100989EA98E00E94B51161E08CE2E9
:103A20000E943F0960E08CE20E9410091092E207B8
:103A30001092E1071092E0071092DF071092DE0764
:103A40001092DD0783E090E09093F0078093EF07FA
:103A50001092F107EFEEF7E081E024E030E03483EC
:103A60002383858333968F5F8133C9F70E94C41304
:103A7000E82FF0E09F01220F331FE20FF31FE15107
:103A8000F84F23E030E03183208382838091E9097D
:103A900087FD08C061E00E943F0960E08091E9096C
:103AA0000E94100981E08093E4096091EA09663080
:103AB00019F12091EB093091EC09615029F070E087
:103AC0008FEF95E0D3D402C060E070E0F90140913F
:103AD000E7095091E809CF01821B930B84179507E2
:103AE00040F44081469FC001479F900D112491935F
:103AF000EECF86E08093EA098091890A803308F04E
:103B000051C061E085E30E943F098091890AE82F56
:103B1000F0E09F01220F331FE20FF31FE850F64F32
:103B20009081907C9563908310928A0A10928B0A00
:103B30006CE090D42CE0829FB001112440E050E072
:103B40009A01260F371FF901EE0FFF1F2E0F3F1F9F
:103B5000F901E850F64F908196FD17C04F5F5F4F17
:103B60004C30510569F7813009F019C3109280007B
:103B700082E0809381001092850010928400B19AB7
:103B800080916F00826080936F00E091890AF0E07D
:103B9000CF01880F991FE80FF91FE850F64F808179
:103BA0008064808380910002909101020E94401302
:103BB00080919508811145C010928708109286085F
:103BC0008FEF80938A0880938B0880938C08809372
:103BD0008D0880938E0880938F0881E080939008F1
:103BE00010929208109291081092890810928808F9
:103BF0008091A7089091A808892B31F484E898E077
:103C00009093A8088093A708E0918208F091830818
:103C1000309721F084E898E09583848384E898E0E5
:103C200090938308809382081092940810929308CE
:103C300080E292E0909385088093840881E08093ED
:103C40009508E0918408F09185080480F581E02DC5
:103C500084E898E0199583EE97E090938708809325
:103C6000860884E090E09093920880939108E09118
:103C70008408F09185080284F385E02D84E898E0BB
:103C80001995009721F19C0140E050E060E472E456
:103C90008FE090E09CD7722F632F0091D80A10918B
:103CA000D90A2091DA0A3091DB0A872F962FDA01A0
:103CB00080179107A207B30710F4D901C8018093B8
:103CC000D80A9093D90AA093DA0AB093DB0A0E942B
:103CD000EA0660E177E280E090E00E94A00980912E
:103CE000E5099091E609892B59F18091EA09882329
:103CF00031F0EFEF8E9FC0011124292F01C02FEF6B
:103D00003091F0094091ED098091EB099091EC0917
:103D1000341721F0FC01E30FF11D10823091ED0901
:103D2000FC01E30FF11D20833091EE09FC01E30F4C
:103D3000F11D20832091EF09FC01E20FF11D10829B
:103D40008091EB099091EC09892B09F4A1C00E94A4
:103D50007B090091F1091091F2092091F30930914A
:103D6000F409DC01CB01801B910BA20BB30BC297B2
:103D7000A105B10560F3F8948091E7099091E809F5
:103D80009A838983E091EB09F091EC09DF011196A8
:103D9000808189879091E309E091F509F091F60916
:103DA0008091F709992309F42EC09081982B988768
:103DB0009081809589238F838F818C8388E08B838A
:103DC00058856F8149853B812C8189819A815083F7
:103DD00047FD252F3A952083262F39F0441F00C038
:103DE00000006083000000C0F2CF38E04D91608396
:103DF0000000019761F7F093F609E093F509498710
:103E00003B832C8338C09081982B98879081809534
:103E100089238F838F818E8388E08D8358856F817E
:103E200049853D812E8189819A81508347FD252FC7
:103E300000C000C0208300C000C000C000C000C09F
:103E400060830000262F3A9541F0441F000000C017
:103E500000C000C000C000C0E8CF38E04D9100C0F5
:103E6000608300C0019709F7F093F609E093F50924
:103E700049873D832E839A83898378940E947B09A6
:103E80006093F1097093F2098093F3099093F40918
:103E90000CE311E03CE9E32E31E0F32E4CEFC42EAD
:103EA00041E0D42EF8018491F701A490F601B4907A
:103EB000BB20A1F081110E94BA088B2D90E0880FE1
:103EC000991F8A589E4FFC01A591B4918C91A8220C
:103ED00081E0B12C09F480E0A82E02C0A12CB12C05
:103EE000A0929D08B0929E0864EF71E080E090E09F
:103EF0000E94A009C5010E94E71180919D08909140
:103F00009E08892B09F4CECF6DEC7CEC8CEC9DE304
:103F10000E9448066DEC7CEC8CEC9DE30E94AD05A4
:103F20006DEC7CEC8CEC9DE30E9429066DEC7CEC46
:103F30008CEC9DE30E94CC0584EF882E9924939409
:103F4000A12CB12C0E94080B672B682B692B41F424
:103F50000E94080B623071058105910508F4F9C0D3
:103F60000E94080B6093A3087093A4088093A5088F
:103F70009093A60800919F081091A0082091A10895
:103F80003091A208601771078207930740F460938D
:103F90009F087093A0088093A1089093A2080091B5
:103FA0009F081091A0082091A1083091A2086B01F0
:103FB0007C01C01AD10AE20AF30A970186010A3F7E
:103FC00011052105310508F4C4C060939F08709362
:103FD000A0088093A1089093A20880929B0A9092D7
:103FE0009C0AA0929D0AB0929E0A10929F0A10927B
:103FF000A00A1092A10A1092A20A8091930A9091AD
:10400000940AA091950AB091960A8093970A90938A
:10401000980AA093990AB0939A0A0E94080B609399
:10402000930A7093940A8093950A9093960A0E943B
:10403000080B60938F0A7093900A8093910A909373
:10404000920A0E94080B6B017C016EE676E080917B
:10405000CF0A9091D00A31DB2AE041E050E060E0E5
:1040600070E08091CF0A9091D00ACDDA65E776E0D2
:104070008091CF0A9091D00A20DB2AE0B701A601F7
:104080008091CF0A9091D00ABEDA67E776E08091FE
:10409000CF0A9091D00A11DB8091930A9091940AF3
:1040A000A091950AB091960AB701A601481B590B39
:1040B0006A0B7B0B2AE08091CF0A9091D00AA3DA99
:1040C00067E776E08091CF0A9091D00AF6DA4091C6
:1040D000930A5091940A6091950A7091960A809182
:1040E000970A9091980AA091990AB0919A0A481B50
:1040F000590B6A0B7B0B2AE08091CF0A9091D00A72
:1041000082DA69E776E08091CF0A9091D00AD5DA19
:104110000E94080BAB01BC012AE08091CF0A90916C
:10412000D00A71DA6BE776E08091CF0A9091D00ADD
:10413000B2DA65E070E080E090E00E94A0090E94A1
:10414000080B6093930A7093940A8093950A909356
:10415000960A04E010E060E070E080E491E40E94E0
:10416000480668EE73E080E090E00E94A00960E0FD
:1041700070E084EB92E40E94CC0568EE73E080E08E
:1041800090E00E94A0090150110929F768E873E145
:1041900080E090E00E94A0090E94E607D3CE823022
:1041A00061F410929000809391001092950010920B
:1041B000940088BB80937100E8CC833069F410923E
:1041C000A00082E08093A1001092A5001092A400AC
:1041D00089BB80937200D9CC8111D7CC1092200179
:1041E00082E08093210110922501109224018ABB64
:1041F00080937300CACC1092AC081092AB0848EEC2
:1042000053E060E070E04093AD085093AE086093D7
:10421000AF087093B00884E992E09093AA08809365
:10422000A90825ED30E03093B6082093B50824EDB9
:1042300030E03093B8082093B70820ED30E0309399
:10424000BA082093B90821ED30E03093BC082093E0
:10425000BB0822ED30E03093BE082093BD0826ED68
:1042600030E03093C0082093BF081092C20810922B
:10427000C3081092C4081092C50810924909109200
:10428000480940934A0950934B0960934C09709335
:104290004D09909347098093460985EC90E09093EF
:1042A00053098093520984EC90E0909355098093D0
:1042B000540920EC30E0309357092093560981ECE3
:1042C00090E0909359098093580982EC90E0909384
:1042D0005B0980935A0986EC90E090935D09809386
:1042E0005C0910925F0910926009109261091092A6
:1042F00062091092E4091092EA091092F1091092F1
:10430000F2091092F3091092F40981E08093F00908
:104310008093ED091092EE0992E09093EF0980935B
:10432000E3093093E8092093E70980EC90E0D4D1C9
:104330009093EC098093EB09009761F020ECFC016D
:1043400011922A95E9F780E490E09093E609809332
:10435000E50908C01092E8091092E7091092E609F1
:104360001092E50986E08093E9098091E4098823A9
:1043700041F061E086E00E943F0960E086E00E9433
:104380001009E6EFF1E0E491F0E0EE0FFF1FEA52D2
:10439000FE4F859194919093F6098093F509E6E993
:1043A000F1E0E491E093F7098091880A8033A0F46A
:1043B00091E0980F9093880A8093890A90E0FC011D
:1043C000EE0FFF1F8E0F9F1FFC01E850F64F88EB8A
:1043D0009BE09283818303C08FEF8093890A0E94C0
:1043E000C41380938C0A1092930A1092940A10922C
:1043F000950A1092960A1092970A1092980A1092B3
:10440000990A10929A0A10929B0A10929C0A109292
:104410009D0A10929E0A10929F0A1092A00A109272
:10442000A10A1092A20A8FEF8093D50A1092D70AA0
:104430001092D60A1092E10A1092E00A8FEF9FEFD5
:10444000DC018093DC0A9093DD0AA093DE0AB0932E
:10445000DF0A0895991B79E004C0991F961708F0A8
:10446000961B881F7A95C9F780950895AA1BBB1BD8
:1044700051E107C0AA1FBB1FA617B70710F0A61B64
:10448000B70B881F991F5A95A9F780959095BC0185
:10449000CD01089597FB072E16F4009406D077FD02
:1044A00008D0E4DF07FC05D03EF4909581959F4F3E
:1044B0000895709561957F4F0895EE0FFF1F881F37
:1044C0008BBF0790F691E02D1994ADD3B7FF0895F7
:1044D000821B930B08955058BB27AA270ED00CC3FC
:1044E000FDD230F002D320F031F49F3F11F41EF4DE
:1044F000F2C20EF4E095E7FBE8C2E92F0ED380F399
:10450000BA17620773078407950718F071F49EF5D0
:1045100026C30EF4E0950B2EBA2FA02D0B01B90186
:1045200090010C01CA01A0011124FF27591B99F029
:10453000593F50F4503E68F11A16F040A22F232F35
:10454000342F4427585FF3CF469537952795A79585
:10455000F0405395C9F77EF41F16BA0B620B730B2C
:10456000840BBAF09150A1F0FF0FBB1F661F771F9D
:10457000881FC2F70EC0BA0F621F731F841F48F452
:10458000879577956795B795F7959E3F08F0B3CFD8
:104590009395880F08F09927EE0F979587950895C2
:1045A0000CD0AAC2A2D240F099D230F021F45F3FE1
:1045B00019F08BC25111D4C28EC2AFD298F3992395
:1045C000C9F35523B1F3951B550BBB27AA276217D7
:1045D0007307840738F09F5F5F4F220F331F441F1C
:1045E000AA1FA9F333D00E2E3AF0E0E830D0915054
:1045F0005040E695001CCAF729D0FE2F27D0660F41
:10460000771F881FBB1F261737074807AB07B0E87F
:1046100009F0BB0B802DBF01FF2793585F4F2AF095
:104620009E3F510568F051C29BC25F3FECF3983E3C
:10463000DCF3869577956795B795F7959F5FC9F7F2
:10464000880F911D9695879597F90895E1E0660F7B
:10465000771F881FBB1F621773078407BA0720F0F4
:10466000621B730B840BBA0BEE1F88F7E09508955D
:104670005CD288F09F5790F0B92F9927B751A0F0DE
:10468000D1F0660F771F881F991F1AF0BA95C9F7E6
:1046900012C0B13081F063D2B1E0089560C2672FDB
:1046A000782F8827B85F39F0B93FCCF38695779596
:1046B0006795B395D9F73EF490958095709561957F
:1046C0007F4F8F4F9F4F089579D108F48FEF089552
:1046D00075D1880B990B0895CF93DF9382309105A4
:1046E00010F482E090E0E091EE0AF091EF0A20E011
:1046F00030E0C0E0D0E0309711F14081518148179F
:104700005907C0F04817590761F4828193812097B7
:1047100019F09B838A832BC09093EF0A8093EE0A53
:1047200026C02115310519F04217530718F49A01D4
:10473000BE01DF01EF010280F381E02DDCCF211506
:10474000310509F1281B390B2430310590F41296FC
:104750008D919C9113976115710521F0FB01938355
:10476000828304C09093EF0A8093EE0AFD01329693
:1047700044C0FD01E20FF31F819391932250310950
:104780002D933C933AC02091EC0A3091ED0A232BF3
:1047900041F420910402309105023093ED0A2093F8
:1047A000EC0A20910202309103022115310541F4F7
:1047B0002DB73EB74091060250910702241B350BDE
:1047C000E091EC0AF091ED0AE217F307A0F42E1B3A
:1047D0003F0B2817390778F0AC014E5F5F4F241765
:1047E000350748F04E0F5F1F5093ED0A4093EC0AD7
:1047F0008193919302C0E0E0F0E0CF01DF91CF918F
:1048000008950F931F93CF93DF93009709F48CC003
:10481000FC013297138212820091EE0A1091EF0A86
:104820000115110581F420813181820F931F2091A0
:10483000EC0A3091ED0A2817390779F5F093ED0A63
:10484000E093EC0A71C0D80140E050E0AE17BF071A
:1048500050F412962D913C911397AD01211531051D
:1048600009F1D901F3CF9D01DA01338322836081FD
:104870007181860F971F8217930769F4EC012881D5
:104880003981260F371F2E5F3F4F318320838A8166
:104890009B8193838283452B29F4F093EF0AE09365
:1048A000EE0A42C01396FC93EE931297ED014991E4
:1048B00059919E01240F351FE217F30771F480818F
:1048C0009181840F951F029611969C938E938281FD
:1048D000938113969C938E931297E0E0F0E0D801B9
:1048E00012968D919C911397009719F0F8018C0105
:1048F000F6CF8D919C9198012E5F3F4F820F931FB1
:104900002091EC0A3091ED0A2817390769F43097A5
:1049100029F41092EF0A1092EE0A02C0138212825A
:104920001093ED0A0093EC0ADF91CF911F910F9144
:10493000089581E090E0F89485C140D008F481E0CA
:104940000895E89409C097FB3EF490958095709582
:1049500061957F4F8F4F9F4F9923A9F0F92F96E9CB
:10496000BB279395F695879577956795B795F11140
:10497000F8CFFAF4BB0F11F460FF1BC06F5F7F4FDD
:104980008F4F9F4F16C0882311F096E911C07723EF
:1049900021F09EE8872F762F05C0662371F096E8F8
:1049A000862F70E060E02AF09A95660F771F881FC7
:1049B000DAF7880F9695879597F90895990F00086B
:1049C000550FAA0BE0E8FEEF16161706E807F907E1
:1049D000C0F012161306E407F50798F0621B730B7C
:1049E000840B950B39F40A2661F0232B242B252BFD
:1049F00021F408950A2609F4A140A6958FEF811DA0
:104A0000811D08950BD078C069D028F06ED018F0C1
:104A1000952309F05AC05FC01124A2C07ED0A0F334
:104A2000959FD1F3950F50E0551F629FF001729F43
:104A3000BB27F00DB11D639FAA27F00DB11DAA1F62
:104A4000649F6627B00DA11D661F829F2227B00DAF
:104A5000A11D621F739FB00DA11D621F839FA00D3A
:104A6000611D221F749F3327A00D611D231F849F8A
:104A7000600D211D822F762F6A2F11249F575040E1
:104A80008AF0E1F088234AF0EE0FFF1FBB1F661F7C
:104A9000771F881F91505040A9F79E3F510570F035
:104AA00014C05EC05F3FECF3983EDCF386957795CB
:104AB0006795B795F795E7959F5FC1F7FE2B880F30
:104AC000911D9695879597F9089597F99F6780E8C6
:104AD00070E060E008959FEF80EC089500240A9450
:104AE0001616170618060906089500240A941216C9
:104AF0001306140605060895092E0394000C11F4FC
:104B0000882352F0BB0F40F4BF2B11F460FF04C0A8
:104B10006F5F7F4F8F4F9F4F089557FD9058440F01
:104B2000551F59F05F3F71F04795880F97FB991F0C
:104B300061F09F3F79F087950895121613061406C9
:104B4000551FF2CF4695F1DF08C016161706180656
:104B5000991FF1CF86957105610508940895E89431
:104B6000BB2766277727CB0197F90895DB018F9341
:104B70009F9349D0BF91AF91A29F800D911DA39F9C
:104B8000900DB29F900D11240895A1E21A2EAA1B38
:104B9000BB1BFD010DC0AA1FBB1FEE1FFF1FA217ED
:104BA000B307E407F50720F0A21BB30BE40BF50BEA
:104BB000661F771F881F991F1A9469F76095709573
:104BC000809590959B01AC01BD01CF010895052E04
:104BD00097FB16F400940FD057FD05D0D6DF07FCE5
:104BE00002D046F408C050954095309521953F4F2E
:104BF0004F4F5F4F089590958095709561957F4FC9
:104C00008F4F9F4F08950FD0A59F900DB49F900D8B
:104C1000A49F800D911D11240895B7FFF4CFF3DFF9
:104C2000821B930B0895A29FB001B39FC001A39F65
:104C3000700D811D1124911DB29F700D811D1124D5
:104C4000911D089511E0CCE1D1E000E005C0802F76
:104C5000FE0133DC2196011DCD31D10780E008072C
:064C6000B1F7F894FFCF4C
:104C66008C000000F00A8000010000000000000037
:104C7600170817081708260249024D02000000000F
:104C8600E401A1019F01260249029C015303374119
:104C96003742374337443745374637473647364630
:104CA600364536443643364236413541354235433C
:104CB600354435453546354734473446344534441E
:104CC600344334423441334133423343334433452E
:104CD6003346334732473246324532443243324214
:104CE6003241314131423143314431453146314718
:104CF6000000000053084C1ADA07B807CC079908D9
:104D06000A737461727470692829000A2D2D2D2D7D
:104D16002D2D2D2D2D2D4552524F5220494E2061BD
:104D2600766F69644F627328292D2D2D2D2D2D2D1B
:104D36002D2D2D2D0A000A43757272656E7420435F
:104D4600656C6C3A09000A4261636B2D4C656674AA
:104D560020446973743A09000A4261636B2044690E
:104D66007374616E636520446966666572656E6319
:104D7600653A09000A46726F6E742D4C656674209A
:104D8600446973743A09000A46726F6E7420446966
:104D96007374616E636520446966666572656E63E9
:104DA600653A09000A61646A75737446726F6E74B7
:104DB6004261636B506F736974696F6E2829000ACC
:104DC600666978446973744261636B2829000A42F4
:104DD60061636B2044697374616E63652053657407
:104DE60020506F696E743A20000A4261636B20445A
:104DF600697374616E636520446966666572656E83
:104E060063653A20000A46697865642044697374CC
:104E1600616E636520776974682046726F6E7400F0
:104E26000A6669784469737446726F6E742829003D
:104E36000A46726F6E742044697374616E636520EE
:104E460053657420506F696E743A20000A46726F7B
:104E56006E742044697374616E6365204469666686
:104E66006572656E63653A20000A46697865642056
:104E760044697374616E6365207769746820426162
:104E8600636B000A2D2D2D2D2D2D2D2D2D2D4552EB
:104E9600524F5220494E2061646A75737446726F90
:104EA6006E744261636B506F736974696F6E282903
:104EB6002D2D2D2D2D2D2D2D2D2D2D0A000A616424
:104EC6006A75737453696465506F736974696F6E3C
:104ED6002829000A66697844697374526967687498
:104EE6002829000A52696768742044697374616EE0
:104EF60063652053657420506F696E743A20000A0A
:104F060052696768742044697374616E63652044EE
:104F16006966666572656E63653A20000A4C656669
:104F2600742041646A75737420446F6E65000A6666
:104F36006978446973744C6566742829000A4C655F
:104F460066742044697374616E63652053657420CA
:104F5600506F696E743A20000A4C65667420446985
:104F66007374616E636520446966666572656E6317
:104F7600653A20000A52696768742041646A75734D
:104F86007420446F6E65000A2D2D2D2D2D2D2D2D8F
:104F96002D2D4552524F5220494E206E657874434E
:104FA600656C6C28292D2D2D2D2D2D2D2D2D2D2D7E
:104FB6000A000A66697844697374526967687443BB
:104FC6006F6C2829000A66697844697374446966B7
:104FD60066464261636B2829000A666978446973EC
:104FE600744469666646726F6E742829000A6164A5
:104FF6006A7573744F7269656E746174696F6E2831
:1050060029000A466978656420416E676C652077D9
:105016006974682046726F6E74000A466978656422
:1050260020416E676C652077697468204261636B06
:10503600000A2D2D2D2D2D2D2D2D2D2D4552524F66
:105046005220494E2061646A7573744F7269656EA9
:10505600746174696F6E28292D2D2D2D2D2D2D2D02
:105066002D2D2D0A00564D4450565F317C315F562A
:105076004D4450560D0A000A2D2D2D2D2D2D2D2D6A
:105086002D2D2D2D2D2D2D2D2D2D2D2D2D2D2D2D4A
:105096002D2D2D2D2D2D2D2D2D2D2D2D2D2D2D2D3A
:1050A6002D2D2D2D2D2D2D2D2D2D2D2D2D2D2D2D2A
:1050B6002D2D2D2D2D2D2D2D2D2D2D2D2D2D2D2D1A
:1050C6002D2D2D005374617274204C6F6700564D60
:1050D6004450455F003A323A007C005F564D4450DA
:1050E60045006E616E00696E66006F7666000A4C5A
:1050F60065667420446973743A09000A73657269B7
:10510600616C4576656E74322829000A4E657720F3
:105116006368617261637465722066726F6D205296
:10512600617350693A09000A43757272656E74209C
:1051360053746174653A09000A4368616E67656471
:1051460020537461746520746F3A09000A526563CE
:1051560065697665642066726F6D2070693A09002C
:105166000A4C69642072656164206661696C7572B7
:105176006520726573746172742070693A09000A59
:105186005265636965766564207820706978656C18
:105196002064697374616E63653A09000A52656337
:1051A6006965766564207920706978656C20646924
:1051B6007374616E63653A09000A6D6F7665546FA4
:1051C60053746172742829000A6669784469737495
:1051D6004C656674436F6C2829000A446965207221
:1051E600656164206661696C7572652072657374A9
:1051F6006172742070693A09000A526967687420FE
:10520600446973743A09000A4261636B2D526967F7
:10521600687420446973743A09000A46726F6E74A2
:0E5226002D526967687420446973743A090058
:020000023000CC
:10E000000D9489F10D94B2F10D94B2F10D94B2F129
:10E010000D94B2F10D94B2F10D94B2F10D94B2F1F0
:10E020000D94B2F10D94B2F10D94B2F10D94B2F1E0
:10E030000D94B2F10D94B2F10D94B2F10D94B2F1D0
:10E040000D94B2F10D94B2F10D94B2F10D94B2F1C0
:10E050000D94B2F10D94B2F10D94B2F10D94B2F1B0
:10E060000D94B2F10D94B2F10D94B2F10D94B2F1A0
:10E070000D94B2F10D94B2F10D94B2F10D94B2F190
:10E080000D94B2F10D94B2F10D94B2F10D94B2F180
:10E090000D94B2F10D94B2F10D94B2F10D94B2F170
:10E0A0000D94B2F10D94B2F10D94B2F10D94B2F160
:10E0B0000D94B2F10D94B2F10D94B2F10D94B2F150
:10E0C0000D94B2F10D94B2F10D94B2F10D94B2F140
:10E0D0000D94B2F10D94B2F10D94B2F10D94B2F130
:10E0E0000D94B2F141546D656761323536300041AF
:10E0F000726475696E6F206578706C6F72657220DE
:10E1000073746B3530305632206279204D4C530099
:10E11000426F6F746C6F616465723E004875683F52
:10E1200000436F6D70696C6564206F6E203D200048
:10E130004350552054797065202020203D20005FF9
:10E140005F4156525F415243485F5F3D2000415658
:10E1500052204C696243205665723D20004743437C
:10E160002056657273696F6E203D20004350552024
:10E1700049442020202020203D20004C6F7720663D
:10E18000757365202020203D20004869676820665F
:10E190007573652020203D200045787420667573D6
:10E1A00065202020203D20004C6F636B2066757336
:10E1B000652020203D20004D617220203720323024
:10E1C000313300312E362E3800342E332E350056A2
:10E1D00023202020414444522020206F7020636F70
:10E1E00064652020202020696E73747275637469E1
:10E1F0006F6E2061646472202020496E74657272B3
:10E20000757074006E6F20766563746F7200726A49
:10E210006D702020006A6D70200057686174207056
:10E220006F72743A00506F7274206E6F7420737541
:10E2300070706F72746564004D7573742062652030
:10E2400061206C6574746572002000577269747483
:10E25000696E672045450052656164696E672045B7
:10E26000450045452065727220636E743D00504F35
:10E27000525400303D5A65726F2061646472003FF1
:10E280003D43505520737461747300403D454550C3
:10E29000524F4D207465737400423D426C696E6B41
:10E2A000204C454400453D44756D70204545505215
:10E2B0004F4D00463D44756D7020464C415348001B
:10E2C000483D48656C70004C3D4C69737420492F83
:10E2D0004F20506F72747300513D51756974005234
:10E2E0003D44756D702052414D00563D73686F7707
:10E2F00020696E7465727275707420566563746FF0
:10E30000727300593D506F727420626C696E6B00BD
:10E310002A0011241FBECFEFD1E2DEBFCDBF01E046
:10E320000CBF12E0A0E0B2E0EEE1FDEF03E00BBFB6
:10E3300002C007900D92A030B107D9F712E0A0E01B
:10E34000B2E001C01D92AE30B107E1F70F9460F367
:10E350000D948DFE01E20EBF0FEF0DBF11241FBE05
:10E360000D9460F30D9400F020E030E040ED57E0B4
:10E3700005C0FA013197F1F72F5F3F4F2817390792
:10E38000C0F308959C01260F311DC901A0E0B0E043
:10E390002F5F3F4FABBFFC018791882361F08093D3
:10E3A000C6008091C00086FFFCCF8091C0008064D1
:10E3B0008093C000EACF08958DE08093C6008091DD
:10E3C000C00086FFFCCF8091C00080648093C000B5
:10E3D0008AE08093C6008091C00086FFFCCF8091C8
:10E3E000C00080648093C00008950F94C2F10F9420
:10E3F000DCF10895FC019081992359F09093C600B7
:10E400008091C00086FFFCCF8091C0008064809323
:10E41000C0003196992379F70895282F982F929567
:10E420009F70892F805D8A3308F0895F8093C600D2
:10E430008091C00086FFFCCF8091C00080648093F3
:10E44000C000822F8F70982F905D9A3308F0995FEB
:10E450009093C6008091C00086FFFCCF8091C000E1
:10E4600080648093C00008959C01FB01853691056E
:10E470001CF46330710594F0C90164E670E00F94F8
:10E480002EFE605D7F4F6093C6008091C00086FFC6
:10E49000FCCF8091C00080648093C0002B30310598
:10E4A00014F43297B4F0C90164E670E00F942EFEC4
:10E4B0006AE070E00F942EFE605D7F4F6093C600AF
:10E4C0008091C00086FFFCCF8091C0008064809363
:10E4D000C000C9016AE070E00F942EFEC0968093E0
:10E4E000C6008091C00086FFFCCF8091C000806490
:10E4F0008093C00008951F93182F8EE692EE60E07F
:10E500000F94C2F11093C6008091C00086FFFCCF2B
:10E510008091C00080648093C0000F94DCF11F9153
:10E5200008952F923F924F925F926F927F928F92B7
:10E530009F92AF92BF92CF92DF92EF92FF920F9392
:10E540001F93DF93CF93CDB7DEB762970FB6F894E2
:10E55000DEBF0FBECDBF382E622ECA01DB015C01CB
:10E560006D01772420E2222E2E010894411C511CBB
:10E570008BC081E0A81680E0B80681E0C80680E084
:10E58000D80628F0C601AA27BB270F940DF2BB2797
:10E59000AD2D9C2D8B2D0F940DF28A2D0F940DF225
:10E5A0002092C6008091C00086FFFCCF8091C00001
:10E5B00080648093C0009DE29093C6008091C0006B
:10E5C00086FFFCCF8091C00080648093C0002092C1
:10E5D000C6008091C00086FFFCCF8091C00080649F
:10E5E0008093C00019828601750188249924A1E0D6
:10E5F0003A1651F03A1620F0B2E03B1661F409C029
:10E600000BBFF701779007C0C7010F9477FE782EF4
:10E6100002C0F7017080872D0F940DF22092C60082
:10E620008091C00086FFFCCF8091C0008064809301
:10E63000C000872D8052F401EF70F0708F3520F408
:10E64000E40DF51D708204C0E40DF51D8EE280839B
:10E650000894E11CF11C011D111D0894811C911CE2
:10E6600090E18916910409F0C2CF80E190E0A0E02A
:10E67000B0E0A80EB91ECA1EDB1E198AC2010F9493
:10E68000FAF10F94DCF16A94662009F072CF629679
:10E690000FB6F894DEBF0FBECDBFCF91DF911F91B3
:10E6A0000F91FF90EF90DF90CF90BF90AF909F9031
:10E6B0008F907F906F905F904F903F902F90089534
:10E6C0002F923F924F925F926F927F928F929F9282
:10E6D000AF92BF92CF92DF92EF92FF920F931F9370
:10E6E000DF93CF93CDB7DEB7CD53D1400FB6F894BB
:10E6F000DEBF0FBECDBF01E20EBF0FEF0DBF94B75F
:10E70000F894A89514BE80916000886180936000A1
:10E7100010926000789493FF05C0E0910002F091A0
:10E7200001021995279A2F9A8091C00082608093E8
:10E73000C00080E18093C40088E18093C1000000A4
:10E74000EE24FF24870144E0A42EB12CCC24DD2448
:10E7500024C0C5010197F1F70894E11CF11C011DCB
:10E76000111D21E2E2162EE4F20620E0020720E06D
:10E77000120718F031E0C32ED12CC801B70127ECE5
:10E780003BE140E050E00F9441FE611571058105C9
:10E79000910519F485B1805885B98091C00087FD35
:10E7A00003C0C114D104A9F2A6014F5F5F4FC25E3E
:10E7B000DE4F59834883CE51D140C25EDE4F8881FF
:10E7C0009981CE51D140019711F00D9410FEC05D9A
:10E7D000DE4F19821882C053D14060E0C15DDE4F28
:10E7E0001882CF52D14088249924C35DDE4F19820C
:10E7F0001882CD52D140C05EDE4F188219821A8233
:10E800001B82C052D140CE5CDE4F188219821A8220
:10E810001B82C253D140EE24FF2487010BBFF701B6
:10E8200007911691C45CDE4F19830883CC53D14005
:10E830000D940BFEC25EDE4F28813981CE51D1404E
:10E840002130310509F52091C600C25EDE4F1982E4
:10E850001882CE51D14022C02F5F3F4F4F4F5F4FA4
:10E86000213082E138078AE7480780E0580780F0C6
:10E87000C45CDE4FE881F981CC53D140EF5FFF4F9C
:10E8800019F0EE27FF27099420E030E040E050E047
:10E890008091C00087FFE0CF2091C600C35DDE4FAE
