:1000000023C1000052C1000050C100004EC10000D9
:100010004CC100004AC1000048C1000046C10000B8
:1000200044C1000042C1000040C100003EC10000C8
:100030003CC100003AC1000038C1000036C10000D8
:1000400034C1000015C6000030C100002EC1000000
:100050002CC100002AC1000028C100000C944509F1
:1000600024C10000BFC7000094C700001EC10000EB
:100070001CC100001AC1000018C1000016C1000018
:10008000CAC5000012C1000010C100000EC100006E
:100090000CC100000AC1000008C1000006C1000038
:1000A00004C1000002C1000089C50000FEC00000BC
:1000B000FCC00000FAC00000F8C0000052C50000FB
:1000C000F4C00000F2C00000F0C0000039C700001A
:1000D0000EC70000EAC00000E8C00000E6C0000053
:1000E000E4C00000E21F2920E21F2920E21F29208E
:1000F000E21F3608390828082C08320870083D0825
:10010000410847084B084F08550859085D08700812
:10011000630867086B08F90EED0EED0EF90EF10E8F
:10012000F10EF90E00000A0B02090C0D0E08070370
:1001300004010000000000000000000000000000BA
:1001400000000000000000000000000000000000AF
:10015000121110000000000000000000000000006C
:10016000000000000000000000000000210024004A
:1001700027002A002D003000330001010000040197
:1001800007010A01000020002300260029002C009E
:100190002F003200000100000301060109010102E5
:1001A0001020200808102040102040800201020189
:1001B0000804020101020408102040808040201041
:1001C000080402018004020180402010080402019A
:1001D0000804020101020408102040800102040802
:1001E0001020408000002200250028002B002E0057
:1001F0003100340002010000050108010B01050572
:100200000505070508080808020202020A0A08088C
:1002100004040404010101010101010103030303BA
:1002200003030303040707070C0C0C0C0C0C0C0C49
:100230000202020206060606060606060B0B0B0B5A
:100240000B0B0B0B4528562911241FBECFEFD1E213
:10025000DEBFCDBF00E00CBF1AE0A0E0B2E0ECEDE5
:10026000FAE500E00BBF02C007900D92AC38B10771
:10027000D9F72EE0ACE8BAE001C01D92AF31B20769
:10028000E1F711E0C3E2D1E000E006C021970109E7
:10029000802FFE010E94A729C232D10780E0080703
:1002A000A9F70E94BE1C0C945D2DAACEEF92FF927E
:1002B0000F931F93CF93DF93EC019091140C9F5FEA
:1002C000292F27702093140C90FF02C090E801C0E2
:1002D00090E021FD9064247009F0906220E1290FE4
:1002E000FE013C967E018FE0E80EF11C00E011E07B
:1002F0006191662331F070E0C8010E9494296F5F1C
:1003000001C060E0DF0114976C93322F369F030E1B
:1003100030E0311D1124CF010797311103C0EC01EA
:10032000188203C03150EC013883662311F061500C
:100330006C93EE15FF05E1F6DF91CF911F910F91C0
:10034000FF90EF90089580E991E00895219A089533
:100350000F931F93CF93DF93CDB7DEB762970FB69E
:10036000F894DEBF0FBECDBF8C01F901DC011C96F5
:100370008C917A8369835C834B835E834D83908108
:100380009D8791819E8792819F87813021F4CE0144
:1003900001968CDF06C01C861B861A861986188675
:1003A0001F8283E0888B1A8A198AD801ED91FC910B
:1003B0000484F585E02DBE016F5F7F4FC80119955C
:1003C00062960FB6F894DEBF0FBECDBFDF91CF911E
:1003D0001F910F9108950F931F93CF93DF93CDB784
:1003E000DEB762970FB6F894DEBF0FBECDBF8C01AB
:1003F000F901DC011C968C917A8369835C834B83C1
:100400005E834D8390819D8791819E8792819F8796
:10041000813021F4CE01019649DF06C01C861B867F
:100420001A86198618861F82188A1A8A198AD8018C
:10043000ED91FC910484F585E02DBE016F5F7F4F47
:10044000C801199562960FB6F894DEBF0FBECDBFF6
:10045000DF91CF911F910F910895CF93DF9300D03B
:1004600000D0CDB7DEB7AB011C821D821E82DC013D
:10047000ED91FC910190F081E02D19821A821B828E
:100480009E012F5F3F4FBE016C5F7F4F19952696EF
:100490000FB6F894DEBF0FBECDBFDF91CF910895A8
:1004A000FC0185859685089580E090E008954F923F
:1004B0005F926F927F928F92AF92BF92CF92EF92A4
:1004C000FF920F931F93CF93DF933C01EB0174D600
:1004D000F30127853089621B730B6A307105B8F30D
:1004E000F894E881F98155B1526085B18D7F85B965
:1004F0006A859F81262F291B922F2F83BF844A80D4
:100500005B807D85FC84EE847F5FF394E3943E8181
:100510004885A984CB841181D20120E0C32F022F0A
:10052000322F3181112788943111390F08F43FEFB0
:100530009195889470FD130F1795889471FD130F92
:100540001795889472FD130F1795889473FD130FF8
:100550001795889474FD130F1795889475FD130FE4
:100560001795889476FD130F1795889477FD130FD0
:1005700017958894232F7111212F960F122F002C7D
:1005800055B900C017FF85B930812227889400C073
:1005900000C0002C85B931113C0F00C0002C55B9AA
:1005A00000C016FF85B908F43FEFC195889400C0DC
:1005B00000C0002C85B9F0FC230F00C0002C55B9F9
:1005C00000C015FF85B927958894F1FC230F00C062
:1005D00000C0002C85B92795889400C0002C55B91F
:1005E00000C014FF85B9F2FC230F2795889400C042
:1005F00000C0002C85B9F3FC230F00C0002C55B9B6
:1006000000C013FF85B927958894F4FC230F00C020
:1006100000C0002C85B92795889400C0002C55B9DE
:1006200000C012FF85B9F5FC230F2795889400C000
:1006300000C0002C85B9F6FC230F00C0002C55B972
:1006400000C011FF85B927958894F7FC230F00C0DF
:1006500000C0002C85B92795889400C0002C55B99E
:1006600000C010FF85B9132FF110122FCA0D00C062
:1006700000C0002C85B900C000C0002C55B900C0D6
:1006800017FF85B932812227889400C000C0002C52
:1006900085B93111340F00C0002C55B900C016FFC8
:1006A00085B908F43FEFEB0DF11D00C000C0002C30
:1006B00085B9E0FC230F00C0002C55B900C015FF20
:1006C00085B927958894E1FC230F00C000C0002C59
:1006D00085B92795889400C0002C55B900C014FF37
:1006E00085B9E2FC230F2795889400C000C0002C38
:1006F00085B9E3FC230F00C0002C55B900C013FFDF
:1007000085B927958894E4FC230F00C000C0002C15
:1007100085B92795889400C0002C55B900C012FFF8
:1007200085B9E5FC230F2795889400C000C0002CF4
:1007300085B9E6FC230F00C0002C55B900C011FF9D
:1007400085B927958894E7FC230F00C000C0002CD2
:1007500085B92795889400C0002C55B900C010FFBA
:1007600085B9132FE110122F419500C000C0002C55
:1007700085B94C0D00C000C055B900C017FF85B940
:1007800031812227889400C000C0002C85B9311126
:10079000390F00C0002C55B900C016FF85B908F408
:1007A0003FEF9195889400C000C0002C85B970FD82
:1007B000230F00C0002C55B900C015FF85B927953F
:1007C000889471FD230F00C000C0002C85B92795C7
:1007D000889400C0002C55B900C014FF85B972FD83
:1007E000230F2795889400C000C0002C85B973FDA5
:1007F000230F00C0002C55B900C013FF85B9279501
:10080000889474FD230F00C000C0002C85B9279583
:10081000889400C0002C55B900C012FF85B975FD41
:10082000230F2795889400C000C0002C85B976FD61
:10083000230F00C0002C55B900C011FF85B92795C2
:10084000889477FD230F00C000C0002C85B9279540
:10085000889400C0002C55B900C010FF85B9132F33
:100860007111122F960F00C000C0002C85B911978E
:1008700009F086CE20EE31E0D2010E94AF29DC01E2
:10088000CB01F4E0B695A79597958795FA95D1F7A2
:1008900020E030E0A9016AE9469E412D569E400DB8
:1008A000511D1124840F951FA11DB11D893E43E0E8
:1008B0009407A105B10588F1885E9340A109B109AB
:1008C00042E0B695A795979587954A95D1F747E069
:1008D000849F212D949F200D311D11246091130CB4
:1008E00070E0860F971F820F931F4091150C509157
:1008F000160C6091170C7091180C292F3327420F9A
:10090000531F611D711D4093150C5093160C60937D
:10091000170C7093180C8093130C78944DD4F3013A
:10092000708B6787DF91CF911F910F91FF90EF90B0
:10093000CF90BF90AF908F907F906F905F904F90CF
:100940000895CF92DF92EF92FF920F931F93CF9370
:10095000DF936C018B017A01EC01C15FD34F888179
:1009600087FF04C0FB011182108224C08CE08C9DA3
:1009700090018D9D300D11248881A901480F511DD2
:1009800087FD5A958091FF0D90E04817590794F420
:100990008881A901480F511D87FD5A95CA01FA01A6
:1009A000EE0FFF1F8E0F9F1FFC01E159F24F808158
:1009B00086FD19C088818F5F88838CE08C9D9001B3
:1009C0008D9D300D11248881A901480F511D87FD8F
:1009D0005A958091FF0D90E048175907B4F488812B
:1009E0008C303CF112C08881280F311D87FD3A956B
:1009F000F901EE0FFF1F2E0F3F1FF901E159F24FD2
:100A0000808160E08F736DD3D5CFF80180819181B3
:100A1000049680349C4918F480E49CE904C0F801F1
:100A2000808191810496F701918380838FEF888381
:100A300044C0F801408151818881B901680F711D5E
:100A400087FD7A95CB01FB01EE0FFF1F8E0F9F1FD5
:100A5000FC01E159F24F81819281840F951FF701CA
:100A6000918380838881A901480F511D87FD5A9584
:100A7000CA01FA01EE0FFF1F8E0F9F1FFC01E15903
:100A8000F24F808186FF19C08881280F311D87FDB4
:100A90003A95F901EE0FFF1F2E0F3F1FF901E159A3
:100AA000F24F808161E08F73DF91CF911F910F91A1
:100AB000FF90EF90DF90CF9014C3DF91CF911F9103
:100AC0000F91FF90EF90DF90CF900895EEEAF2E063
:100AD00020E030E09081981305C09181691302C035
:100AE000822F08952F5F3F4F32962133310591F7C2
:100AF0008FEF0895CF93DF93C0E0D0E0FE01EE5674
:100B0000F54F1082118212828091040E0E94E01033
:100B100062E370E080E090E074D32396CC30D1059E
:100B200069F7DF91CF9108951F93CF93DF93C0E0D2
:100B3000D0E010E8FE01EE56F54F108311831283CA
:100B40008091040E0E94E01062E370E080E090E08B
:100B500058D32396CC30D10569F7DF91CF911F91FF
:100B600008951F920F920FB60F9211240BB60F9299
:100B70002F933F934F935F936F937F938F939F93A5
:100B8000AF93BF93EF93FF9348E251E064E271E0CB
:100B900080E090E0D6DEFF91EF91BF91AF919F9101
:100BA0008F917F916F915F914F913F912F910F9016
:100BB0000BBE0F900FBE0F901F9018951F920F92B3
:100BC0000FB60F9211240BB60F922F933F934F93B2
:100BD0005F936F937F938F939F93AF93BF93EF93A5
:100BE000FF9348EA50E064EA70E083E090E0A9DE19
:100BF000FF91EF91BF91AF919F918F917F916F91F5
:100C00005F914F913F912F910F900BBE0F900FBEB0
:100C10000F901F9018951F920F920FB60F921124EC
:100C20000BB60F922F933F934F935F936F937F93E6
:100C30008F939F93AF93BF93EF93FF9348E950E057
:100C400064E970E082E090E07CDEFF91EF91BF917B
:100C5000AF919F918F917F916F915F914F913F9154
:100C60002F910F900BBE0F900FBE0F901F901895F5
:100C70001F920F920FB60F9211240BB60F922F9363
:100C80003F934F935F936F937F938F939F93AF9314
:100C9000BF93EF93FF9348E850E064E870E081E091
:100CA00090E04FDEFF91EF91BF91AF919F918F91B7
:100CB0007F916F915F914F913F912F910F900BBE5C
:100CC0000F900FBE0F901F901895FC01A089B1895D
:100CD0008C91A689B78982FD0FC09C91818D8F5F11
:100CE0008F73228D821749F0218DDF01A20FB11D74
:100CF0005D969C93818F08958C910895FC01918D50
:100D0000828D981761F0828DDF01A80FB11D5D966D
:100D10008C91928D9F5F9F73928F90E008958FEFDB
:100D20009FEF0895FC01918D828D981731F0828D8F
:100D3000E80FF11D858D90E008958FEF9FEF0895E6
:100D4000FC01918D228D892F90E0805C9F4F821B4A
:100D500091098F739927089580E29CE0F1DF21E0EB
:100D6000892B09F420E0822F08958DEB9CE0E8DFC9
:100D700021E0892B09F420E0822F0895FC01848D65
:100D8000DF01A80FB11DA35ABF4F2C91848D90E0B5
:100D900001968F739927848FA689B7892C93A08990
:100DA000B1898C9180648C93938D848D981306C047
:100DB0000288F389E02D80818F7D80830895EF92F2
:100DC000FF920F931F93CF93DF93EC0181E0888F05
:100DD0009B8D8C8D981305C0E889F989808185FDEC
:100DE00023C0F62E0B8D10E00F5F1F4F0F731127DE
:100DF000E02E8C8DE8120BC00FB607FCFACFE88905
:100E0000F989808185FFF5CFCE01B8DFF2CF8B8DD8
:100E1000FE01E80FF11DE35AFF4FF0820B8FEA89C4
:100E2000FB898081806207C0EE89FF896083E88941
:100E3000F98980818064808381E090E0DF91CF91A7
:100E40001F910F91FF90EF900895CF93DF93EC01E6
:100E5000888D8823C1F0EA89FB89808185FD05C0E2
:100E6000A889B9898C9186FD0EC00FB607FCF5CF15
:100E7000808185FFF2CFA889B9898C9185FFEDCF5C
:100E8000CE017CDFE8CFDF91CF91089580E090E044
:100E9000892B19F06ADF81111CC080E090E0892B5A
:100EA00041F080E090E0892B21F00E940000811148
:100EB00013C052DF811113C080E090E0892BA1F0B4
:100EC00080E090E0892B81F00E94000081110AC02F
:100ED00008950E940000E1CF0E940000EACF0E9426
:100EE0005316EACF0C94000008950E94E32B1F9242
:100EF0000F920FB60F9211240BB60F922F933F93C0
:100F00004F935F936F937F938F939F93AF93BF9311
:100F1000EF93FF9380E29CE031DFFF91EF91BF916F
:100F2000AF919F918F917F916F915F914F913F9181
:100F30002F910F900BBE0F900FBE0F901F90189522
:100F40001F920F920FB60F9211240BB60F922F9390
:100F50003F934F935F936F937F938F939F93AF9341
:100F6000BF93EF93FF9380E29CE0AFDEFF91EF91A0
:100F7000BF91AF919F918F917F916F915F914F91B1
:100F80003F912F910F900BBE0F900FBE0F901F90AF
:100F900018951F920F920FB60F9211240BB60F9255
:100FA0002F933F934F935F936F937F938F939F9371
:100FB000AF93BF93EF93FF938DEB9CE0DFDEFF9148
:100FC000EF91BF91AF919F918F917F916F915F91C1
:100FD0004F913F912F910F900BBE0F900FBE0F902E
:100FE0001F9018951F920F920FB60F9211240BB6F7
:100FF0000F922F933F934F935F936F937F938F93B2
:101000009F93AF93BF93EF93FF938DEB9CE05DDED7
:10101000FF91EF91BF91AF919F918F917F916F91D0
:101020005F914F913F912F910F900BBE0F900FBE8C
:101030000F901F90189590E0FC013197E231F10577
:1010400008F04EC08827E758FF4F8F4F0C94A72910
:10105000809180008F7703C0809180008F7D809386
:101060008000089580918000877FF9CF84B58F77C5
:1010700002C084B58F7D84BD08958091B0008F77C4
:1010800003C08091B0008F7D8093B000089580915F
:1010900090008F7707C0809190008F7D03C0809172
:1010A0009000877F8093900008958091A0008F77B3
:1010B00007C08091A0008F7D03C08091A000877F32
:1010C0008093A0000895809120018F7707C08091C0
:1010D00020018F7D03C080912001877F80932001B4
:1010E00008951F93CF93DF93282F30E0F901EC5D33
:1010F000FE4F8491F901E256FE4FD491F901E2507E
:10110000FE4FC491CC23C1F0162F811194DFEC2F38
:10111000F0E0EE0FFF1FEC51FE4FA591B4918FB799
:10112000F894111105C09C91ED2FE095E92302C0C0
:10113000EC91ED2BEC938FBFDF91CF911F91089530
:10114000CF93DF9390E0FC01E256FE4F2491FC0127
:10115000E250FE4F8491882361F190E0880F991F3F
:10116000FC01E659FE4FC591D491FC01EC51FE4FB4
:10117000A591B491611109C09FB7F8948881209519
:1011800082238883EC912E230BC0623061F49FB7D9
:10119000F8943881822F809583238883EC912E2BBD
:1011A0002C939FBF06C08FB7F894E8812E2B28831D
:1011B0008FBFDF91CF9108953FB7F89480911A0CBB
:1011C00090911B0CA0911C0CB0911D0C26B5A89BF6
:1011D00005C02F3F19F00196A11DB11D3FBFBA2FC9
:1011E000A92F982F8827820F911DA11DB11DBC0129
:1011F000CD0142E0660F771F881F991F4A95D1F7EE
:1012000008958F929F92AF92BF92CF92DF92EF920A
:10121000FF926B017C01D0DF4B015C01C114D10452
:10122000E104F104E9F0C8DFDC01CB018819990978
:10123000AA09BB09883E9340A105B10578F321E0D6
:10124000C21AD108E108F10888EE880E83E0981EE2
:10125000A11CB11CC114D104E104F10421F7DECFBB
:10126000FF90EF90DF90CF90BF90AF909F908F90C6
:1012700008952FB7F8946091150C7091160C809119
:10128000170C9091180C2FBF08951F920F920FB654
:101290000F9211242F933F938F939F93AF93BF93FC
:1012A0008091150C9091160CA091170CB091180C10
:1012B0003091190C23E0230F2D3720F40196A11D46
:1012C000B11D05C026E8230F0296A11DB11D209374
:1012D000190C8093150C9093160CA093170CB093D7
:1012E000180C80911A0C90911B0CA0911C0CB091C1
:1012F0001D0C0196A11DB11D80931A0C90931B0C1F
:10130000A0931C0CB0931D0CBF91AF919F918F9136
:101310003F912F910F900FBE0F901F9018958F92B5
:101320009F92AF92BF92CF92DF92EF92FF920F9374
:101330001F93CF93DF9388EC95E00E947F128091FA
:10134000030E803308F054C1E091030EF0E0EE0F7D
:10135000FF1FE255FD4F8181843409F449C1F4F542
:1013600081340CF436C183EE95E00E947F12E09147
:10137000030EF0E0EE0FFF1FE255FD4F8181082EB6
:10138000000C990B815491092CE0289FB001299FF2
:10139000700D1124072E000C880B990B0E94ED2B69
:1013A0004B015C010E94071AA50194010E94B52916
:1013B0006B017C0182EF95E00E944713C501B401E7
:1013C0000E9489128DE096E00E944713C701B60182
:1013D0000E948912C0E0D0E001E074C088340CF0B3
:1013E000F8C084E496E00E947F12E091030EF0E0E2
:1013F000EE0FFF1FE255FD4F218187E490E0821B35
:10140000910927FD93952CE0289FB001299F700D2D
:101410001124072E000C880B990B0E94ED2B4B0119
:101420005C010E94051BA50194010E94B5296B0176
:101430007C0184E596E00E944713C501B4010E9437
:10144000891280E796E00E944713C701B6010E9407
:101450008912C0E0D0E001E092C02DEC3CEC4CE4FD
:101460005FE3C701B6010E94AE2A18160CF03EC019
:101470006AE979E989E99EE30E940B1511E06BE4C2
:1014800070E080E090E0BDDE0E94071AA5019401A3
:101490000E94B5296B017C0182EF95E00E94471301
:1014A000C501B4010E9489128DE096E00E944713A5
:1014B000C701B6010E94891210132196C530D105CB
:1014C000ACF4012F20E030E0A901C701B6010E9471
:1014D000AE2A18160CF4C1CF2DEC3CEC4CE45FEBBB
:1014E000C701B6010E94E72B87FD03C089E296E0A1
:1014F00072C020E030E0A901C701B6010E94E72BCD
:1015000087FF08C06AE979E989E99EE30E942E1500
:1015100010E0B5CF102FB3CF2DEC3CEC4CE45FE3E3
:10152000C701B6010E94AE2A18160CF03CC06AE949
:1015300079E989E99EE30E942E1511E06BE470E0E1
:1015400080E090E05EDE0E94051BA50194010E94F0
:10155000B5296B017C0184E596E00E944713C50123
:10156000B401D7D780E796E00E944713C701B601C0
:10157000D0D710132196C530D105ACF4012F20E04F
:1015800030E0A901C701B6010E94AE2A18160CF47A
:10159000C3CF2DEC3CEC4CE45FEBC701B6010E94DD
:1015A000E72B87FD03C08DE896E015C020E030E012
:1015B000A901C701B6010E94E72B87FF08C06AE9AD
:1015C00079E989E99EE30E940B1510E0B7CF102F4F
:1015D000B5CF87EA96E0DF91CF911F910F91FF90F1
:1015E000EF90DF90CF90BF90AF909F908F9087C784
:1015F000DF91CF911F910F91FF90EF90DF90CF90EF
:10160000BF90AF909F908F9008958F929F92AF92CE
:10161000BF92CF92DF92EF92FF920F931F93CF93DF
:10162000DF9381EE96E06BD78091030E803308F054
:101630001EC1E091030EF0E0EE0FFF1FE255FD4FDB
:10164000808181330CF404C184330CF472C088337C
:101650000CF0FEC087EF96E052D7E091030EF0E069
:10166000EE0FFF1FE255FD4F208187E390E0821BC4
:10167000910927FD93952CE0289FB001299F700DBB
:101680001124072E000C880B990B0E94ED2B4B01A7
:101690005C010E94A219A50194010E94B5296B0169
:1016A0007C0187E097E0F3D7C501B40132D783E22C
:1016B00097E0EDD7C701B6012CD720E030E0A901B3
:1016C000C701B6010E94AE2A18168CF42DEC3CEC32
:1016D0004CEC5EE3C701B6010E94AE2A181634F541
:1016E0006AE979E989E99EE30E94E81419C02DECC2
:1016F0003CEC4CEC5EEBC701B6010E94E72B87FF88
:1017000015C020E030E0A901C701B6010E94E72B17
:1017100087FF06C06AE979E989E99EE30E94C5145A
:101720006BE470E080E090E06CDDB3CF80E497E0A4
:1017300091C082E597E0E3D6E091030EF0E0EE0F72
:10174000FF1FE255FD4F8081082E000C990BC197B9
:101750002CE0289FB001299F700D1124072E000C4A
:10176000880B990B0E94ED2B4B015C010E943D19E7
:10177000A50194010E94B5296B017C0181E697E0E7
:1017800086D7C501B401C5D68CE797E080D7C701DD
:10179000B601BFD6C0E0D0E001E020E030E0A90112
:1017A000C701B6010E94AE2A18169CF42DEC3CEC41
:1017B0004CEC5EE3C701B6010E94AE2A18160CF08D
:1017C00040C06AE979E989E99EE30E94C51411E005
:1017D0001AC02DEC3CEC4CEC5EEBC701B6010E944C
:1017E000E72B87FF2EC020E030E0A901C701B6013A
:1017F0000E94E72B87FF2AC06AE979E989E99EE31D
:101800000E94E81410E06BE470E080E090E0F9DC06
:101810000E943D19A50194010E94B5296B017C012C
:1018200081E697E034D7C501B40173D68CE797E021
:101830002ED7C701B6016DD610132196C530D1053C
:101840001CF088E997E006C0012FA7CF102FDBCF4F
:1018500083E893E0DF91CF911F910F91FF90EF907C
:10186000DF90CF90BF90AF909F908F9048C6DF9150
:10187000CF911F910F91FF90EF90DF90CF90BF908D
:10188000AF909F908F9008958F929F92AF92BF924A
:10189000CF92DF92EF92FF920F931F93CF93DF933C
:1018A00083EE95E02CD6E091030EF0E0EE0FFF1FE3
:1018B000E255FD4F8081082E000C990BC1972CE05A
:1018C000289FB001299F700D1124072E000C880B52
:1018D000990B0E94ED2B4B015C010E94071AA50198
:1018E00094010E94B5296B017C0182EF95E0CFD66F
:1018F000C501B4010ED68DE096E0C9D6C701B60188
:1019000008D6C0E0D0E001E020E030E0A901C70146
:10191000B6010E94AE2A18169CF42DEC3CEC4CE467
:101920005FE3C701B6010E94AE2A18160CF044C04E
:101930006AE979E989E99EE30E940B1511E01AC072
:101940002DEC3CEC4CE45FEBC701B6010E94E72BA9
:1019500087FF32C020E030E0A901C701B6010E9434
:10196000E72B87FF27C06AE979E989E99EE30E94AE
:101970002E1510E06BE470E080E090E042DC0E9405
:10198000071AA50194010E94B5296B017C0182EF21
:1019900095E07DD6C501B401BCD58DE096E077D643
:1019A000C701B601B6D510132196C530D10524F470
:1019B000012FAACF102FDECFDF91CF911F910F9172
:1019C000FF90EF90DF90CF90BF90AF909F908F905F
:1019D00008958F929F92AF92BF92CF92DF92EF9233
:1019E000FF920F931F93CF93DF9384E496E087D504
:1019F000E091030EF0E0EE0FFF1FE255FD4F208156
:101A000087E390E0821B910927FD93952CE0289FA6
:101A1000B001299F700D1124072E000C880B990B23
:101A20000E94ED2B4B015C010E94051BA501940156
:101A30000E94B5296B017C0184E596E028D6C5019A
:101A4000B40167D580E796E022D6C701B60161D51B
:101A5000C0E0D0E001E020E030E0A901C701B6011C
:101A60000E94AE2A181694F42DEC3CEC4CE45FE393
:101A7000C701B6010E94AE2A18160CF042C06AE9EE
:101A800079E989E99EE3EAD711E019C02DEC3CEC35
:101A90004CE45FEBC701B6010E94E72B87FF31C022
:101AA00020E030E0A901C701B6010E94E72B87FFC3
:101AB00026C06AE979E989E99EE3ADD710E06BE4D5
:101AC00070E080E090E09DDB0E94051BA501940181
:101AD0000E94B5296B017C0184E596E0D8D5C5014B
:101AE000B40117D580E796E0D2D5C701B60111D56C
:101AF00010132196C530D10524F4012FACCF102F3F
:101B0000DECFDF91CF911F910F91FF90EF90DF908B
:101B1000CF90BF90AF909F908F900895CF92DF921B
:101B2000EF92FF920F931F93CF93DF938BEA97E08F
:101B3000E6D40E94A2196B017C0187E097E0A7D54B
:101B400060E070E0CB01E5D483E297E0A0D5C70167
:101B5000B601DFD400E010E0D1E020E030E0A901E0
:101B6000C701B6010E94AE2A181694F42DEC3CEC85
:101B70004CEC5EE3C701B6010E94AE2A18160CF0C9
:101B800041C06AE979E989E99EE322D7C1E019C039
:101B90002DEC3CEC4CEC5EEBC701B6010E94E72B50
:101BA00087FF30C020E030E0A901C701B6010E94E4
:101BB000E72B87FF25C06AE979E989E99EE3E5D645
:101BC000C0E06BE470E080E090E01BDB0E94A219B3
:101BD0006B017C0187E097E05AD560E070E0CB01B3
:101BE00098D483E297E053D5C701B60192D4CD17BC
:101BF00011F00F5F1F4F0530110524F4DC2FADCF1E
:101C0000CD2FDFCFDF91CF911F910F91FF90EF90FC
:101C1000DF90CF900895CF92DF92EF92FF920F93D3
:101C20001F93CF93DF938EEB97E069D40E943D1909
:101C30006B017C0181E697E02AD560E070E0CB0182
:101C400068D48CE797E023D5C701B60162D400E0E1
:101C500010E0D1E020E030E0A901C701B6010E9408
:101C6000AE2A181694F42DEC3CEC4CEC5EE3C70164
:101C7000B6010E94AE2A18160CF041C06AE979E953
:101C800089E99EE382D6C1E019C02DEC3CEC4CEC16
:101C90005EEBC701B6010E94E72B87FF30C020E052
:101CA00030E0A901C701B6010E94E72B87FF25C0DC
:101CB0006AE979E989E99EE38BD6C0E06BE470E0DC
:101CC00080E090E09EDA0E943D196B017C0181E684
:101CD00097E0DDD460E070E0CB011BD48CE797E0A7
:101CE000D6D4C701B60115D4CD1711F00F5F1F4F21
:101CF0000530110524F4DC2FADCFCD2FDFCFDF91E0
:101D0000CF911F910F91FF90EF90DF90CF900895AA
:101D1000CF92DF92EF92FF9280ED97E0F0D30E9496
:101D20006C1A6B017C0120E030E0A9010E94AE2A10
:101D3000181684F42DEC3CEC4CE45EE3C701B601CC
:101D40000E94AE2A181624F560E070E080E89FE358
:101D5000D6D518C02DEC3CEC4CE45EEBC701B601C7
:101D60000E94E72B87FF14C020E030E0A901C701E3
:101D7000B6010E94E72B87FF05C060E070E080E8B5
:101D80009FE3E0D56BE470E080E090E03ADAC7CF03
:101D9000FF90EF90DF90CF90089584EE97E0AFD35F
:101DA0008091030E803328F5E091030EF0E0EE0FF2
:101DB000FF1FE255FD4FE1818E2FEE0F990BAA0B0D
:101DC000BB0BFC01E154F109E730F10578F48827F9
:101DD000E557FF4F8F4F0C94A7299ADF89EF97E0C3
:101DE00007C00E94081C81E198E002C088E298E0E8
:101DF00086C30895009769F0FC0101900020E9F77F
:101E00003197AF01481B590BBC018DEB9CE00C9442
:101E10004E1C80E090E008950F931F932ADA6093A0
:101E2000280C7093290C80932A0C90932B0CE09132
:101E3000200CF091210C0084F185E02D80E29CE0E3
:101E4000199597FF1EC015DA0091280C1091290CE6
:101E500020912A0C30912B0CDC01CB01801B910BC3
:101E6000A20BB30B0091240C1091250C2091260C91
:101E70003091270C80179107A207B307C0F28FEFAC
:101E80009FEF1F910F910895FC01A089B18982E015
:101E90008C93A485B5851C92A685B78580E18C932B
:101EA000108EA489B58986E08C93A289B3898C9120
:101EB00080618C93A289B3898C9188608C93A2896C
:101EC000B3898C9180688C930288F389E02D80819E
:101ED0008F7D808308958CE598E08CCF8F929F92C0
:101EE000AF92BF920F931F93CF93DF93CDB7DEB71F
:101EF000A1970FB6F894DEBF0FBECDBF19A2423036
:101F000008F44AE08E010F5D1F4F842E912CA12C06
:101F1000B12CA50194010E942C2DE62FB901CA0114
:101F200001501109EA3014F4E05D01C0E95CD80108
:101F3000EC93232B242B252B61F7C8015BDFA196A3
:101F40000FB6F894DEBF0FBECDBFDF91CF911F91CA
:101F50000F91BF90AF909F908F900895E091BD0C2E
:101F6000F091BE0C0190F081E02D682F8DEB9CE08C
:101F70001994CF92DF92EF92FF92CF93DF936C018F
:101F8000990FEE08FF08F7FE10C08DE2E7DFEC01C5
:101F900066277727CB016C197D098E099F094AE0D6
:101FA0009DDF7C01EC0EFD1E05C04AE0C701B601B5
:101FB00095DF7C0190DF8E0D9F1DDF91CF91FF900B
:101FC000EF90DF90CF9008950F931F93CF93DF93FF
:101FD000CDB7DEB729970FB6F894DEBF0FBECDBFE1
:101FE000EBD80091680D1091690D20916A0D309128
:101FF0006B0DDC01CB01801B910BA20BB30BC297C5
:10200000A105B10568F3F89480915E0D90915F0D84
:102010009A838983E091620DF091630DDF0111963F
:102020008081898790915A0DE0916C0DF0916D0D32
:1020300080916E0D992309F42EC09081982B98877A
:102040009081809589238F838F818C8388E08B8317
:1020500058856F8149853B812C8189819A81508384
:1020600047FD252F3A952083262F39F0441F00C0C5
:1020700000006083000000C0F2CF38E04D91608323
:102080000000019761F7F0936D0DE0936C0D4987A7
:102090003B832C8338C09081982B988790818095C2
:1020A00089238F838F818E8388E08D8358856F810C
:1020B00049853D812E8189819A81508347FD252F55
:1020C00000C000C0208300C000C000C000C000C02D
:1020D00060830000262F3A9541F0441F000000C0A5
:1020E00000C000C000C000C0E8CF38E04D9100C083
:1020F000608300C0019709F7F0936D0DE0936C0DBC
:1021000049873D832E839A838983789455D8609339
:10211000680D7093690D80936A0D90936B0D2996ED
:102120000FB6F894DEBF0FBECDBFDF91CF911F91E8
:102130000F910895E0915C0DF0915D0D8E179F0752
:10214000F0F53091610D332361F0639FB0011124EC
:10215000672F439FA0011124452F239F9001112435
:10216000232F3091670D5091640DE091620DF09135
:10217000630D351308C0DC01AA0FBB1F8A0F9B1F1C
:102180008E0F9F1F0AC0880F991F880F991F8E0FEF
:102190009F1FFC01E30FF11D10823091640DFC01C3
:1021A000E30FF11D60833091650DFC01E30FF11D1C
:1021B00040833091660DFC01E30FF11D20830895EB
:1021C0003F924F925F926F927F928F929F92AF92C7
:1021D000BF92CF92DF92EF92FF920F931F93CF9314
:1021E000DF9300D0CDB7DEB7F82E8091070E909127
:1021F000080EA091090EB0910A0E892B8A2B8B2B09
:10220000E9F00E94DC080091170E1091180E209141
:10221000190E30911A0EDC01CB01801B910BA20B21
:10222000B30B0091070E1091080E2091090E30910A
:102230000A0E80179107A207B307B8F20E94DC08C4
:102240006093170E7093180E8093190E90931A0EC8
:10225000E0910F0EF091100E309759F040910B0E57
:1022600050910C0E60910D0E70910E0E8F2D1995E0
:10227000F82E00911E0C10911F0C4F2C512C612C2C
:10228000712C0115110509F461C0D8011C96EC9060
:102290001C978091050E9091060E8436910510F4DE
:1022A0001C961C92D801ED91FC91A280B3801982FA
:1022B0001A821B82F11014C0F8014585568562818F
:1022C00073819E012F5F3F4FC801F5011995D80119
:1022D0001C96EC921C9714960D911C911597D1CFDA
:1022E000F8013996CE0101966C0148019CE0890EF7
:1022F000911CDF0113973C902191332001F122239F
:10230000F1F0822F90E0A0E0B0E09C01AD012F5FE2
:102310003F4F4F4F5F4FC301B2010E9465299B01A0
:10232000AC01832D90E0A0E0B0E0BC01CD016F5F77
:102330007F4F8F4F9F4F0E946529D6018C93BFEF2F
:10234000CB1ADB0AE815F905A1F6B6CF8091150E78
:102350009091160E8C010F5F1F4F1093160E009375
:10236000150E49979CF10E9439094B015C0188EEDA
:1023700093E0089FB001099F700D189F700D112404
:10238000072E000C880B990BC090110ED090120EE6
:10239000E090130EF090140EA50194012C193D0944
:1023A0004E095F090E942C2D3093060E2093050ED6
:1023B0001092160E1092150E0E9439096093110E9C
:1023C0007093120E8093130E9093140E0F900F9033
:1023D0000F90DF91CF911F910F91FF90EF90DF90C1
:1023E000CF90BF90AF909F908F907F906F905F90B5
:1023F0004F903F900895CF92DF92EF92FF92DC01D1
:10240000A03282E0B8070CF03EC0B7FD06C0A53B85
:10241000B1052CF0A4EBB0E002C0A0E0B0E08091E8
:10242000010E28E830E06901C81AD10887FDD3946D
:10243000CC0CDD1CCC0CDD1C0D2C000CEE08FF08B8
:102440008091020E28E532E0281B310987FD339583
:10245000220F331F220F331FA901330F660B770B97
:102460009A01AB012C193D094E095F090E94262DE6
:1024700024EB30E040E050E00E94002DC20ED31E5D
:10248000E41EF51ED6019091000E903398F58091D0
:10249000010E48E850E0481B510987FD5395440F51
:1024A000551F440F551FA417B5078CF08091020EDD
:1024B00028E532E0281B310987FD3395220F331FB1
:1024C000220F331FAD012A173B070CF4A90142501C
:1024D0005109440F551F2FB7F894892F90E0FC0144
:1024E000EE0FFF1F8E0F9F1FFC01E159F24F528329
:1024F00041832FBFFF90EF90DF90CF900895CF934F
:10250000DF9378DCEC01E7DC8C0F9D1FDF91CF912E
:1025100008954F925F926F927F928F929F92AF92A7
:10252000BF92CF92DF92EF92FF926B017C019B01F1
:10253000AC010E94B22A882319F08FE598E01AC0F6
:1025400046015701E894B7F82FEF3FEF4FE75FE7F9
:10255000C501B4010E94B22A81110FC02FEF3FEFD5
:102560004FE75FE7C501B4010E94E72B18162CF472
:1025700083E698E03FDC7C017AC02FEF3FEF4FE726
:102580005FE4C701B6010E94AE2A18161CF487E664
:1025900098E0F0CF2FEF3FEF4FE75FECC701B601B8
:1025A0000E94E72B87FDF3CF20E030E0A901C701AF
:1025B000B6010E94E72B87FF08C08DE2CFDC5C01EB
:1025C000F7FAF094F7F8F09402C0A12CB12C2AE0AD
:1025D00037ED43EA5BE3C701B6010E94B6292B0140
:1025E0003C010E94822A6B017C010E94EB2B9B0123
:1025F000AC01C301B2010E94B5292B013C014AE0A4
:10260000C701B6016BDC7C01EA0CFB1C8EE2A6DC88
:10261000E80EF91E20E030E040E251E4C301B201CF
:102620000E944C2C2B013C010E94822A4B01A12CC0
:10263000B12C4AE0C501B40151DCE80EF91EC50118
:10264000B4010E94EB2B9B01AC01C301B2010E94BB
:10265000B52920E030E040E251E40E944C2C0E9479
:10266000822A80E090E04AE039DCE80EF91E33DC93
:102670008E0D9F1DFF90EF90DF90CF90BF90AF9099
:102680009F908F907F906F905F904F900895B2CB06
:102690000F931F9390E0FC01E256FE4FA491FC01C2
:1026A000E250FE4FE491F0E0EE0FFF1FEC57FE4FBB
:1026B000859194918A019B013F704A2F6A2F0E9455
:1026C000791C611571058105910549F0DC01CB018B
:1026D0000196A11DB11DBC01CD019F7003C060E03A
:1026E00070E0CB011F910F910895CF93DF9336DCFB
:1026F000EC01F1DB8C0F9D1FDF91CF910895CF92FC
:10270000DF92EF92FF92CF93DF936C01990FEE0867
:10271000FF08F7FE15C08DE221DCEC016627772764
:10272000CB016C197D098E099F094AE0D7DB8C0F1C
:102730009D1FDF91CF91FF90EF90DF90CF90089594
:102740004AE0C701B601DF91CF91FF90EF90DF9093
:10275000CF90C4CBCF93DF93682F70E080E090E000
:102760004AE0BCDBEC01B7DB8C0F9D1FDF91CF9102
:102770000895FF920F931F93CF93DF9300D01F9282
:10278000CDB7DEB749DBFC0197FD11C08D32910555
:1027900091F0C0970A9778F0E091200CF091210C0D
:1027A0000680F781E02D80E29CE01995EBCF60E098
:1027B00070E0CB014BC020E030E0A901F12CE1300A
:1027C000F105F1F0ED32F105C9F0CF01C0970A979C
:1027D000B8F4AAE0B0E00E941C2D8F01FF0F220B7D
:1027E000330BDC01CB01800F911FA21FB31F9C0193
:1027F000AD01205331094109510902C0FF24F3946E
:10280000E091200CF091210C0680F781E02D80E210
:102810009CE029833A834B835C831995FDDAFC01A4
:10282000C09729813A814B815C810A9740F2E1305F
:10283000F10529F2FF2041F066277727CB01621BC3
:10284000730B840B950B02C0CA01B9010F900F9056
:102850000F900F90DF91CF911F910F91FF900895EE
:102860008F929F92AF92BF92CF92DF92EF92FF92A0
:102870000F931F93CF93DF934B015C01C12CD12C9D
:102880007601C3E2D0E007EC11E0C701B6010E9477
:10289000EB2BA50194010E94E72B87FF14C061E098
:1028A00082E00E947108CE010197F1F760E082E0BA
:1028B0000E947108C8010197F1F78FEFC81AD80A72
:1028C000E80AF80AE2CFDF91CF911F910F91FF90B4
:1028D000EF90DF90CF90BF90AF909F908F90089532
:1028E0008BE698E00CDE61E08CE20E9471088BE8D8
:1028F00091E00197F1F760E08CE20C947108CF92BF
:10290000DF92EF92FF926B017C0160E088E00E9411
:10291000710860E089E00E94710860E08AE00E942E
:10292000710860E08BE00E94710820E030E042ED29
:1029300052E4C701B6010E944C2CFF90EF90DF904B
:10294000CF908ECFCF92DF92EF92FF926B017C01FE
:1029500061E088E00E94710861E089E00E947108EE
:1029600061E08AE00E94710861E08BE00E947108DA
:1029700020E030E042ED52E4C701B6010E944C2C49
:10298000FF90EF90DF90CF906BCFCF92DF92EF92DE
:10299000FF926B017C0160E088E00E94710860E0BA
:1029A00089E00E94710861E08AE00E94710861E09C
:1029B0008BE00E94710826E636E141E854E4C70145
:1029C000B6010E944C2CFF90EF90DF90CF9048CF43
:1029D000CF92DF92EF92FF926B017C0161E088E081
:1029E0000E94710861E089E00E94710860E08AE05D
:1029F0000E94710860E08BE00E94710826E636E1D3
:102A000041E854E4C701B6010E944C2CFF90EF90BE
:102A1000DF90CF9025CFCF92DF92EF92FF926B01A4
:102A20007C0160E088E00E94710861E089E00E941A
:102A3000710860E08AE00E94710861E08BE00E940A
:102A400071082BE537E348E554E4C701B6010E945D
:102A50004C2CFF90EF90DF90CF9002CFCF92DF927F
:102A6000EF92FF926B017C0161E088E00E947108A7
:102A700060E089E00E94710861E08AE00E947108CC
:102A800060E08BE00E9471082BE537E348E554E4F1
:102A9000C701B6010E944C2CFF90EF90DF90CF90C1
:102AA000DFCE0F931F93CF93DF9386E798E027DD68
:102AB00010E08DE598E0EBDD00E0802F810F90E0E5
:102AC000FC01EE0FFF1F8E0F9F1FFC01E256F54F1A
:102AD000C081D181C230D105B1F044F4209781F09A
:102AE000C130D105D1F48AE898E00FC0C430D105D7
:102AF00089F06CF0C530D10581F48DE998E005C00E
:102B000086E898E002C08FE898E0C1DD0BC083E959
:102B100098E0FBCF87E998E0F8CF82EA98E0B7DD4C
:102B2000CE01EDDD085F003441F61F5F183009F07B
:102B3000C0CFDF91CF911F910F91CDC90F931F93FC
:102B4000CF93DF930EE91AE0C0E0D0E0F801808176
:102B500091818230910579F03CF40097A9F00197BA
:102B6000B9F420E04FEF09C084309105A1F04CF09A
:102B7000059751F00DC02FEF40E060E0CE01DADAAA
:102B80000AC020E04FEF02C020E040E06FEFF6CF38
:102B900085EA98E0B4DC8091620D9091630D892BF9
:102BA00009F012DA21960D5F1F4FC034D10571F67E
:102BB000DF91CF911F910F910895E091030EF0E006
:102BC000EE0FFF1FE255FD4F8081833361F02CF43F
:102BD000813349F08233A9F518C0853321F0ACF078
:102BE000863379F512C0E091030E8091030E90E0D8
:102BF000F0E0EE0FFF1FE255FD4F2181220F330B56
:102C000021583109821B930B19C0E091030E80916A
:102C1000030E282F30E0F0E0EE0FFF1FE255FD4FCE
:102C2000418188E490E0841B910947FD9395880FCA
:102C3000991F0197A901481B590BCA018093030EE4
:102C400003C081EC98E05BDC8EEA93E020DDE0914C
:102C5000030EF0E0EE0FFF1FE255FD4F80817ED99D
:102C6000E091030EF0E0EE0FFF1FE255FD4F818172
:102C70003CCD8091030E81508093030E8EEA93E049
:102C800006DDE091030EF0E0EE0FFF1FE255FD4F71
:102C9000808164D9E091030EF0E0EE0FFF1FE25552
:102CA000FD4F818122CD8F929F92AF92BF92CF92A2
:102CB000DF92EF92FF920F931F93CF938CEE98E0E9
:102CC0001EDC2BE3822E2CE9922E02E010E03CE881
:102CD000E32EF12C4BE4C42ED12CAA24A394B12CC6
:102CE00080E29CE00E94A006892B09F4BAC280E22F
:102CF0009CE00E949206C82F8CEF98E0C8DC8C2FD5
:102D0000F4DC8091900A9091910A81309105D9F07C
:102D10008230910509F42AC1892B09F098C288E113
:102D200099E0B5DC8091900A9091910A22D9C33242
:102D300009F08DC280E29CE00E947E06B092910A6A
:102D4000A092900A71C188E199E0A1DC8091900A7B
:102D50009091910A0ED9CA3209F47FC0CF3309F499
:102D600074C0C33209F073C280E29CE00E947E0608
:102D70001093910A0093900A68EE73E080E090E06F
:102D80000E9401098091030E882309F44EC06AE96C
:102D900079E989EA90E462DEF0920102E0920002B1
:102DA00080910002909101028B3491058CF023DB1D
:102DB0006FE070E080E090E00E94010980910002E5
:102DC0009091010201979093010280930002E8CF55
:102DD00060ED77E080E090E00E940109D09201026E
:102DE000C092000280910002909101028D389105FD
:102DF0008CF401DB6FE070E080E090E00E9401095C
:102E000080910002909101020196909301028093BB
:102E10000002E8CF68E873E180E090E00E940109D9
:102E20006AE979E989EA90E4F6DD60ED77E080E02F
:102E300090E00E9401090E9494056CED75E080E02D
:102E400090E00E9401094CDDEFC080E29CE00E940E
:102E50007E0646DD81E599E0F8C180E29CE00E94B3
:102E60007E0687DC70938F0A60938E0A80E799E074
:102E70000EDC80918E0A90918F0A7BD87ADC709359
:102E80008D0A60938C0A8DE899E001DC80918C0AB0
:102E900090918D0A6ED880918E0A90918F0A97FD3D
:102EA00012C060918E0A70918F0A072E000C880B59
:102EB000990B0E94ED2B25E438ED40EF5AE30E9478
:102EC0004C2C86DD1BC080918E0A90918F0A6091F8
:102ED0008E0A70918F0A181619061CF0719561956B
:102EE0007109072E000C880B990B0E94ED2B25E42D
:102EF00038ED40EF5AE30E944C2C47DDC4010197A6
:102F0000F1F780918C0A90918D0A97FD12C0609123
:102F10008C0A70918D0A072E000C880B990B0E9469
:102F2000ED2B25E438ED40EF5AE30E944C2C73DD85
:102F30001BC080918C0A90918D0A60918C0A7091CF
:102F40008D0A181619061CF0719561957109072EE6
:102F5000000C880B990B0E94ED2B25E438ED40EF17
:102F60005AE30E944C2C7ADDBBDCBACE88E199E0B2
:102F70008EDB8091900A9091910A0E94B90FC33222
:102F800059F0CF3309F063C180E29CE00E947E06D5
:102F9000A7DC89EB99E059C180E29CE00E947E06A3
:102FA0001092910A1092900A0E947A058AEA99E09A
:102FB000A6DAE091030EF0E0EE0FFF1FE255FD4FA1
:102FC00080818733E9F4E091030EF0E0EE0FFF1FFC
:102FD000E255FD4F8181813439F160E070E080E499
:102FE00091E419DD46DE0E94CD0E0E94050B0E9481
:102FF0008F0964E670E080E090E00E940109E3CF71
:10300000E091030EF0E0EE0FFF1FE255FD4F8181CE
:103010008134B9F5E091030EF0E0EE0FFF1FE255A9
:10302000FD4F8081873341F489E299E030DB809164
:10303000900A9091910A12C160E070E080E491E4FE
:103040000DDDBBDDE091030EF0E0EE0FFF1FE2555A
:10305000FD4F8081813364F0853334F0883344F44C
:10306000D7D30E94E90C04C00E94880E0E94440C31
:103070000E948E0D64E670E080E090E00E940109FD
:10308000C9CFE091030EF0E0EE0FFF1FE255FD4FB8
:103090008181873409F067C0E091030EF0E0EE0F04
:1030A000FF1FE255FD4F8081873329F160E070E01A
:1030B00080E491E4D3DC81DDE091030EF0E0EE0FDB
:1030C000FF1FE255FD4F8081813364F0853334F07A
:1030D000883344F49DD30E94E90C04C00E94880EFA
:1030E0000E94440C0E940B0E64E670E080E090E0C9
:1030F0000E940109D1CF60E070E080E490E48BDCB5
:1031000064EF71E080E090E00E94010960E070E00F
:1031100080E89FE35DDC60E070E084EB92E4EFDB4D
:1031200060E070E080EC9FE399DCE091030EF0E05A
:10313000EE0FFF1FE255FD4F8181813409F474CFFA
:1031400060E070E080E491E466DC93DD0E94CD0EE7
:103150000E94050B0E948F0964E670E080E090E019
:103160000E940109E2CFE091030EF0E0EE0FFF1F95
:10317000E255FD4F8081813309F056CFE091030E77
:10318000F0E0EE0FFF1FE255FD4F8181813499F091
:1031900060E070E080E491E43EDC6BDD0E94CD0EE7
:1031A0000E94050B0E948F0964E670E080E090E0C9
:1031B0000E940109E3CF60E070E080E490E44EDC1F
:1031C00064E670E080E090E00E94010960E070E059
:1031D00080E89FE3DADB60E070E084EB92E4B2DB4E
:1031E00060E070E080EC9FE316DCE091030EF0E01D
:1031F000EE0FFF1FE255FD4F8081873309F414CF96
:1032000060E070E080E491E429DCD7DCE091030E1B
:10321000F0E0EE0FFF1FE255FD4F8081813364F037
:10322000853334F0883344F4F3D20E94E90C04C0AF
:103230000E94880E0E94440C0E948E0D64E670E08D
:1032400080E090E00E940109D0CF59D949CD8DE3AB
:1032500099E01DDA80E29CE00E947E060E94B90F90
:103260003FCDCF911F910F91FF90EF90DF90CF90C6
:10327000BF90AF909F908F900895CF92DF92EF9282
:10328000FF920F931F93CF93DF93CAE0D0E0C12C3E
:10329000D12C76010FE010E061E08EE20E9471080F
:1032A000C8010197F1F760E08EE20E94710840E4E6
:1032B00052E46FE070E088E1EBD90E94EB2B9B01B8
:1032C000AC01C701B6010E94B6296B017C016AE01E
:1032D00070E080E090E00E9401092197E9F620E08B
:1032E00030E040E251E4C701B6010E941A2A20E012
:1032F00030E040E05FE30E944C2C20E030E048EEFC
:1033000051E40E941A2A2EE53AEB49EC5EE30E9452
:103310004C2C24E13EEA4FE850E40E94B5296B01B1
:103320007C0188ED99E0B3D9C701B601F2D8C70195
:10333000B601DF91CF911F910F91FF90EF90DF9039
:10334000CF900895CF92DF92EF92FF920F931F9349
:10335000CF93DF93CAE0D0E0C12CD12C76010FE0EF
:1033600010E061E088E20E947108C8010197F1F75E
:1033700060E088E20E94710840E452E46FE070E08F
:1033800086E286D90E94EB2B9B01AC01C701B601F6
:103390000E94B6296B017C016AE070E080E090E059
:1033A0000E9401092197E9F620E030E040E251E473
:1033B000C701B6010E941A2A20E030E040E05FE336
:1033C0000E944C2C20E030E048EE51E40E941A2A82
:1033D0002EE53AEB49EC5EE30E944C2C23E333E309
:1033E00043E750E40E94B5296B017C0185EE99E02A
:1033F0004ED9C701B6018DD8C701B601DF91CF9173
:103400001F910F91FF90EF90DF90CF900895CF9292
:10341000DF92EF92FF920F931F93CF93DF93CAE057
:10342000D0E0C12CD12C76010FE010E061E080E308
:103430000E947108C8010197F1F760E080E30E94E3
:10344000710840E452E46FE070E08DE221D90E94FF
:10345000EB2B9B01AC01C701B6010E94B6296B01A1
:103460007C016AE070E080E090E00E940109219711
:10347000E9F620E030E040E251E4C701B6010E94E5
:103480001A2A20E030E040E05FE30E944C2C20E06C
:1034900030E048EE51E40E941A2A2EE53AEB49EC5E
:1034A0005EE30E944C2C20E030E040E050E40E94BB
:1034B000B5296B017C0183EF99E0E9D8C701B6011A
:1034C00028D8C701B601DF91CF911F910F91FF90CE
:1034D000EF90DF90CF900895AF92BF92CF92DF929E
:1034E000EF92FF920F931F93CF93DF9300D01F9221
:1034F000CDB7DEB78AE0A82EB12CC12CD12C760135
:103500000FE010E061E086E10E947108C8010197B8
:10351000F1F760E086E10E94710840E452E46FE058
:1035200070E08FE2B5D80E94EB2B9B01AC01C70184
:10353000B6010E94B6296B017C016AE070E080E070
:1035400090E00E94010981E0A81AB108D9F620E0B4
:1035500030E040E251E4C701B6010E941A2A20E09F
:1035600030E040E05FE30E944C2C20E030E048EE89
:1035700051E40E941A2A2EE53AEB49EC5EE30E94E0
:103580004C2C20E030E040EC5FE30E94B5296B0159
:103590007C0186E09AE07BD8C701B6010E948912BF
:1035A0006AE070E080E090E00E94010930DF9B015A
:1035B000AC016AE070E080E090E029833A834B83BD
:1035C0005C830E94010929813A814B815C81C7019A
:1035D000B6010E94B5296B017C0188E19AE057D8B9
:1035E000C701B6010E948912C701B6010F900F9062
:1035F0000F900F90DF91CF911F910F91FF90EF905F
:10360000DF90CF90BF90AF900895CF92DF92EF926E
:10361000FF920F931F93CF93DF93CAE0D0E0C12CAA
:10362000D12C76010FE010E061E080E20E94710889
:10363000C8010197F1F760E080E20E94710840E460
:1036400052E46FE070E08CE123D80E94EB2B9B01E9
:10365000AC01C701B6010E94B6296B017C016AE08A
:1036600070E080E090E00E9401092197E9F620E0F7
:1036700030E040E251E4C701B6010E941A2A20E07E
:1036800030E040E05FE30E944C2C20E030E048EE68
:1036900051E40E941A2A2EE53AEB49EC5EE30E94BF
:1036A0004C2C2EEA37E441EC5FE30E94B5296B0114
:1036B0007C0184E39AE00E944713C701B6010E948F
:1036C0008912C701B601DF91CF911F910F91FF9031
:1036D000EF90DF90CF900895AF92BF92CF92DF929C
:1036E000EF92FF920F931F93CF93DF9300D01F921F
:1036F000CDB7DEB78AE0A82EB12CC12CD12C760133
:103700000FE010E061E08FE10E947108C8010197AD
:10371000F1F760E08FE10E94710840E452E46FE04D
:1037200070E08AE10E9448130E94EB2B9B01AC01E0
:10373000C701B6010E94B6296B017C016AE070E006
:1037400080E090E00E94010981E0A81AB108D1F65A
:1037500020E030E040E251E4C701B6010E941A2A9D
:1037600020E030E040E05FE30E944C2C20E030E0BD
:1037700048EE51E40E941A2A2EE53AEB49EC5EE34A
:103780000E944C2C2FE135E84BEC5FE30E94B529F9
:103790006B017C0188E49AE00E944713C701B601DF
:1037A0000E9489126AE070E080E090E00E940109C6
:1037B0002CDF9B01AC016AE070E080E090E029839F
:1037C0003A834B835C830E94010929813A814B81B2
:1037D0005C81C701B6010E94B5296B017C018BE5B4
:1037E0009AE00E944713C701B6010E948912C701DF
:1037F000B6010F900F900F900F90DF91CF911F9116
:103800000F91FF90EF90DF90CF90BF90AF90089511
:10381000CF92DF92EF92FF9288E79AE00E947F12A8
:103820005BDF6B017C0120E030E0A9010E94AE2A41
:10383000181684F42DEC3CEC4CE45EE3C701B601B1
:103840000E94AE2A18162CF560E070E080E89FE335
:1038500079D818C02DEC3CEC4CE45EEBC701B60106
:103860000E94E72B87FF15C020E030E0A901C701C7
:10387000B6010E94E72B87FF05C060E070E080E89A
:103880009FE33DD86BE470E080E090E00E94010986
:10389000C7CFFF90EF90DF90CF900895CF92DF9247
:1038A000EF92FF920F931F93CF93DF936C017A01F6
:1038B0008B01C0E0D0E0CE15DF0589F0D8016D9115
:1038C0008D01D601ED91FC910190F081E02DC601B2
:1038D0001995892B11F47E0102C02196ECCFC70106
:1038E000DF91CF911F910F91FF90EF90DF90CF90DC
:1038F0000895CF92DF92EF92FF920F931F93E82FDC
:10390000F92F05C0015011092109310961F1908198
:1039100096239417B9F305C0015011092109310903
:1039200011F1908196239413F7CFC12CD12CE12C67
:10393000F12C0AC08FEFC81AD80AE80AF80A0C1549
:103940001D052E053F0579F080818623841791F3AC
:103950006C2D7D2D8E2D9F2D1F910F91FF90EF903F
:10396000DF90CF90089560E070E080E090E01F91DC
:103970000F91FF90EF90DF90CF900895CF93DF935A
:10398000CDB7DEB76C970FB6F894DEBF0FBECDBFD4
:10399000789484B5826084BD84B5816084BD85B52A
:1039A000826085BD85B5816085BD80916E00816036
:1039B00080936E00109281008091810082608093DC
:1039C00081008091810081608093810080918000DE
:1039D0008160809380008091B10084608093B10009
:1039E0008091B00081608093B000809191008260EE
:1039F00080939100809191008160809391008091EB
:103A000090008160809390008091A10082608093FB
:103A1000A1008091A10081608093A1008091A0000D
:103A200081608093A00080912101826080932101B8
:103A3000809121018160809321018091200181602A
:103A40008093200180917A00846080937A00809135
:103A50007A00826080937A0080917A0081608093FE
:103A60007A0080917A00806880937A001092C10079
:103A70008DEB9CE00E94440F68EE73E080E090E0E4
:103A80000E94010980E293E00E947F128DE693E09C
:103A90000E947F1281E293E00E947F1260E08CE03E
:103AA0000E94A00860E08CE00E94710861E081E261
:103AB0000E94A00860E081E20E94710860E08AE153
:103AC0000E94A00860E08CE10E94A00860E086E20D
:103AD0000E94A00860E08DE20E94A00860E08FE2F2
:103AE0000E94A00860E088E10E94A00861E08FE1E8
:103AF0000E94A00860E08FE10E94710861E080E20E
:103B00000E94A00860E080E20E94710861E088E203
:103B10000E94A00860E088E20E94710861E080E3F2
:103B20000E94A00860E080E30E94710861E086E1E5
:103B30000E94A00860E086E10E94710861E08EE2C8
:103B40000E94A00860E08EE20E94710861E082E0BD
:103B50000E94A00860E082E00E94710861E088E0B5
:103B60000E94A00861E088E00E94710861E089E09D
:103B70000E94A00860E089E00E94710861E08AE08C
:103B80000E94A00861E08AE00E94710861E08BE079
:103B90000E94A00860E08BE00E94710860E082E271
:103BA0000E94A00861E08DE00E94A00860E08DE026
:103BB0000E94710880E29CE00E94440F61E08CE268
:103BC0000E94A00860E08CE20E9471081092910AA5
:103BD0001092900A10928F0A10928E0A10928D0AFB
:103BE00010928C0A83E090E090937C0B80937B0B87
:103BF00010927D0BEBE7FBE081E024E030E03483C2
:103C00002383858333968F5F8133C9F761E487E32C
:103C10000E946605E82FF0E09F01220F331FE20F9C
:103C2000F31FE558F44F23E030E031832083828393
:103C30008091600D87FD08C061E00E94A00860E0EF
:103C40008091600D0E94710881E080935B0D60910E
:103C5000610D663021F12091620D3091630D61504C
:103C600031F070E08FEF95E00E94802902C060E0A3
:103C700070E0F90140915E0D50915F0DCF01821B04
:103C8000930B8417950740F44081469FC001479FDE
:103C9000900D11249193EECF86E08093610D809179
:103CA000000E803308F053C061E085E30E94A00855
:103CB0008091000EE82FF0E09F01220F331FE20FEA
:103CC000F31FE159F24F9081907C9563908310929D
:103CD000010E1092020E6CE00E9474292CE0829F6B
:103CE000B001112440E050E09A01260F371FF9017E
:103CF000EE0FFF1F2E0F3F1FF901E159F24F908188
:103D000096FD18C04F5F5F4F4C30510569F7813009
:103D100011F00C947D271092800082E08093810046
:103D20001092850010928400B19A80916F00826099
:103D300080936F00E091000EF0E0CF01880F991F93
:103D4000E80FF91FE159F24F8081806480838091F0
:103D50000002909101020E94FB118091710B811170
:103D600045C01092630B1092620B8FEF8093660B2D
:103D70008093670B8093680B8093690B80936A0B29
:103D800080936B0B81E080936C0B10926E0B109202
:103D90006D0B1092650B1092640B80911E0C90912C
:103DA0001F0C892B31F480E69BE090931F0C8093CD
:103DB0001E0CE0915E0BF0915F0B309721F080E6D6
:103DC0009BE09583848380E69BE090935F0B8093D8
:103DD0005E0B1092700B10926F0B80E292E090934A
:103DE000610B8093600B81E08093710BE091600B1D
:103DF000F091610B0480F581E02D80E69BE0199540
:103E000082E99AE09093630B8093620B84E090E0E8
:103E100090936E0B80936D0BE091600BF091610BB2
:103E20000284F385E02D80E69BE01995009729F147
:103E30009C0140E050E060E472E48FE090E00E947A
:103E4000002D722F632F0091070E1091080E209104
:103E5000090E30910A0E872F962FDA0180179107ED
:103E6000A207B30710F4D901C8018093070E9093FD
:103E7000080EA093090EB0930A0E0E947A0560E125
:103E800077E280E090E00E94010920E04FEF6FEFC1
:103E900080E090E00E949A108091620D9091630DF5
:103EA000892B11F00E94E40F60E3A62E61E0B62E8C
:103EB0000AEA11E07AE0E72E72E0F72EF50184912C
:103EC000F801C490F701D490DD20A1F081110E9487
:103ED0001B088D2D90E0880F991F8C579E4FFC0179
:103EE000A591B4918C91C82281E0D12C09F480E095
:103EF000C82E02C0C12CD12CC092790BD0927A0B63
:103F000064EF71E080E090E00E940109C6010E9428
:103F1000B90F8091790B90917A0B892B09F4CECF50
:103F20006DEC7CEC8CEC9DE30E942E156DEC7CEC32
:103F30008CEC9DE30E947F146DEC7CEC8CEC9DE39B
:103F40000E940B156DEC7CEC8CEC9DE30E94A2149E
:103F500045E0A42EB12C80910E0C8111CBC731E32A
:103F6000832E912C8091030E803308F052C187E795
:103F700093E00E947F128091030E803308F0FCC012
:103F8000E091030EF0E0EE0FFF1FE255FD4FF080D1
:103F9000E091030EF0E0EE0FFF1FE255FD4FE180D0
:103FA0008F2D0F2C000C990BAA0BBB0BFC01F1976A
:103FB000E730F10508F093C08827EE58FF4F8F4F88
:103FC0000C94A729F6E4EF16E9F1FE154CF021E474
:103FD000E2160CF484C060E070E080E491E436C046
:103FE00037E4E3127CC060E070E080E490E40E947B
:103FF0000B1564E670E080E090E00E94010960E04B
:1040000070E080E89FE30E94C51464E670E080E001
:1040100090E00E94010960E070E084EB92E40E946D
:104020007F1460E070E080E491E40E942E1560E06F
:1040300070E084EB92E40E94A21460E070E080ECF7
:104040009FE304C060E070E088E291E40E942E15D6
:104050004AC042E4E416E1F14E1594F151E4E51250
:104060003EC060E070E080E490E40E942E1564E6BB
:1040700070E080E090E00E94010960E070E080E87C
:104080009FE30E94C51464E670E080E090E00E9427
:10409000010960E070E084EB92E40E947F1460E02C
:1040A00070E080E491E40E942E1560E070E084EB03
:1040B00092E40E94A21460E070E080EC9FE30CC0E8
:1040C00067E46E1564F060E070E080E491E404C0A1
:1040D00060E070E088E291E40E940B1504C083E880
:1040E00093E00E947F128091030E8F5F8093030EF6
:1040F0008EEA93E00E944713E091030EF0E0EE0F8A
:10410000FF1FE255FD4F80810E94AE0FE091030E2C
:10411000F0E0EE0FFF1FE255FD4F81810E94751305
:104120000E94CD0E0E94050B0E948F09E091030EA4
:10413000F0E0EE0FFF1FE255FD4F0081E091030E0E
:10414000F0E0EE0FFF1FE255FD4F11818EEB93E083
:104150000E9447138F2D0E94AE0F8E2D0E94AE0F2E
:1041600080ED93E00E944713802F0E94AE0F812FB5
:104170000E9475130E946B0F64E670E080E090E08F
:104180000E94010961E081E20E9471088BE891E0E0
:104190000197F1F760E081E20E9471088AED93E0F7
:1041A0000E947F1202E310E0E12CF12C40E157E283
:1041B00060E070E082E20E9448139B0177FF04C038
:1041C00022273327261B370BE20EF31E015011095D
:1041D00069F7C70162E370E00E9494298B0188EEC1
:1041E00093E00E944713C8010E947F1381E094E08E
:1041F0000E947F12C80117FF04C088279927801BDF
:10420000910B459734F009571C4E0F30174208F4B4
:10421000A4C681E0881A910809F0A4CE90E0E12CB0
:10422000F12C00E010E0892F800F682E712CE7E060
:10423000EE16F10419F00730110571F49301220F05
:10424000331F260D371DF901E256F54F24E030E00B
:1042500031832083128220C06301CC0CDD1CF60167
:10426000E25DFD4F618180819A8F0E94660533E097
:10427000839FF0011124E558F44F93012C0D3D1D4F
:10428000D901A256B54F2081318111963C932E93CE
:10429000828112968C939A8D0F5F1F4F0830110503
:1042A00011F64FEFE41AF40A985F903409F0B9CF91
:1042B0000E9451150E949E1560ED77E080E090E02D
:1042C0000E94010928E018EF120F58E0520F32E067
:1042D000320F422FA1E0B0E0052F021BD12ED21ADF
:1042E000CA2E822F8A0F90E03C01660C771CF301E6
:1042F000E80FF91FE256F54F608171816430710556
:1043000009F019C1612F6A0F70E0FB01EE0FFF1F6A
:10431000E60FF71FE256F54F608171816115710557
:1043200079F56A2F650F70E0FB01EE0FFF1FE60FB6
:10433000F71FE256F54F608171816115710509F033
:104340009CC0642F70E0FB01EE0FFF1FE60FF71F0C
:10435000E256F54F608171816430710509F0EBC060
:10436000632F70E0FB01EE0FFF1FE60FF71FE25611
:10437000F54F608171816430710509F0DCC015C6AC
:104380006430710509F0D7C0C50E6C2D70E0FB01DB
:10439000EE0FFF1FE60FF71FE256F54F60817181A8
:1043A00064307105E9F4642F70E0FB01EE0FFF1F2C
:1043B000E60FF71FE256F54F60817181672B09F018
:1043C000BAC0632F70E0FB01EE0FFF1FE60FF71F6F
:1043D000E256F54F60817181672B09F4E6C5ABC0E9
:1043E000672B09F0A8C0642F70E0FB01EE0FFF1FE0
:1043F000E60FF71FE256F54F0190F081E02DEF2B0D
:10440000F1F4E32FF0E07F01EE0CFF1CEE0DFF1D39
:10441000E256F54F0190F081E02D349781F4E02FC2
:10442000E40FF0E07F01EE0CFF1CEE0DFF1DE256E5
:10443000F54F0190F081E02D349709F475C0FB0130
:10444000EE0FFF1FE60FF71FE256F54F60817181F7
:104450006430710509F06FC0632F70E0FB01EE0F4F
:10446000FF1FE60FF71FE256F54F60817181672B42
:1044700009F061C0602F630F4AC06430710509F014
:104480005AC0642F70E0FB01EE0FFF1FE60FF71F0D
:10449000E256F54F0190F081E02DEF2BE9F4E32F88
:1044A000F0E07F01EE0CFF1CEE0DFF1DE256F54F14
:1044B0000190F081E02D349779F4ED2DE40FF0E0D8
:1044C0007F01EE0CFF1CEE0DFF1DE256F54F019033
:1044D000F081E02D349741F1FB01EE0FFF1FE60F55
:1044E000F71FE256F54F608171816430710519F54F
:1044F000632F70E0FB01EE0FFF1FE60FF71FE25680
:10450000F54F60817181672BB1F469EF6C0D70E03C
:10451000FB01EE0FFF1FE60FF71FE256F54F60811C
:1045200071816430710539F4860D971D8256954F5F
:10453000FC01B182A08211964F5F3F5FA730B105A9
:1045400009F0CECE252F583309F0BDCE0E9451156B
:1045500027E32B837B817054798384E094E00E946D
:104560007F12E981E75FF0E0CF01880F991FE80F24
:10457000F91FE256F54FE080F18032813A83E32F54
:10458000F0E0EE0FFF1FE255FD4F0081118183E146
:1045900094E00E944713802F0E94AE0F812F0E944B
:1045A000AE0F82E294E00E9447138A810E94AA1310
:1045B000013309F48AC2073309F487C2113409F4BC
:1045C00084C2173409F481C2EF2809F07EC25981F0
:1045D0005F5E503408F050E089818F5F803410F4C2
:1045E000282E01C0212C3981365F303409F430E0A7
:1045F0008981885F803410F4482E01C0412C2981C4
:104600002E5E203408F020E049814E5F403408F0EF
:1046100040E08981805F803408F080E06981603407
:1046200010F4962F01C090E0E52EF12CF701EE0F6B
:10463000FF1FEE0DFF1DE256F54F608171817F83F4
:104640006E8372817C83312CF101EE0FFF1FE20D2E
:10465000F31DE256F54F6081718179876887028189
:10466000632F70E07C8F6B8FFB01EE0FFF1FE60F57
:10467000F71FE256F54F608171817B876A877280F0
:10468000512CF201EE0FFF1FE40DF51DE256F54F20
:10469000608171817D876C8772817D8350E0BA0172
:1046A000660F771F460F571FFA01E256F54F4081FC
:1046B0005181588B4F87628030E0A901440F551F0C
:1046C000240F351FF901E256F54F608171817A8B15
:1046D000698B72817B8B292F30E0A901440F551F14
:1046E000240F351FF901E256F54F208131813D8BB2
:1046F0002C8B32813E8B90E09C01220F331F820F66
:10470000931FFC01E256F54F40815181588F4F8B2A
:104710005281598F68857985672BD1F481E394E0C4
:104720000E944713C02ED12CC601880F991FFC018F
:10473000E255FD4F6F0180810E94AE0FF60181812D
:104740000E94AE0F8EE394E00E947F1211E001C040
:1047500010E02E813F81232BD9F485E494E00E9460
:1047600047133C81C32ED12CC601880F991FAC0181
:1047700042555D4F6A01FA0180810E94AE0FF60139
:1047800081810E94AE0F8EE394E00E947F121F5F32
:104790002A853B85232BD1F482E594E00E944713C0
:1047A000C72CD12CC601880F991FAC0142555D4F13
:1047B0006A01FA0180810E94AE0FF60181810E9498
:1047C000AE0F8EE394E00E947F121F5F2C853D8523
:1047D000232BD9F480E694E00E9447133D81C32E39
:1047E000D12CC601880F991FAC0142555D4F6A015B
:1047F000FA0180810E94AE0FF60181810E94AE0F06
:104800008EE394E00E947F121F5F8EE694E00E9488
:104810004713812F0E94AA132F853889232BE1F497
:1048200089E894E00E944713C62CD12CC601880F5A
:10483000991FAC0142555D4F6A01FA0180810E94C7
:10484000AE0FF60181810E94AE0F8EE394E00E94CC
:104850007F126624639401C0612C2F89388D232B2D
:10486000D9F48CE994E00E944713398DC32ED12CE2
:10487000C601880F991FAC0142555D4F6A01FA01CC
:1048800080810E94AE0FF60181810E94AE0F8EE3FF
:1048900094E00E947F12639429893A89232BD9F4EA
:1048A0008FEA94E00E9447133B89C32ED12CC601A6
:1048B000880F991FAC0142555D4F6A01FA01808152
:1048C0000E94AE0FF60181810E94AE0F8EE394E04C
:1048D0000E947F1263942C893D89232BD9F482ECAA
:1048E00094E00E9447133E89C32ED12CC601880F45
:1048F000991FAC0142555D4F6A01FA0180810E9407
:10490000AE0FF60181810E94AE0F8EE394E00E940B
:104910007F12639485ED94E00E944713862D0E94D8
:10492000AA13113009F0D5C02A812C3079F118F47E
:10493000283049F0A5C03A81343209F46EC03832CB
:1049400009F446C09DC080EF94E00E947F124A8522
:104950005B85452B81F4F201EE0FFF1FE40DF51D81
:10496000E256F54FB182A08282E095E00E944713A3
:104970005D81252F49C028853985232B09F0A9C0E1
:10498000F701EE0FFF1FEE0DFF1D34C089E195E02A
:104990000E947F122A853B85232B79F4F201EE0FCA
:1049A000FF1FE40DF51DE256F54FB182A08282E0B3
:1049B00095E00E9447134D8126C02E813F81232B15
:1049C00009F087C0F101EE0FFF1FE20DF31D4CC08F
:1049D0008BE295E00E947F122C853D85232B29F1E7
:1049E0002E813F81232B09F074C0F101EE0FFF1FD0
:1049F000E20DF31DE256F54FB182A08282E095E010
:104A00000E9447134C81242F30E0220F331F89016D
:104A100002551D4FF80180812FC38DE395E00E9460
:104A20007F122C853D85232BB1F4EB8DFC8DEE0F91
:104A3000FF1F4B8D5C8DE40FF51FE256F54FB182E1
:104A4000A08282E095E00E944713872D90E0880FB6
:104A5000991F8C01DDCF28853985232BD1F5F701EE
:104A6000EE0FFF1FEE0DFF1DE256F54FB182A08243
:104A700082E095E00E94471310E0000F111FC8CF9D
:104A8000C02ED12CC601880F991F9C0122553D4F85
:104A90006901F9018181813409F08FC2F1E0F615D5
:104AA00008F48BC2F101EE0FFF1FE20DF31DE25679
:104AB000F54F1182108282E095E00E944713F601C3
:104AC00080810E94AE0F81E4DBC28FE495E00E94FA
:104AD0007F125981585F59836B8156133ECD5F5FBA
:104AE0005B835F3309F036CD0E9451150E949E15FD
:104AF00089E695E00E947F120EE212E0F401E55A89
:104B0000F44F80819181892BB9F5F801E258FF4F6C
:104B1000E0803196F08088E795E00E9447138E2D63
:104B20000E94AE0F8F2D0E94751387E3E81649F09F
:104B300091E3E91631F0E1E4FE1619F0F7E4FF1213
:104B40001BC089E895E00E9447136F2D8E2D0E94AF
:104B500066058E87682F70E080E090E04AE00E9452
:104B60006E0F8BE899E00E9447138E2D0E94AE0FC6
:104B70008F2D0E9475130BC023E0821A91080250FA
:104B8000110930E483163FEF930609F0B7CF4E8545
:104B9000E42FF0E0EE0FFF1FE255FD4F1081018181
:104BA00087E995E00E944713812F0E94AE0F802F66
:104BB0000E947513E091030EF0E0EE0FFF1FE25527
:104BC000FD4F8081181320C0E091030EF0E0EE0F3E
:104BD000FF1FE255FD4F8181081709F447C060E0CF
:104BE00070E080E491E40E940B150E9439160E9447
:104BF000CD0E0E94050B0E948F0964E670E080E0F4
:104C000090E00E940109E0CFE091030EF0E0EE0F8A
:104C1000FF1FE255FD4F8181081364C060E070E022
:104C200080E490E40E940B1564E670E080E090E080
:104C30000E94010960E070E080E89FE30E94E814B0
:104C400060E070E084EB92E40E94A21460E070E007
:104C500080EC9FE30E942E15E091030EF0E0EE0F32
:104C6000FF1FE255FD4F8081181314C08091030E81
:104C7000882309F43BC10E9494056CED75E080E047
:104C800090E00E94010980E29CE00E9425070E94BA
:104C900070142CC160E070E080E491E40E942E1555
:104CA0000E94DD15E091030EF0E0EE0FFF1FE255CC
:104CB000FD4F808181336CF085333CF088334CF4B8
:104CC0000E94081C0E94E90C04C00E94880E0E94E9
:104CD000440C0E940B0E64E670E080E090E00E94BD
:104CE0000109BACF013409F070C0E091030EF0E081
:104CF000EE0FFF1FE255FD4F81818134A9F060E086
:104D000070E080E491E40E940B150E9439160E9425
:104D1000CD0E0E94050B0E948F0964E670E080E0D2
:104D200090E00E940109E1CF60E070E080E490E44F
:104D30000E942E1564E670E080E090E00E94010978
:104D400060E070E080E89FE30E94E81460E070E0BB
:104D500084EB92E40E94A21460E070E080EC9FE398
:104D60000E940B15E091030EF0E0EE0FFF1FE255DD
:104D7000FD4F8081181709F479CF60E070E080E47E
:104D800091E40E942E150E94DD15E091030EF0E0E3
:104D9000EE0FFF1FE255FD4F808181336CF08533AC
:104DA0003CF088334CF40E94081C0E94E90C04C0BB
:104DB0000E94880E0E94440C0E948E0D64E670E0F2
:104DC00080E090E00E940109CDCF173309F04ECF6B
:104DD00060E070E080E490E40E940B1564E670E00F
:104DE00080E090E00E94010960E070E080E89FE3CD
:104DF0000E94E81460E070E084EB92E40E94A21448
:104E000060E070E080EC9FE30E942E15E091030EBD
:104E1000F0E0EE0FFF1FE255FD4F8081873341F137
:104E200060E070E080E491E40E942E150E94DD15A0
:104E3000E091030EF0E0EE0FFF1FE255FD4F808181
:104E400081336CF085333CF088334CF40E94081CAD
:104E50000E94E90C04C00E94880E0E94440C0E942B
:104E60000B0E64E670E080E090E00E940109CECF76
:104E700060E070E080E490E40E940B1564E670E06E
:104E800080E090E00E94010960E070E080E89FE32C
:104E90000E94E81460E070E084EB92E40E947F14CA
:104EA00060E070E080EC9FE30E942E15E091030E1D
:104EB000F0E0EE0FFF1FE255FD4F8181081709F466
:104EC000D5CE60E070E080E491E40E940B150E9472
:104ED00039160E94CD0E0E94050B0E948F0964E6D0
:104EE00070E080E090E00E940109E0CF81E08093D3
:104EF0000E0C31C80E9446072EC8823069F4109209
:104F0000900080939100109295001092940088BBBD
:104F1000809371000C949A1E833071F41092A0005B
:104F200082E08093A1001092A5001092A40089BB9A
:104F3000809372000C949A1E81110C949A1E109208
:104F4000200182E08093210110922501109224011A
:104F50008ABB809373000C949A1E8091030EE0919B
:104F6000030EF0E09F01220F331FE20FF31FE558FD
:104F7000F44F1182108282838EEA95E00E944713DB
:104F8000E091030EF0E0EE0FFF1FE255FD4F808130
:104F90000E94AE0FE091030EF0E0EE0FFF1FE2550E
:104FA000FD4F81810E94751334C9860D971D82566D
:104FB000954FFC0111821082BECA2C81022F10E095
:104FC000000F111F02551D4FF80181818734B1F484
:104FD00021E0261598F0F701EE0FFF1FEE0DFF1DE3
:104FE000E256F54F1182108282E095E00E9447134D
:104FF000F80180810E94AE0F87E442C0072D10E0C7
:10500000000F111F02551D4FF80180818133A9F453
:1050100031E0361590F0EB8DFC8DEE0FFF1F2B8DE0
:105020003C8DE20FF31FE256F54F1182108282E0B1
:1050300095E00E94471381E31FC04D81242F30E08B
:10504000220F331F890102551D4FF80180818733DC
:1050500009F03FCD41E0461508F43BCDF201EE0FDB
:10506000FF1FE40DF51DE256F54F1182108282E01C
:1050700095E00E94471387E30E94AE0FF8018181FB
:105080000E94AE0F82E195E022CD1092230C109287
:10509000220C48EE53E060E070E04093240C509303
:1050A000250C6093260C7093270C84E193E0909379
:1050B000210C8093200C25ED30E030932D0C2093B3
:1050C0002C0C24ED30E030932F0C20932E0C20ED8F
:1050D00030E03093310C2093300C21ED30E03093F0
:1050E000330C2093320C22ED30E03093350C2093BA
:1050F000340C26ED30E03093370C2093360C1092B0
:10510000390C10923A0C10923B0C10923C0C1092FD
:10511000C00C1092BF0C4093C10C5093C20C609312
:10512000C30C7093C40C9093BE0C8093BD0C85ECA3
:1051300090E09093CA0C8093C90C84EC90E090931B
:10514000CC0C8093CB0C20EC30E03093CE0C209331
:10515000CD0C81EC90E09093D00C8093CF0C82EC3E
:1051600090E09093D20C8093D10C86EC90E09093D9
:10517000D40C8093D30C1092D60C1092D70C1092B2
:10518000D80C1092D90C10925B0D1092610D1092F8
:10519000680D1092690D10926A0D10926B0D81E0EE
:1051A0008093670D8093640D1092650D92E090934B
:1051B000660D80935A0D30935F0D20935E0D80EC49
:1051C00090E0D4D19093630D8093620D009761F0CD
:1051D00020ECFC0111922A95E9F780E490E090938D
:1051E0005D0D80935C0D08C010925F0D10925E0DF6
:1051F00010925D0D10925C0D86E08093600D8091A1
:105200005B0D882341F061E086E00E94A00860E029
:1052100086E00E947108E4E0F2E0E491F0E0EE0F35
:10522000FF1FEC51FE4F8591949190936D0D8093EB
:105230006C0DE4EAF1E0E491E0936E0D8091FF0DD6
:105240008033A0F491E0980F9093FF0D8093000EAF
:1052500090E0FC01EE0FFF1F8E0F9F1FFC01E15934
:10526000F24F88EB9BE09283818303C08FEF8093A2
:10527000000E61E487E30E9466058093030E8FEFC2
:105280008093040E1092060E1092050E1092100ECE
:1052900010920F0E8FEF9FEFDC0180930B0E909317
:1052A0000C0EA0930D0EB0930E0E08958091620D1A
:1052B0009091630D009709F0EED18091600D87FD0C
:1052C00003C060E00C94A0080895DB018F939F93C6
:1052D000B3D3BF91AF91A29F800D911DA39F900D5D
:1052E000B29F900D11240895991B79E004C0991F75
:1052F000961708F0961B881F7A95C9F78095089530
:10530000AA1BBB1B51E107C0AA1FBB1FA617B707EB
:1053100010F0A61BB70B881F991F5A95A9F7809507
:105320009095BC01CD01089597FB072E16F40094CB
:1053300006D077FD08D0E4DF07FC05D03EF4909559
:1053400081959F4F0895709561957F4F0895EE0F59
:10535000FF1F881F8BBF0790F691E02D19949ED3F5
:10536000B7FF0895821B930B08955058BB27AA27B7
:105370000ED00CC3FDD230F002D320F031F49F3FA9
:1053800011F41EF4F2C20EF4E095E7FBE8C2E92F37
:105390000ED380F3BA17620773078407950718F0D6
:1053A00071F49EF526C30EF4E0950B2EBA2FA02DB6
:1053B0000B01B90190010C01CA01A0011124FF27C2
:1053C000591B99F0593F50F4503E68F11A16F040BD
:1053D000A22F232F342F4427585FF3CF46953795BC
:1053E0002795A795F0405395C9F77EF41F16BA0B81
:1053F000620B730B840BBAF09150A1F0FF0FBB1F2F
:10540000661F771F881FC2F70EC0BA0F621F731F77
:10541000841F48F4879577956795B795F7959E3FD4
:1054200008F0B3CF9395880F08F09927EE0F979562
:10543000879508950CD0AAC2A2D240F099D230F03C
:1054400021F45F3F19F08BC25111D4C28EC2AFD28A
:1054500098F39923C9F35523B1F3951B550BBB273B
:10546000AA2762177307840738F09F5F5F4F220FE8
:10547000331F441FAA1FA9F333D00E2E3AF0E0E8E1
:1054800030D091505040E695001CCAF729D0FE2F2D
:1054900027D0660F771F881FBB1F261737074807BF
:1054A000AB07B0E809F0BB0B802DBF01FF27935875
:1054B0005F4F2AF09E3F510568F051C29BC25F3F8B
:1054C000ECF3983EDCF3869577956795B795F7955D
:1054D0009F5FC9F7880F911D9695879597F9089555
:1054E000E1E0660F771F881FBB1F621773078407F1
:1054F000BA0720F0621B730B840BBA0BEE1F88F700
:10550000E09508955CD288F09F5790F0B92F9927C5
:10551000B751A0F0D1F0660F771F881F991F1AF0BE
:10552000BA95C9F712C0B13081F063D2B1E00895E5
:1055300060C2672F782F8827B85F39F0B93FCCF366
:10554000869577956795B395D9F73EF490958095B4
:10555000709561957F4F8F4F9F4F089579D108F4D3
:105560008FEF089575D1880B990B0895CF93DF9332
:105570008230910510F482E090E0E0911D0EF091F0
:105580001E0E20E030E0C0E0D0E0309711F1408105
:10559000518148175907C0F04817590761F48281B3
:1055A0009381209719F09B838A832BC090931E0EC2
:1055B00080931D0E26C02115310519F0421753079F
:1055C00018F49A01BE01DF01EF010280F381E02DA2
:1055D000DCCF2115310509F1281B390B24303105A9
:1055E00090F412968D919C9113976115710521F09D
:1055F000FB019383828304C090931E0E80931D0E43
:10560000FD01329644C0FD01E20FF31F8193919397
:10561000225031092D933C933AC020911B0E3091BA
:105620001C0E232B41F4209104023091050230938B
:105630001C0E20931B0E20910202309103022115B3
:10564000310541F42DB73EB7409106025091070253
:10565000241B350BE0911B0EF0911C0EE217F30793
:10566000A0F42E1B3F0B2817390778F0AC014E5FD2
:105670005F4F2417350748F04E0F5F1F50931C0EE5
:1056800040931B0E8193919302C0E0E0F0E0CF01C4
:10569000DF91CF9108950F931F93CF93DF930097DE
:1056A00009F48CC0FC0132971382128200911D0E06
:1056B00010911E0E0115110581F420813181820F98
:1056C000931F20911B0E30911C0E2817390779F576
:1056D000F0931C0EE0931B0E71C0D80140E050E027
:1056E000AE17BF0750F412962D913C911397AD0160
:1056F0002115310509F1D901F3CF9D01DA01338379
:10570000228360817181860F971F8217930769F446
:10571000EC0128813981260F371F2E5F3F4F3183DF
:1057200020838A819B8193838283452B29F4F09384
:105730001E0EE0931D0E42C01396FC93EE9312973B
:10574000ED01499159919E01240F351FE217F3078E
:1057500071F480819181840F951F029611969C931C
:105760008E938281938113969C938E931297E0E09F
:10577000F0E0D80112968D919C911397009719F043
:10578000F8018C01F6CF8D919C9198012E5F3F4FCF
:10579000820F931F20911B0E30911C0E2817390782
:1057A00069F4309729F410921E0E10921D0E02C05B
:1057B0001382128210931C0E00931B0EDF91CF9167
:1057C0001F910F91089581E090E0F89476C140D048
:1057D00008F481E00895E89409C097FB3EF49095A1
:1057E0008095709561957F4F8F4F9F4F9923A9F0BA
:1057F000F92F96E9BB279395F69587957795679549
:10580000B795F111F8CFFAF4BB0F11F460FF1BC08C
:105810006F5F7F4F8F4F9F4F16C0882311F096E91F
:1058200011C0772321F09EE8872F762F05C06623CD
:1058300071F096E8862F70E060E02AF09A95660F86
:10584000771F881FDAF7880F9695879597F908953F
:10585000990F0008550FAA0BE0E8FEEF1616170681
:10586000E807F907C0F012161306E407F50798F0E9
:10587000621B730B840B950B39F40A2661F0232B02
:10588000242B252B21F408950A2609F4A140A6957E
:105890008FEF811D811D08950BD078C069D028F04D
:1058A0006ED018F0952309F05AC05FC01124A2C031
:1058B0007ED0A0F3959FD1F3950F50E0551F629FC6
:1058C000F001729FBB27F00DB11D639FAA27F00D59
:1058D000B11DAA1F649F6627B00DA11D661F829F80
:1058E0002227B00DA11D621F739FB00DA11D621F65
:1058F000839FA00D611D221F749F3327A00D611D82
:10590000231F849F600D211D822F762F6A2F112463
:105910009F5750408AF0E1F088234AF0EE0FFF1FB6
:10592000BB1F661F771F881F91505040A9F79E3FED
:10593000510570F014C05EC05F3FECF3983EDCF39D
:10594000869577956795B795F795E7959F5FC1F72A
:10595000FE2B880F911D9695879597F9089597F9D5
:105960009F6780E870E060E008959FEF80EC089505
:1059700000240A941616170618060906089500242E
:105980000A9412161306140605060895092E0394A8
:10599000000C11F4882352F0BB0F40F4BF2B11F41C
:1059A00060FF04C06F5F7F4F8F4F9F4F089557FD7B
:1059B0009058440F551F59F05F3F71F04795880F7D
:1059C00097FB991F61F09F3F79F087950895121614
:1059D00013061406551FF2CF4695F1DF08C01616C0
:1059E00017061806991FF1CF869571056105089471
:1059F0000895E894BB2766277727CB0197F9089588
:105A0000052E97FB16F400940FD057FD05D024D037
:105A100007FC02D046F408C050954095309521957A
:105A20003F4F4F4F5F4F08959095809570956195CA
:105A30007F4F8F4F9F4F089531D0A59F900DB49FFA
:105A4000900DA49F800D911D11240895B7FFF4CFF0
:105A5000F3DF821B930B0895A1E21A2EAA1BBB1B36
:105A6000FD010DC0AA1FBB1FEE1FFF1FA217B3072A
:105A7000E407F50720F0A21BB30BE40BF50B661F40
:105A8000771F881F991F1A9469F760957095809504
:105A900090959B01AC01BD01CF010895A29FB0017B
:105AA000B39FC001A39F700D811D1124911DB29F52
:105AB000700D811D1124911D089511E0C3E2D1E004
:105AC00000E005C0802FFE0142DC2196011DC4329A
:0C5AD000D10780E00807B1F7F894FFCF81
